:0400000007EF00F016
:100008006F829BED0CF01AEF14F0C5C014F0C6C057
:1000180015F05BEC12F0010EB1EC14F094EC13F057
:10002800CBC0D9FFCCC0DAFF010EDF6E000120EE95
:1000380001F0CB51D926CC51DA22010EDF6ED90E50
:10004800146E000E156E5BEC12F0000E0001E86FE6
:10005800000EE76F0001E8BF08D00001E8511BE17E
:10006800040E0001E75DD8B016D00001E751000189
:10007800C925D96E0001E8510001CA21DA6E000EC7
:10008800DF6E0001E74BE82B0001E8BFEED7000167
:10009800E85101E1E5D78482848079D2C7C014F0A1
:1000A800C8C015F05BEC12F0E90E146E000E156E68
:1000B800EB0E166E000E176EED0E186E000E196E12
:1000C800EF0E1A6E000E1B6E88EC0BF00001EA5161
:1000D800E9C0CDF00001CE6BCDC0CEF00001CD6BF4
:1000E8000001CD110001CF6F0001CE510001D06F8A
:1000F8000001EC51EBC0CDF00001CE6BCDC0CEF0CD
:100108000001CD6B0001CD110001D16F0001CE516E
:100118000001D26F0001EE51EDC0CDF00001CE6BB1
:10012800CDC0CEF00001CD6B0001CD110001D36F21
:100138000001CE510001D46F0001F051EFC0CDF0A5
:100148000001CE6BCDC0CEF00001CD6B0001CD110A
:100158000001D56F0001CE510001D66FE90E146E73
:10016800000E156EEB0E166E000E176EED0E186E65
:10017800000E196EEF0E1A6E000E1B6EFBEC0AF0E5
:100188000001EA51E9C0CDF00001CE6BCDC0CEF040
:100198000001CD6B0001CD110001F16F0001CE51BE
:1001A8000001F26F0001EC51EBC0CDF00001CE6B05
:1001B800CDC0CEF00001CD6B0001CD110001E56F7F
:1001C8000001CE510001E66F0001EE51EDC0CDF007
:1001D8000001CE6BCDC0CEF00001CD6B0001CD117A
:1001E8000001F36F0001CE510001F46F0001F051DE
:1001F800EFC0CDF00001CE6BCDC0CEF00001CD6BCD
:100208000001CD110001E36F0001CE510001E46F40
:10021800080E206ECA0E216E3F0E226EE5C019F040
:10022800E6C01AF037EC14F019C01DF01AC01EF021
:100238001BC01FF093EC0DF01DC02FF01EC030F056
:100248001FC031F03A0E206EA60E216EBE0E226E31
:10025800F1C019F0F2C01AF037EC14F019C01DF013
:100268001AC01EF01BC01FF093EC0DF01DC02CF03F
:100278001EC02DF01FC02EF0C5EC06F02CC0E0F01B
:100288002DC0E1F02EC0E2F05E0E206E3B0E216E16
:10029800BF0E226EF3C019F0F4C01AF037EC14F058
:1002A80019C01DF01AC01EF01BC01FF093EC0DF012
:1002B8001DC02FF01EC030F01FC031F0E0C02CF080
:1002C800E1C02DF0E2C02EF0C5EC06F02CC038F0ED
:1002D8002DC039F02EC03AF019EC0DF038C0D7F027
:1002E80039C0D8F0800EB1EC14F02D0E0001AF6FBC
:1002F800FF0E0001B06FF1C0B1F0F2C0B2F0E5C07E
:10030800B3F0E6C0B4F0EBEC02F0C00EB1EC14F0C0
:100318002D0E0001AF6FFF0E0001B06FF3C0B1F0FA
:10032800F4C0B2F0F1C011F0F2C012F0F3C013F053
:10033800F4C014F018EC11F011C0B3F012C0B4F00E
:10034800EBEC02F00001F2BF3ED0A10E0001F15D1E
:100358000F0E0001F259D8A036D00001F4BF08D022
:10036800D00E0001F35D070E0001F459D8B02BD070
:100378008490C9C0D9FFCAC0DAFFDF2A070E00017E
:10038800CE6F580E0001CD6F590EE82EFED7CD2F37
:10039800FCD7CE2FFAD700D08480000120EE01F0E0
:1003A800CB51D926CC51DA22010EDF6ECBC016F024
:1003B800CCC017F00DEC0EF0D90E146E000E156EB1
:1003C8005BEC12F0D6D00001F2BF4CD0B90E0001A0
:1003D800F15D0B0E0001F259D8A044D00001E6BF30
:1003E80041D0B90E0001E55D0B0E0001E659D8A019
:1003F80039D00001F4BF36D0B90E0001F35D0B0E01
:100408000001F459D8A02ED08490000120EE01F00C
:10041800C951D926CA51DA22DF2A070E0001CE6F48
:10042800580E0001CD6F590EE82EFED7CD2FFCD700
:10043800CE2FFAD700D08480000120EE01F0CB51F6
:10044800D926CC51DA22020EDF6ECBC016F0CCC012
:1004580017F00DEC0EF0D90E146E000E156E5BEC55
:1004680012F087D00001F4BF41D0A10E0001F35D66
:100478000F0E0001F459D8A039D00001F2BF08D0FE
:10048800C40E0001F15D090E0001F259D8B02ED05A
:100498008490000120EE02F0C951D926CA51DA220F
:1004A800DF2A070E0001CE6F580E0001CD6F590EDE
:1004B800E82EFED7CD2FFCD7CE2FFAD700D08480D8
:1004C800000120EE01F0CB51D926CC51DA22030EDF
:1004D800DF6ECBC016F0CCC017F00DEC0EF0D90EC5
:1004E800146E000E156E5BEC12F043D00001E4BFF1
:1004F80040D0D10E0001E35D070E0001E459D8A0F9
:1005080038D00001E4BF08D0C40E0001E35D090E35
:100518000001E459D8B02DD08490000120EE03F0FA
:10052800C951D926CA51DA22DF2A070E0001CE6F37
:10053800580E0001CD6F590EE82EFED7CD2FFCD7EF
:10054800CE2FFAD700D08480000120EE01F0CB51E5
:10055800D926CC51DA22040EDF6ECBC016F0CCC0FF
:1005680017F00DEC0EF0D90E146E000E156E5BEC44
:1005780012F0070E0001CE6F580E0001CD6F590E14
:10058800E82EFED7CD2FFCD7CE2FFAD700D0020EFB
:1005980001012B19D8B417D0C7C099F0C8C09AF078
:1005A800D90E00019B6F000E00019C6F9BEC07F0B9
:1005B80000019ABF73D500019A5105E1140E00019C
:1005C800995DD8A06BD5020E01012B6F1200B10EF8
:1005D8000001BC6F000E0001BD6FD1D1250E0001D6
:1005E800C419D8B405D00001C451ABEC14F0C7D17C
:1005F800000E0001C36F000EC26F000E0001C16F34
:1006080005D00001C1850001AF4BB02BAFC0F6FF8C
:10061800B0C0F7FF0800F550300AD8B4F2D7AFC021
:10062800F6FFB0C0F7FF0800F5508BEC14F0D8A027
:1006380047D0000E0001C36F000EC26FC2C011F098
:10064800C3C012F0000E146E0A0E136E66EC14F09E
:1006580011C0C2F012C0C3F0D00E0001B76FFF0E78
:100668000001B86FAFC0F6FFB0C0F7FF0800F55043
:100678000001B96FBA6B0001B7510001B927000139
:10068800B8510001BA230001B9510001C227000185
:10069800BA510001C3230001AF4BB02BAFC0F6FF26
:1006A800B0C0F7FF0800F5508BEC14F0D8A008D0C4
:1006B800C5D70001C18F20D0C00E0001C1131CD0C6
:1006C800AFC0F6FFB0C0F7FF0001AF4BB02B08007A
:1006D800F5CFC4F00001C451000AD8B41200640A6E
:1006E800D8B40AD00D0AD8B407D01C0AD8B4E4D7B5
:1006F8000D0AD8B4DED743D1C1C0B7F0C00E00018F
:10070800B717D8A419D0BCC0D9FFBDC0DAFFDECF57
:10071800BFF0DDCFC0F0020E0001BC27000EBD23E4
:100728000001C0AF53D0030E0001C1130001BF6D1B
:10073800C01FD8B0C02B4AD0BCC0D9FFBDC0DAFF9B
:10074800DECFBFF0DDCFC0F0020E0001BC27000EE7
:10075800BD233CD0010E0001C46F050E0001C41971
:10076800D8B440D00001C451020D920EF324F66EA5
:10077800FE0EF420F76E0900F5500001BF5D090078
:10078800F5500001C059D8A02DD00001C42BE5D7E1
:10079800010E0001C46F040E0001C419D8B422D0A0
:1007A8000001C451020D9C0EF324F66EFE0EF420D7
:1007B800F76E0900F5500001BF5D0900F550000112
:1007C800C059D8A00FD00001C42BE5D70001C151F2
:1007D800C00B000AD8B4BED7800AD8B4D9D7400A0B
:1007E800D8B4B8D70001C2510001C311D8B40BD096
:1007F800C1C0B7F0030E0001B717D8B404D0000188
:10080800C207D8A0C307800E0001C4BF7F0E000135
:10081800B76F0001C2510001C45D0001C351800AD5
:100828000001B759D8B00BD00001C4510001C25F14
:10083800000E0001C4BFFF0E0001C35B05D0000E0F
:100848000001C36F000EC26F0001C1A518D0C1C05E
:10085800B7F0030E0001B717D8B403D02D0EABECD8
:1008680014F00001C2510001C311D8B425D0300ED4
:10087800ABEC14F00001C207D8A0C307F2D70001FF
:10088800C2510001C311D8B40DD0200EABEC14F046
:100898000001C207D8A0C3070001C2510001C3115B
:1008A800D8A4F3D7C1C0B7F0030E0001B717D8B466
:1008B80003D02D0EABEC14F0C4C0BEF05AD000012A
:1008C800BE51020D920EF324F66EFE0EF420F76E62
:1008D8000900F5CF13F00A00F5CF14F0BFC011F0EE
:1008E800C0C012F01FEC13F011C018F012C019F0BC
:1008F800000E1B6E0A0E1A6ED9EC13F01850300F4A
:100908000001C46F32D0BFC011F0C0C012F00001A6
:10091800BE51020D9C0EF324F66EFE0EF420F76E07
:100928000900F5CF13F00A00F5CF14F01FEC13F00F
:1009380011500F0B0001BB6F0001BB51010D540E8C
:10094800F324F66EFF0EF420F76E0800F5CFC4F01E
:100958000CD00001C151C00B000AD8B4B0D7800A2E
:10096800D8B4D1D7400AD8B4AAD70001C451ABEC47
:1009780014F00001BE070001BE29D8A4EAD7AFC011
:10098800F6FFB0C0F7FF0001AF4BB02B0800F5CF62
:10099800C4F00001C451D8B4120020D6FAD0800E99
:1009A800B1EC14F0870E0001AF6FFF0E0001B06FBD
:1009B800EBEC02F0C00EB1EC14F0760E0001AF6F54
:1009C800FF0E0001B06F000120EE03F0C551D926DB
:1009D800C651DA22DF500001C76FC5C0D9FFC6C0B3
:1009E800DAFFDF500001C86FC96B000120EE01F08B
:1009F800C551D926C651DA22DF500001CA6F00015D
:100A0800CA510001C827000EC923000120EE02F0D8
:100A1800C551D926C651DA22DF500001CB6F00013B
:100A2800CB510001C827000EC9230001C75100019E
:100A3800C8250001B16F0001000E0001C9210001A5
:100A4800B26FEBEC02F097D0800EB1EC14F0980E78
:100A58000001AF6FFF0E0001B06FEBEC02F0C00EAB
:100A6800B1EC14F0760E0001AF6FFF0E0001B06F0D
:100A7800C5C0D9FFC6C0DAFFDF500001C76F00014B
:100A8800C7510001B16FB26BEBEC02F074D0800E6D
:100A9800B1EC14F0DC0E0001AF6FFF0E0001B06F77
:100AA800EBEC02F0C00EB1EC14F0760E0001AF6F63
:100AB800FF0E0001B06F000120EE01F0C551D926EC
:100AC800C651DA22DF500001C76F0001C75100018B
:100AD800B16FB26BEBEC02F04ED0800EB1EC14F0BB
:100AE800A90E0001AF6FFF0E0001B06FEBEC02F032
:100AF800C00EB1EC14F0760E0001AF6FFF0E0001CE
:100B0800B06F000120EE02F0C551D926C651DA2295
:100B1800DF500001C76F0001C7510001B16FB26B10
:100B2800EBEC02F028D0800EB1EC14F0ED0E0001D1
:100B3800AF6FFF0E0001B06FEBEC02F0C00EB1EC2E
:100B480014F0760E0001AF6FFF0E0001B06FEBECF2
:100B580002F011D00001F751000AD8B420D7010AD9
:100B6800D8B472D7030AD8B492D7010AD8B4B5D783
:100B7800070AD8B4D8D7020E0001C86F450E000185
:100B8800C76FA90EE82EFED7C72FFCD7C82FFAD7F4
:100B980000D0050E0001F719D8B41200DBD7595060
:100BA8005A105B10D8A407D0000E596E800E5A6EEA
:100BB8003F0E5B6E1200720E116E310E126E440EF5
:100BC800136E59C014F05AC015F05BC016F0D0EC83
:100BD80010F0D8B00BD0000E6E6E220E6D6EFF0EA8
:100BE800596E7F0E5A6E7F0E5B6E120059C011F05F
:100BF8005AC012F05BC013F0490E146E3A0E156E0F
:100C0800C40E166ED0EC10F0D8B00BD0000E6E6E7D
:100C1800220E6D6E000E596E000E5A6E000E5B6E3F
:100C280012005BAE02D0010E01D0000E616E615061
:100C3800D8B40ED059C011F05AC012F05BC013F0EE
:100C480079EC14F011C059F012C05AF013C05BF0DF
:100C580059C01DF05AC01EF05BC01FF0AA0E206ECE
:100C6800B80E216E3F0E226E93EC0DF01DC059F0A8
:100C78001EC05AF01FC05BF059C051F05AC052F064
:100C88005BC053F0F8EC0EF051C05CF052C05DF060
:100C980053C05EF05CC038F05DC039F05EC03AF019
:100CA80019EC0DF038C05FF039C060F059C038F069
:100CB8005AC039F05BC03AF05FC019F060C01AF052
:100CC80037EC14F019C03BF01AC03CF01BC03DF0E3
:100CD800FAEC13F038C059F039C05AF03AC05BF05A
:100CE80059C038F05AC039F05BC03AF0AB0E3B6ED1
:100CF800FE0E3C6E000E3E6E090E3D6E67EC0FF068
:100D080038C044F039C045F03AC046F05FC047F0FB
:100D180060C048F0D0EC0FF044C059F045C05AF01C
:100D280046C05BF06150D8B425D059280EE17F0E3B
:100D38005A180BE17F0E5B18D8A407D0000E596E25
:100D4800000E5A6E000E5B6E1200000E196E800EB9
:100D58001A6E3F0E1B6E59C01CF05AC01DF05BC0C6
:100D68001EF085EC0EF019C059F01AC05AF01BC0DD
:100D78005BF0120059C059F05AC05AF05BC05BF0E2
:100D880012002EC032F0336A346A2D34323601E351
:100D980033803250376E31C032F0336A346A3034BF
:100DA800323601E333803250366E3750D8B40BD028
:100DB8003650375CD8B00ED0375000083624326E23
:100DC800180E326407D02FC02CF030C02DF031C07F
:100DD8002EF012003650D8B40BD03750365CD8B04D
:100DE8000ED0365000083724326E180E326407D001
:100DF8002CC02CF02DC02DF02EC02EF01200060EA7
:100E0800356E2EBE358E31BE358C2D8EFF0E2C16CE
:100E1800FF0E2D16000E2E16308EFF0E2F16FF0E0B
:100E28003016000E31163650375CD8B01BD0D8902B
:100E38002F3630363136360637503618D8B40DD0FE
:100E4800350635C032F0070E3216D8B406D0EFD7C3
:100E5800D8902E322D322C32372A36503718D8B443
:100E68001FD0F6D73750365CD8B01AD0D8902C3669
:100E78002D362E36370637503618D8B40DD03506ED
:100E880035C032F0070E3216D8B406D0EFD7D89056
:100E9800313230322F32362A36503718D8A4F7D7A5
:100EA80035AE0CD0FF0E2C1AFF0E2D1AFF0E2E1A7F
:100EB800010E2C26000E2D22000E2E2235AC0CD051
:100EC800FF0E2F1AFF0E301AFF0E311A010E2F26B1
:100ED800000E3022000E3122000E356E2C502F26C7
:100EE8002D5030222E50312231AE0ED0FF0E2F1A47
:100EF800FF0E301AFF0E311A010E2F26000E302277
:100F0800000E3122010E356E2FC011F030C012F0E4
:100F180031C013F037C014F035C015F031EC10F0C3
:100F280011C02CF012C02DF013C02EF012000001D9
:100F380020EE02F09951D9269A51DA22DF506A6ED2
:100F48006A5000019D6F9E6B000120EE02F09B51DC
:100F5800D9269C51DA22DF506A6E6A5000019F6FD1
:100F6800A06B000120EE01F09951D9269A51DA229E
:100F7800DF506A6E6A500001A16FA26B000120EE7B
:100F880001F09B51D9269C51DA22DF506A6E6A50D3
:100F98000001A36FA46B99C0D9FF9AC0DAFFDF5094
:100FA8006A6E6A500001A56FA66B9BC0D9FF9CC0F2
:100FB800DAFFDF506A6E6A500001A76FA86B9DC008
:100FC80068F09EC069F015EC0CF068C06AF069C062
:100FD8006BF09FC068F0A0C069F015EC0CF0681EBB
:100FE800691E684A692A68506A240001A96F695015
:100FF8006B200001AA6FA1C068F0A2C069F015ECCF
:101008000CF068C06AF069C06BF0A3C068F0A4C0B7
:1010180069F015EC0CF0681E691E684A692A685068
:101028006A240001AB6F69506B200001AC6FA5C04A
:1010380068F0A6C069F015EC0CF068C06AF069C0E9
:101048006BF0A7C068F0A8C069F015EC0CF0681E3A
:10105800691E684A692A68506A240001AD6F6950A0
:101068006B200001AE6FA9C011F0AAC012F00E0EDD
:10107800146E100E136E66EC14F011C06AF012C0F4
:101088006BF0ABC011F0ACC012F0000E146E3C0E49
:10109800136E66EC14F011506A2612506B22000190
:1010A800AD516A240001996F0001AE516B20000117
:1010B8009A6F1200000E0001866F62506310641070
:1010C800D8A41BD0000E116E000E126E000E136E07
:1010D80065C014F066C015F067C016F0D0EC10F0CB
:1010E800D8A004D0000E6E6E210E6D6E000E626EDA
:1010F800000E636E000E646E120065506610671075
:10110800D8A407D0000E626E800E636E3F0E646E28
:10111800120064AE42D065C038F066C039F067C0CE
:101128003AF019EC0DF038C087F039C088F03AC0B1
:1011380089F03BC08AF087C019F088C01AF089C0CE
:101148001BF08AC01CF0C4EC12F06550191807E1B6
:1011580066501A1804E167501B18D8B40BD0000E5B
:101168006E6E210E6D6E000E626E000E636E000EC6
:10117800646E120000018751010B0001866F62C086
:1011880011F063C012F064C013F079EC14F011C0D0
:1011980062F012C063F013C064F062C044F063C030
:1011A80045F064C046F06EEC0AF044C080F045C0DB
:1011B80081F046C082F080C01DF081C01EF082C060
:1011C8001FF065C020F066C021F067C022F093ECE4
:1011D8000DF01DC083F01EC084F01FC085F083C0D1
:1011E80059F084C05AF085C05BF0D3EC05F059C0C3
:1011F80062F05AC063F05BC064F0000186510001E0
:10120800D8B40FD062C011F063C012F064C013F0FC
:1012180079EC14F011C062F012C063F013C064F0EE
:10122800120062C062F063C063F064C064F0120030
:1012380092689368180E946E000E956E000E966E66
:10124800000E896E000E8A6E000E8B6E000E8C6E7C
:10125800000E8D6E000EC26EC168F086F28EF19E91
:10126800010EB1EC14F094EC13F0100E1E6E270E64
:101278001F6E000E206E000E216EF2EC12F0010EB1
:10128800B1EC14F094EC13F0800EB1EC14F0E40E11
:101298000001AF6FFE0E0001B06FEBEC02F0000E24
:1012A80001012B6F050E0001F76F4BD0190E0001DD
:1012B800C56F010E0001C66F94EC12F053D0000EFA
:1012C8000001C56F010E0001C66F0E0E0001C76F49
:1012D800010E0001C86F150E0001C96F010E000153
:1012E800CA6F190E0001CB6F010E0001CC6F09EC1B
:1012F80000F0070E146E010E156E5BEC12F032D082
:101308000E0E0001C56F010E0001C66FC5EC09F095
:1013180029D0150E0001C56F010E0001C66FD2EC71
:1013280004F020D0000E0001C56F010E0001C66F49
:10133800070E0001C76F010E0001C86F6FEC13F0B4
:1013480011D001012B51010AD8B4B9D7030AD8B476
:10135800ADD7010AD8B4D4D7070AD8B4DAD7010A66
:10136800D8B4E0D7020E0001F66F450E0001F56F04
:10137800A90EE82EFED7F52FFCD7F62FFAD700D006
:10138800E0D7C0EC14F0000E136ED00E126EB7EC5E
:1013980014F0000E136E000E126EB7EC14F0BCECD5
:1013A80014F0C0EC14F0000E136ED10E126EB7ECF0
:1013B80014F0000E6C6E050E6C6401D010D06C50E9
:1013C800010DF3500001C525D96EF4500001C62166
:1013D800DA6E010E53EC14F0DF6E6C2AECD70001C4
:1013E80020EE06F0C551D926C651DA22000E53EC7C
:1013F80014F0DF6EBCEC14F0800EB1EC14F0FF0EAC
:101408000001AF6FFE0E0001B06F000120EE05F085
:10141800C551D926C651DA22DF500001C76F000135
:10142800C7510001B16FB26B000120EE04F0C55145
:10143800D926C651DA22DF500001C86F0001C85111
:101448000001B36FB46B000120EE06F0C551D92638
:10145800C651DA22DF500001C96F0001C9510001ED
:10146800B56FB66BEBEC02F0C00EB1EC14F0160ED3
:101478000001AF6FFF0E0001B06F000120EE02F017
:10148800C551D926C651DA22DF500001C76F0001C5
:10149800C7510001B16FB26B000120EE01F0C551D8
:1014A800D926C651DA22DF500001C86F0001C851A1
:1014B8000001B36FB46BC5C0D9FFC6C0DAFFDF50F7
:1014C8000001C96F0001C9510001B56FB66BEBECA3
:1014D80002F0120046AE0BD0000E6E6E210E6D6E3D
:1014E800000E446E000E456E000E466E120044500B
:1014F80045104610D8A40BD0000E6E6E220E6D6EED
:10150800000E446E000E456E000E466E1200000E70
:10151800206E000E216E400E226E470E146E000ED5
:10152800156E44C011F045C012F046C013F088ECA7
:1015380010F011C01DF012C01EF013C01FF093EC84
:101548000DF01DC02CF01EC02DF01FC02EF0000E97
:101558002F6E800E306EBF0E316EC5EC06F02CC0BB
:1015680044F02DC045F02EC046F04706D8A04806E6
:1015780044C038F045C039F046C03AF0C90E3B6E59
:10158800FE0E3C6E000E3E6E080E3D6E67EC0FF0D0
:1015980038C044F039C045F03AC046F0720E206EAB
:1015A800310E216E3F0E226E47C019F048C01AF066
:1015B80037EC14F019C01DF01AC01EF01BC01FF044
:1015C80093EC0DF01DC02CF01EC02DF01FC02EF0A6
:1015D80044C02FF045C030F046C031F0C5EC06F0ED
:1015E8002CC044F02DC045F02EC046F01200C0ECCF
:1015F80014F0000E136EE00E126EB7EC14F0000E2D
:10160800136E800E126EB7EC14F0000E136E040EFB
:10161800126EB7EC14F0BCEC14F0C0EC14F0000E31
:10162800136E520E126EB7EC14F0000E136E800E8D
:10163800126EB7EC14F0000E136E030E126EB7ECB8
:1016480014F0BCEC14F0C0EC14F0000E136E520E43
:10165800126EB7EC14F0000E136EB40E126EB7ECE7
:1016680014F0C0EC14F0000E136E530E126EB7ECAB
:1016780014F020EE01F01A50D9261B50DA22010E80
:1016880053EC14F0DF6E010E53EC14F01AC0D9FFBE
:101698001BC0DAFFDF6E20EE01F01450D92615507A
:1016A800DA22010E53EC14F0DF6E010E53EC14F045
:1016B80014C0D9FF15C0DAFFDF6E20EE01F0165016
:1016C800D9261750DA22010E53EC14F0DF6E010E02
:1016D80053EC14F016C0D9FF17C0DAFFDF6E20EE06
:1016E80001F01850D9261950DA22010E53EC14F0E3
:1016F800DF6E000E53EC14F018C0D9FF19C0DAFFE2
:10170800DF6EBCEC14F01200C0EC14F0000E136E87
:10171800E00E126EB7EC14F0000E136E800E126E0F
:10172800B7EC14F0000E136E800E126EB7EC14F0C6
:10173800BCEC14F0C0EC14F0000E136E520E126ED6
:10174800B7EC14F0000E136E800E126EB7EC14F0A6
:10175800000E136E030E126EB7EC14F0BCEC14F00E
:10176800C0EC14F0000E136E520E126EB7EC14F0AB
:10177800000E136EB40E126EB7EC14F0C0EC14F039
:10178800000E136E530E126EB7EC14F020EE01F03B
:101798001A50D9261B50DA22010E53EC14F0DF6ED2
:1017A800010E53EC14F01AC0D9FF1BC0DAFFDF6E2C
:1017B80020EE01F01450D9261550DA22010E53EC10
:1017C80014F0DF6E010E53EC14F014C0D9FF15C0ED
:1017D800DAFFDF6E20EE01F01650D9261750DA2214
:1017E800010E53EC14F0DF6E010E53EC14F016C02A
:1017F800D9FF17C0DAFFDF6E20EE01F01850D926A6
:101808001950DA22010E53EC14F0DF6E000E53EC7F
:1018180014F018C0D9FF19C0DAFFDF6EBCEC14F061
:101828001200000E0001946F000E936F68C097F0CD
:1018380069C098F0000E0001966F000E956F6CD08D
:101848000F0E000197150001916F0001926B93C074
:1018580019F094C01AF037EC14F019C08BF01AC0C4
:101868008CF01BC08DF08BC065F08CC066F08DC00D
:1018780067F0000E626E200E636E410E646E5EECC1
:1018880008F062C08EF063C08FF064C090F08EC024
:1018980020F08FC021F090C022F091C019F092C0C2
:1018A8001AF037EC14F019C01DF01AC01EF01BC056
:1018B8001FF093EC0DF01DC02FF01EC030F01FC0BC
:1018C80031F095C019F096C01AF037EC14F019C031
:1018D8002CF01AC02DF01BC02EF0C5EC06F02CC061
:1018E80038F02DC039F02EC03AF019EC0DF038C0A0
:1018F80095F039C096F097C011F098C012F0000E1C
:10190800146E100E136E18EC11F011C097F012C07F
:1019180098F00001934B942B000197510001981106
:10192800D8A48ED795C068F096C069F0120006005A
:10193800FACF03F0FBCF04F0E9CF05F0EACF06F0C9
:10194800E1CF07F0E2CF08F0D9CF09F0DACF0AF0FB
:10195800F3CF0BF0F4CF0CF0F6CF0DF0F7CF0EF07D
:10196800F8CF0FF0F5CF10F0F0B01BD03FD0020E3B
:1019780012D0010E10D0050E0ED0040E01012B6FEF
:10198800000E0CD0010E0AD0020E08D0030E06D0AD
:10199800040E04D0030E01012B6F050E0001F76F32
:1019A80025D081380F0B0F0B016E026A0250000A16
:1019B800D8A41CD00150000AD8B4DBD7010AD8B487
:1019C800DAD7030AD8B4D9D7010AD8B4DBD7070ABB
:1019D800D8B4E0D7030AD8B4D7D70C0AD8B4D6D726
:1019E800070AD8B4C4D7030AD8B4D2D7F09010C025
:1019F800F5FF0FC0F8FF0EC0F7FF0DC0F6FF0CC0D3
:101A0800F4FF0BC0F3FF0AC0DAFF09C0D9FF08C012
:101A1800E2FF07C0E1FF06C0EAFF05C0E9FF04C016
:101A2800FBFF03C0FAFF6F9211003AC03CF03D6A19
:101A38003E6A39343C3601E33D803C50466E4650A0
:101A4800D8A409D0000E386E000E396E000E3A6E1A
:101A5800000E3B6E1200170E3C6E38C03DF039C0C8
:101A68003EF03AC03FF03C28406E04D0D8903F3258
:101A78003E323D32402EFAD73D50416E398EFF0E30
:101A88003816FF0E3916000E3A163850426E395085
:101A9800436E3A50446E456A8E0E465E46AE16D088
:101AA8004650800A8F0FD8B009D0000E386E000E4D
:101AB800396E000E3A6E000E3B6E1200D890453219
:101AC800443243324232463EF9D715D0170E4664A7
:101AD8000FD0000E386E000E396E000E3A6E000EF2
:101AE8003B6E1200D8904236433644364536460699
:101AF8004650D8A4F7D74150D8B408D0451E441E44
:101B0800431E426C000E43224422452242C038F054
:101B180043C039F044C03AF045C03BF012001FC042
:101B280023F0246A256A1E34233601E324802350D7
:101B3800266E2650D8A407D0000E1D6E000E1E6E0D
:101B4800000E1F6E120022C023F0246A256A213479
:101B5800233601E3248023502B6E2B50D8A407D0C2
:101B6800000E1D6E000E1E6E000E1F6E12002B5012
:101B78007B0F26261FC02BF022502B1A800E2B1607
:101B88001E8E218EFF0E2016FF0E2116000E221625
:101B9800000E276E000E286E000E296E070E2A6EA4
:101BA8001DA006D020502726215028222250292265
:101BB800D8901F321E321D32D89020362136223658
:101BC8002A2EEED7090E2A6E1DA006D020502726F1
:101BD8002150282222502922D8901F321E321D322D
:101BE800D8902932283227322A2EEED727C011F072
:101BF80028C012F029C013F026C014F02BC015F02D
:101C080031EC10F011C01DF012C01EF013C01FF00F
:101C18001200000E1B6E000E1A6E16C0D9FF17C0F8
:101C2800DAFFDF50186E18501C6E1D6A54D020EE73
:101C380001F01650D9261750DA22020EDF6E000E78
:101C4800126E800E116E9CEC11F016C0D9FF17C0F1
:101C5800DAFF010EDF6E120020EE01F01650D926D1
:101C68001750DA22030EDF6E000E126E800E116E10
:101C78009CEC11F016C0D9FF17C0DAFF020EDF6E18
:101C8800120020EE01F01650D9261750DA22040E61
:101C9800DF6E000E126E800E116E9CEC11F016C0F5
:101CA800D9FF17C0DAFF030EDF6E120020EE01F035
:101CB8001650D9261750DA22010EDF6E000E126E6A
:101CC800800E116E9CEC11F016C0D9FF17C0DAFF18
:101CD800040EDF6E12001CC018F01DC019F0195058
:101CE800000AD8A412001850010AD8B4A0D7030AD1
:101CF800D8B4B2D7010AD8B4C4D7070AD8A41200F6
:101D0800D5D71BC01FF0206A216A1A341F3601E399
:101D180020801F50266E2650D8A407D0000E196EBA
:101D2800000E1A6E000E1B6E12001EC01FF0206AF5
:101D3800216A1D341F3601E320801F50276E27506B
:101D4800D8A407D0000E196E000E1A6E000E1B6E76
:101D58001200000E236E000E246E000E256E275012
:101D6800890F265E1BC027F01E50271A800E2716E3
:101D78001A8EFF0E1916FF0E1A16000E1B161D8E50
:101D8800FF0E1C16FF0E1D16000E1E16180E226ED4
:101D9800D8902336243625361C50195C1D501A5805
:101DA8001E501B58D8A007D01C50195E1D501A5A37
:101DB8001E501B5A2380D89019361A361B36222EED
:101DC800E7D723C011F024C012F025C013F026C0B5
:101DD80014F027C015F031EC10F011C019F012C042
:101DE8001AF013C01BF0120051C011F052C012F0CB
:101DF80053C013F0570E146E000E156E88EC10F0D9
:101E080058AE10D053AE07D0000E516E800E526EF1
:101E1800BF0E536E1200000E516E000E526E000E71
:101E2800536E1200585004E1150E575CD8A007D025
:101E380051C051F052C052F053C053F0120051C07B
:101E480038F052C039F053C03AF019EC0DF038C0F0
:101E580047F039C048F03AC049F03BC04AF01FEC9F
:101E680012F047C054F048C055F049C056F051C070
:101E780011F052C012F053C013F054C014F055C002
:101E880015F056C016F0D0EC10F0D8B015D054C0EC
:101E98002CF055C02DF056C02EF0000E2F6E800E7F
:101EA800306EBF0E316EC5EC06F02CC051F02DC05F
:101EB80052F02EC053F0120054C051F055C052F0E9
:101EC80056C053F012003DC011F03EC012F0000E93
:101ED800146E030E136E66EC14F03BC03FF03CC06A
:101EE80040F011503F26125040223FC0F6FF40C03C
:101EF800F7FF0900F5CF41F00900F5CF42F00A00DD
:101F0800F5CF43F03ED041C020F042C021F043C09D
:101F180022F038C01DF039C01EF03AC01FF093EC13
:101F28000DF01DC02CF01EC02DF01FC02EF0000EAD
:101F3800146E030E136E3D06D8A03E063DC011F088
:101F48003EC012F066EC14F03BC03FF03CC040F0DD
:101F580011503F26125040223FC0F6FF40C0F7FF05
:101F68000900F5CF2FF00900F5CF30F00A00F5CFC2
:101F780031F0C5EC06F02CC041F02DC042F02EC067
:101F880043F03D503E10D8A4BED741C038F042C0FF
:101F980039F043C03AF01200445045104610D8A416
:101FA80007D0000E446E000E456E000E466E1200FD
:101FB80046507F0B496E4A6AD89049364A3649508E
:101FC80047264A50482245AE03D0496A492A01D0DB
:101FD800496A49504726000E482248AE0BD0000EE9
:101FE8006E6E220E6D6E000E446E000E456E000E73
:101FF800466E120048BE15D04804D8A012D0000E74
:102008006E6E220E6D6E46AE06D0FF0E446E7F0ECB
:10201800456EFF0EEDD7FF0E446E7F0E456E7F0EA8
:10202800E7D7483448304A6E4730496E4650491819
:10203800800B4918466E47C049F0010E49164932CF
:102048004932455049187F0B4918456E44C044F041
:1020580045C045F046C046F012001450D8B405D02B
:10206800115012101310D8A40CD0000E116E000ECF
:10207800126E000E136E1200142AD8901332123208
:102088001132000E1114166E000E1214176EFE0E89
:102098001314186E165017101810D8B40CD0ECD7AB
:1020A800142A010E1126000E1222000E1322D890B7
:1020B800133212321132000E1114166E000E121461
:1020C800176EFF0E1314186E165017101810D8B488
:1020D80006D0E6D71406D89011361236133612BE3B
:1020E80003D0020E1460F6D714A0129ED8901432B2
:1020F800145013121550D8A4138E11C011F012C029
:1021080012F013C013F01200115012101310D8A4BB
:102118000FD014C0D9FF15C0DAFF000EDE6E000E16
:10212800DD6E000E116E000E126E000E136E1200A0
:1021380013507F0B166E176AD8901636173614C0D0
:10214800D9FF15C0DAFF16C0DEFF17C0DDFF12AEDB
:1021580003D0166A162A01D0166A165014C0D9FF81
:1021680015C0DAFFDE12000EDD1214C0D9FF15C04B
:10217800DAFF820EDE26FF0EDD221380138213841F
:1021880013861388138A139C129E11C011F012C073
:1021980012F013C013F0120013AE16D011C017F0CE
:1021A80012C018F013C019F0171E181E191E172A8E
:1021B800000E18221922000E1724116E000E182086
:1021C800126E800E1920136E16AE16D014C017F0BA
:1021D80015C018F016C019F0171E181E191E172A58
:1021E800000E18221922000E1724146E000E182053
:1021F800156E800E1920166E000E111A000E121A96
:10220800800E131A000E141A000E151A800E161AD4
:102218001450115C1550125816501358D8B002D0EB
:10222800D8901200D8801200000E166E14AE06D098
:10223800136C141ED8B0142A010E166E12AE06D0F6
:10224800116C121ED8B0122A010E161A000E186E42
:10225800000E176E13501410D8B41CD0010E156E52
:1022680004D0D89013361436152A14AEFAD7D8905D
:10227800173618361350115C14501258D8A005D0D0
:102288001350115E1450125A1780D890143213321A
:10229800152EEDD71650D8B404D0176C181ED8B028
:1022A800182A17C011F018C012F01200000E156E8F
:1022B800000E146E32D0828082928294828A110E2D
:1022C800136E3A0EE82EFED7132EFCD700D082905C
:1022D80082928284828A110E136E3A0EE82EFED7FD
:1022E800132EFCD700D0829082828284829A110EAB
:1022F800136E3A0EE82EFED7132EFCD700D082803C
:1023080082828294829A110E136E3A0EE82EFED7BC
:10231800132EFCD700D0144A152A1150145C1550FE
:10232800800A136E1250800A1358D8B01200C3D70F
:10233800000E156E000E146E32D082808282829456
:10234800829A110E136E3A0EE82EFED7132EFCD782
:1023580000D0829082828284829A110E136E3A0E85
:10236800E82EFED7132EFCD700D08290829282846A
:10237800828A110E136E3A0EE82EFED7132EFCD762
:1023880000D0828082928294828A110E136E3A0E55
:10239800E82EFED7132EFCD700D0144A152A115068
:1023A800145C1550800A136E1250800A1358D8B066
:1023B8001200C3D7000E196E000E1A6E000E1B6EA7
:1023C800000E1C6E1550161017101810D8B42AD00D
:1023D800010E1D6E06D0D8901536163617361836EB
:1023E8001D2A18AEF8D7D89019361A361B361C365F
:1023F8001550115C1650125817501358185014588D
:10240800D8A009D01550115E1650125A1750135AF9
:102418001850145A1980D8901832173216321532BB
:102428001D2EE1D719C011F01AC012F01BC013F00D
:102438001CC014F01200000E506E8E0E4F6E4AAE85
:1024480011D04A1E491E481E476C000E48224922D8
:102458004A22010E506E06D0D8904A32493248328C
:1024680047324F2A000E47144B6E000E48144C6E2C
:10247800000E49144D6EFF0E4A144E6E4B504C1010
:102488004D104E10D8A4E8D747C011F048C012F03C
:1024980049C013F04FC014F050C015F031EC10F0E3
:1024A80011C047F012C048F013C049F01200C0EC48
:1024B80014F0000E136ED00E126EB7EC14F0000E6E
:1024C800136E000E126EB7EC14F0BCEC14F0C0ECF6
:1024D80014F0000E136ED10E126EB7EC14F0000E4D
:1024E800166E050E166401D00ED01650010DF3506D
:1024F8001424D96EF4501520DA6E010E53EC14F042
:10250800DF6E162AEED720EE06F01450D9261550A5
:10251800DA22000E53EC14F0DF6EBCEC14F012005B
:102528008492800EB1EC14F0BA0E0001AF6FFF0E6A
:102538000001B06FEBEC02F0C00EB1EC14F0650EC8
:102548000001AF6FFF0E0001B06FEBEC02F0050E5B
:1025580001012B6F000120EE01F0C551D926C651AB
:10256800DA22010EDF6EC5C016F0C6C017F00DECFA
:102578000EF0000E126E010E116EB7EC13F0120081
:102588008E0E216E06D0D8901C321B321A321932A8
:10259800212A000E19141D6E000E1A141E6E000E4C
:1025A8001B141F6EFF0E1C14206E1D501E101F10D2
:1025B8002010D8A4E8D719C011F01AC012F01BC017
:1025C80013F021C014F0000E156E31EC10F011C09C
:1025D80019F012C01AF013C01BF01200000EC76EDB
:1025E800280EC66E000EC56E800E116E960E126E07
:1025F800980E136E000E146E1EC022F01FC023F03A
:1026080020C024F021C025F0020ED89022362336AF
:1026180024362536E82EF9D722C015F023C016F047
:1026280024C017F025C018F0DEEC11F01104C86EB4
:10263800948694881200000E166E000E156E1350C4
:102648001410D8B41CD0010E176E04D0D8901336CD
:102658001436172A14AEFAD7D890153616361350F2
:10266800115C14501258D8A005D01350115E1450A4
:10267800125A1580D89014321332172EEDD715C080
:1026880011F016C012F01200126E1250F00B116EFB
:102698008C500F0B8C6E11508C108C6E8C96190E02
:1026A800E82EFED78C86190EE82EFED71238F00BCE
:1026B800126E1250F00B116E8C500F0B8C6E115065
:1026C8008C108C6E8C96190EE82EFED78C86190EFF
:1026D800E82EFED71200800EB1EC14F0CB0E0001EC
:1026E800AF6FFF0E0001B06FEBEC02F0C00EB1EC63
:1026F80014F0410E0001AF6FFF0E0001B06FC7C0AC
:1027080099F0C8C09AF0C5C09BF0C6C09CF09BEC7D
:1027180007F099C0B1F09AC0B2F0EBEC02F01200E9
:10272800310E146EB20EE82EFED7142EFCD700D050
:10273800330EB1EC14F0320EB1EC14F0280EB1ECFB
:1027480014F00F0EB1EC14F0060EB1EC14F0010EFB
:10275800B1EC14F0310E146EB20EE82EFED7142E22
:10276800FCD700D01200000E156E000E146E12D0A9
:10277800000E166E630E166401D00AD0210E136E79
:10278800760EE82EFED7132EFCD700D0162AF2D7E5
:10279800144A152A1450115C1250800A136E1550F1
:1027A800800A1358D8A01200E3D71A501B10D8B4C7
:1027B80018D0010E1C6E04D0D8901A361B361C2A6D
:1027C8001BAEFAD71A50185C1B501958D8A004D061
:1027D8001A50185E1B50195AD8901B321A321C2EE8
:1027E800F1D718C018F019C019F012003B503C106E
:1027F8003D10D8B406D0000E3B1A000E3C1A800ECD
:102808003D1A38C02CF039C02DF03AC02EF03BC02C
:102818002FF03CC030F03DC031F0C5EC06F02CC0C4
:1028280038F02DC039F02EC03AF01200460EF66E80
:10283800290EF76E000EF86E01EE1BF010EE10F088
:102848000900F5CFEEFFE550E150FAE101012B6BED
:102858000001F76B6E6A6D6A6F906F92000EF86EEA
:1028680000011CEF09F0000E1C6E1AAE06D0196CA0
:102878001A1ED8B01A2A010E1C6E19C011F01AC0FF
:1028880012F0136A8E0E146E1CC015F031EC10F0A5
:1028980011C019F012C01AF013C01BF01200126E0A
:1028A8009AEC14F0C5869AEC14F0C9CF13F09AECA0
:1028B80014F01250D8A402D0C58A01D0C59AC58890
:1028C8001350120011501302F3CF15F0F4CF16F085
:1028D80011501402F350162612501302F350162604
:1028E80015C011F016C012F012001150121013107A
:1028F800D8B406D0000E111A000E121A800E131A40
:1029080011C011F012C012F013C013F01200136EB0
:10291800000E126E3A0E136005D02F0E136402D00B
:10292800010E126E12C011F011301200C7B4FED79A
:10293800C5CF11F01F0E1116D8B41200F7D7000139
:1029480002030405060708090A0B0C0D0E0F136E87
:102958008C84135048EC13F01200136E8C941350AF
:1029680048EC13F012009AEC14F012C0C9FF1200E0
:102978009AEC14F0C58412009AEC14F0C580120089
:10FE8000005A32334134353642373839432A302329
:10FE9000440001000A006400E8031027010010007C
:10FEA000000100104559230731121600803F7231BE
:10FEB0003FFE753E58633D951D3CC5AE3A792139EC
:10FEC00094803793A73556153400000000803FF02A
:10FED000FFBEE2A93E8376BEAE2B3E3CC3BDD2132D
:10FEE0003D78D3BB5072657373203120746F2062EC
:10FEF0006567696E206F7065726174696F6E00442A
:10FF00006174653A20253032782F253032782F25DC
:10FF100030327820200054696D653A2025303278DF
:10FF20003A253032783A2530327820200025752065
:10FF30002020202020202575202020202020202067
:10FF40000054696D653A2025697320202020202007
:10FF50002020200030313233343536373839616271
:10FF6000636465660020202020202020202020209F
:10FF7000202020202000436F756E743A20256920D0
:10FF800020202020202000546F74616C20426F7468
:10FF9000746C652020202000594F502057697468E8
:10FFA00020436170202020200045534B4120576999
:10FFB000746820436170202020004F706572617466
:10FFC000696F6E20446F6E65212000546F74616C00
:10FFD000204F7065726174696F6E2000594F502018
:10FFE00057697468204E6F20436170200045534B61
:0FFFF000412057697468204E6F204361700000F4
:020000040020DA
:08000000FFFFFFFFFFFFFFFF00
:020000040030CA
:0E000000FF021F1EFF8381FF0FC00FE00F40A5
:00000001FF
