:0400000007EF00F016
:100008006F82E4ED07F00EEF0FF0AE0E0001B96F4E
:10001800000E0001BA6FC0D1250E0001C119D8B475
:1000280005D00001C15123EC0FF0B6D1000E00013C
:10003800C06F000EBF6F000E0001BE6F05D000013B
:10004800BE850001AC4BAD2BACC0F6FFADC0F7FFD1
:100058000800F550300AD8B4F2D7ACC0F6FFADC0EE
:10006800F7FF0800F550FFEC0EF0D8A043D0000EC3
:100078000001C06F000EBF6FBFC011F0C0C012F00A
:10008800000E146E0A0E136EDAEC0EF011C0BFF0FB
:1000980012C0C0F0D00E0001B46FFF0E0001B56FA2
:1000A800ACC0F6FFADC0F7FF0800F5500001B66F11
:1000B800B76B0001B4510001B6270001B55100012A
:1000C800B7230001B6510001BF270001B751000155
:1000D800C0230001AC4BAD2BACC0F6FFADC0F7FFA1
:1000E8000800F550FFEC0EF0D8A004D0C5D70001E9
:1000F800BE8F19D0ACC0F6FFADC0F7FF0001AC4B06
:10010800AD2B0800F5CFC1F00001C151000AD8B4E9
:100118001200640AD8B407D00D0AD8B404D0110A62
:10012800D8B4E5D739D10001BEBF19D0B9C0D9FFBD
:10013800BAC0DAFFDECFBCF0DDCFBDF0020E0001A1
:10014800B927000EBA230001BDAF53D0030E00013A
:10015800BE130001BC6DBD1FD8B0BD2B4AD0B9C0BD
:10016800D9FFBAC0DAFFDECFBCF0DDCFBDF0020E9A
:100178000001B927000EBA233CD0010E0001C16F5F
:10018800050E0001C119D8B43DD00001C151020DBE
:10019800820EF324F66EFE0EF420F76E0900F55079
:1001A8000001BC5D0900F5500001BD59D8A02AD056
:1001B8000001C12BE5D7010E0001C16F040E00013B
:1001C800C119D8B41FD00001C151020D8C0EF324FF
:1001D800F66EFE0EF420F76E0900F5500001BC5DC6
:1001E8000900F5500001BD59D8A00CD00001C12B61
:1001F800E5D70001BE51800B000AD8B4BED7800AEB
:10020800D8B4D9D70001BF510001C011D8B40BD060
:10021800BEC0B4F0030E0001B417D8B404D0000176
:10022800BF07D8A0C007800E0001C1BF7F0E000124
:10023800B46F0001BF510001C15D0001C051800AC7
:100248000001B459D8B00BD00001C1510001BF5F03
:10025800000E0001C1BFFF0E0001C05B05D0000EFB
:100268000001C06F000EBF6F0001BEA518D0BEC050
:10027800B4F0030E0001B417D8B403D02D0E23EC4C
:100288000FF00001BF510001C011D8B425D0300EC5
:1002980023EC0FF00001BF07D8A0C007F2D7000178
:1002A800BF510001C011D8B40DD0200E23EC0FF0BF
:1002B8000001BF07D8A0C0070001BF510001C0114D
:1002C800D8A4F3D7BEC0B4F0030E0001B417D8B455
:1002D80003D02D0E23EC0FF0C1C0BBF057D00001A6
:1002E800BB51020D820EF324F66EFE0EF420F76E5B
:1002F8000900F5CF13F00A00F5CF14F0BCC011F0D7
:10030800BDC012F090EC0DF011C018F012C019F039
:10031800000E1B6E0A0E1A6E4AEC0EF01850300FC3
:100328000001C16F2FD0BCC011F0BDC012F0000198
:10033800BB51020D8C0EF324F66EFE0EF420F76E00
:100348000900F5CF13F00A00F5CF14F090EC0DF08A
:1003580011500F0B0001B86F0001B851010D430E89
:10036800F324F66EFF0EF420F76E0800F5CFC1F007
:1003780009D00001BE51800B000AD8B4B0D7800A5A
:10038800D8B4D1D70001C15123EC0FF00001BB074D
:100398000001BB29D8A4EDD7ACC0F6FFADC0F7FF6C
:1003A8000001AC4BAD2B0800F5CFC1F00001C151E5
:1003B800D8B4120031D659505A105B10D8A407D0BF
:1003C800000E596E800E5A6E3F0E5B6E1200720E52
:1003D800116E310E126E440E136E59C014F05AC0CD
:1003E80015F05BC016F0F5EC0BF0D8B00BD0000E92
:1003F8006E6E220E6D6EFF0E596E7F0E5A6E7F0E58
:100408005B6E120059C011F05AC012F05BC013F0B5
:10041800490E146E3A0E156EC40E166EF5EC0BF0FE
:10042800D8B00BD0000E6E6E220E6D6E000E596E97
:10043800000E5A6E000E5B6E12005BAE02D0010E0B
:1004480001D0000E616E6150D8B40ED059C011F0C1
:100458005AC012F05BC013F0EDEC0EF011C059F069
:1004680012C05AF013C05BF059C01DF05AC01EF0FC
:100478005BC01FF0AA0E206EB80E216E3F0E226ED2
:10048800DCEC08F01DC059F01EC05AF01FC05BF02C
:1004980059C051F05AC052F05BC053F0C9EC09F092
:1004A80051C05CF052C05DF053C05EF05CC038F0E3
:1004B8005DC039F05EC03AF062EC08F038C05FF019
:1004C80039C060F059C038F05AC039F05BC03AF012
:1004D8005FC019F060C01AF0ABEC0EF019C03BF029
:1004E8001AC03CF01BC03DF08BEC0EF038C059F040
:1004F80039C05AF03AC05BF059C038F05AC039F0E8
:100508005BC03AF09B0E3B6EFE0E3C6E000E3E6EDC
:10051800090E3D6E38EC0AF038C044F039C045F099
:100528003AC046F05FC047F060C048F0A1EC0AF05E
:1005380044C059F045C05AF046C05BF06150D8B489
:1005480025D059280EE17F0E5A180BE17F0E5B1853
:10055800D8A407D0000E596E000E5A6E000E5B6EBE
:100568001200000E196E800E1A6E3F0E1B6E59C0D7
:100578001CF05AC01DF05BC01EF056EC09F019C003
:1005880059F01AC05AF01BC05BF0120059C059F05C
:100598005AC05AF05BC05BF012002EC032F0336ACA
:1005A800346A2D34323601E333803250376E31C02D
:1005B80032F0336A346A3034323601E333803250F1
:1005C800366E3750D8B40BD03650375CD8B00ED012
:1005D800375000083624326E180E326407D02FC008
:1005E8002CF030C02DF031C02EF012003650D8B4A7
:1005F8000BD03750365CD8B00ED0365000083724B0
:10060800326E180E326407D02CC02CF02DC02DF09D
:100618002EC02EF01200060E356E2EBE358E31BE5F
:10062800358C2D8EFF0E2C16FF0E2D16000E2E1655
:10063800308EFF0E2F16FF0E3016000E3116365074
:10064800375CD8B01BD0D8902F36303631363606C6
:1006580037503618D8B40DD0350635C032F0070EED
:100668003216D8B406D0EFD7D8902E322D322C328D
:10067800372A36503718D8B41FD0F6D73750365CDB
:10068800D8B01AD0D8902C362D362E36370637509B
:100698003618D8B40DD0350635C032F0070E3216EC
:1006A800D8B406D0EFD7D890313230322F32362A2C
:1006B80036503718D8A4F7D735AE0CD0FF0E2C1A01
:1006C800FF0E2D1AFF0E2E1A010E2C26000E2D22BB
:1006D800000E2E2235AC0CD0FF0E2F1AFF0E301A4A
:1006E800FF0E311A010E2F26000E3022000E312285
:1006F800000E356E2C502F262D5030222E503122D0
:1007080031AE0ED0FF0E2F1AFF0E301AFF0E311A1F
:10071800010E2F26000E3022000E3122010E356EFA
:100728002FC011F030C012F031C013F037C014F0F0
:1007380035C015F002EC0BF011C02CF012C02DF0F2
:1007480013C02EF01200000E0001866F6250631075
:100758006410D8A41BD0000E116E000E126E000E8D
:10076800136E65C014F066C015F067C016F0F5EC9E
:100778000BF0D8A004D0000E6E6E210E6D6E000E28
:10078800626E000E636E000E646E12006550661095
:100798006710D8A407D0000E626E800E636E3F0EFD
:1007A800646E120064AE42D065C038F066C039F09D
:1007B80067C03AF062EC08F038C087F039C088F0BA
:1007C8003AC089F03BC08AF087C019F088C01AF097
:1007D80089C01BF08AC01CF035EC0DF06550191863
:1007E80007E166501A1804E167501B18D8B40BD0FB
:1007F800000E6E6E210E6D6E000E626E000E636E40
:10080800000E646E120000018751010B0001866F13
:1008180062C011F063C012F064C013F0EDEC0EF08A
:1008280011C062F012C063F013C064F062C044F0FB
:1008380063C045F064C046F0D1EC06F044C080F0D7
:1008480045C081F046C082F080C01DF081C01EF016
:1008580082C01FF065C020F066C021F067C022F09A
:10086800DCEC08F01DC083F01EC084F01FC085F0CA
:1008780083C059F084C05AF085C05BF0DFEC01F00A
:1008880059C062F05AC063F05BC064F00001865141
:100898000001D8B40FD062C011F063C012F064C078
:1008A80013F0EDEC0EF011C062F012C063F013C04B
:1008B80064F0120062C062F063C063F064C064F068
:1008C800120038EC0FF0000E136ED00E126E2FECE3
:1008D8000FF0000E136E000E126E2FEC0FF034ECBA
:1008E8000FF038EC0FF0000E136ED10E126E2FECD5
:1008F8000FF0000E6B6E050E6B6401D010D06B50BC
:10090800010DF3500001C225D96EF4500001C32136
:10091800DA6E010EC7EC0EF0DF6E6B2AECD7000121
:1009280020EE06F0C251D926C351DA22000EC7ECD8
:100938000EF0DF6E34EC0FF0800E29EC0FF0EF0EA6
:100948000001AC6FFE0E0001AD6F000120EE05F056
:10095800C251D926C351DA22DF500001C46F000109
:10096800C4510001AE6FAF6B000120EE04F0C2511C
:10097800D926C351DA22DF500001C56F0001C551E5
:100988000001B06FB16B000120EE06F0C251D9260C
:10099800C351DA22DF500001C66F0001C6510001C1
:1009A800B26FB36B09EC00F0C00E29EC0FF0060E25
:1009B8000001AC6FFF0E0001AD6F000120EE02F0E8
:1009C800C251D926C351DA22DF500001C46F000199
:1009D800C4510001AE6FAF6B000120EE01F0C251AF
:1009E800D926C351DA22DF500001C56F0001C55175
:1009F8000001B06FB16BC2C0D9FFC3C0DAFFDF50CE
:100A08000001C66F0001C6510001B26FB36B09EC5B
:100A180000F01200000120EE02F09951D9269A51F7
:100A2800DA22DF506A6E6A5000019D6F9E6B0001EA
:100A380020EE02F09B51D9269C51DA22DF506A6ED3
:100A48006A5000019F6FA06B000120EE01F09951E0
:100A5800D9269A51DA22DF506A6E6A500001A16FD6
:100A6800A26B000120EE01F09B51D9269C51DA229D
:100A7800DF506A6E6A500001A36FA46B99C0D9FF5A
:100A88009AC0DAFFDF506A6E6A500001A56FA66B44
:100A98009BC0D9FF9CC0DAFFDF506A6E6A50000124
:100AA800A76FA86B9FC068F0A0C069F05EEC07F064
:100AB800685000086A6E9DC068F09EC069F05EECE0
:100AC80007F068506A240001A96FA3C068F0A4C0A9
:100AD80069F05EEC07F0685000086A6EA1C068F023
:100AE800A2C069F05EEC07F068506A240001AA6FA2
:100AF800A7C068F0A8C069F05EEC07F0685000086D
:100B08006A6EA5C068F0A6C069F05EEC07F0685090
:100B18006A240001AB6FA9C011F0126A0E0E146EA0
:100B2800100E136EDAEC0EF00001AA513C0DF350D2
:100B38001126F45012220001AB5111240001996FC3
:100B48000001000E122000019A6F12008FD0800E53
:100B580029EC0FF0760E0001AC6FFF0E0001AD6FAF
:100B680009EC00F0C00E29EC0FF0650E0001AC6F27
:100B7800FF0E0001AD6F09EC00F06DD0800E29EC7E
:100B88000FF0870E0001AC6FFF0E0001AD6F09EC8E
:100B980000F0C00E29EC0FF0650E0001AC6FFF0EDF
:100BA8000001AD6F09EC00F056D0800E29EC0FF073
:100BB800CB0E0001AC6FFF0E0001AD6F09EC00F029
:100BC800C00E29EC0FF0650E0001AC6FFF0E00019E
:100BD800AD6F09EC00F03FD0800E29EC0FF0980EB5
:100BE8000001AC6FFF0E0001AD6F09EC00F0C00E04
:100BF80029EC0FF0650E0001AC6FFF0E0001AD6F20
:100C080009EC00F028D0800E29EC0FF0ED0E000161
:100C1800AC6FFF0E0001AD6F09EC00F0C00E29ECBF
:100C28000FF0650E0001AC6FFF0E0001AD6F09EC0F
:100C380000F011D00001DE51000AD8B488D7010AAB
:100C4800D8B49CD7030AD8B4B0D7010AD8B4C4D74B
:100C5800070AD8B4D8D7020E6C6E450E6B6EAA0E72
:100C6800E82EFED76B2EFCD76C2EFAD7050E0001A6
:100C7800DE19D8B41200DED792689368000E946E1D
:100C8800000E956E000E966E000E896E000E8A6E2E
:100C9800000E8B6E000E8C6E000E8D6E000EC26EF6
:100CA800C168F086F28EF19E010E29EC0FF005EC7A
:100CB8000EF0100E1E6E270E1F6E000E206E000E18
:100CC800216E63EC0DF0010E29EC0FF005EC0EF02F
:100CD800800E29EC0FF0D40E0001AC6FFE0E00015F
:100CE800AD6F09EC00F0000E0001DF6F050E00018A
:100CF800DE6F33D06BEC0EF041D0C90E0001C26F2D
:100D0800000E0001C36FD70E0001C46F000E000172
:100D1800C56F59EC0BF0D00E146E000E156EFCEC7E
:100D28000CF02CD0D70E0001C26F000E0001C36F6B
:100D380065EC04F023D0AAEC05F020D0C90E000120
:100D4800C26F000E0001C36FD00E0001C46F000E09
:100D58000001C56FE0EC0DF011D00001DF51010A70
:100D6800D8B4CBD7030AD8B4C5D7010AD8B4DAD7D0
:100D7800070AD8B4E0D7010AD8B4E0D7020E0001B8
:100D8800C86F450E0001C76FA90EE82EFED7C72F02
:100D9800FCD7C82FFAD700D0E0D746AE0BD0000E4C
:100DA8006E6E210E6D6E000E446E000E456E000EC6
:100DB800466E1200445045104610D8A40BD0000EC1
:100DC8006E6E220E6D6E000E446E000E456E000EA5
:100DD800466E1200000E206E000E216E400E226E2E
:100DE800470E146E000E156E44C011F045C012F087
:100DF80046C013F0ADEC0BF011C01DF012C01EF090
:100E080013C01FF0DCEC08F01DC02CF01EC02DF044
:100E18001FC02EF0000E2F6E800E306EBF0E316E8A
:100E2800D1EC02F02CC044F02DC045F02EC046F0A5
:100E38004706D8A0480644C038F045C039F046C037
:100E48003AF0B90E3B6EFE0E3C6E000E3E6E080E7A
:100E58003D6E38EC0AF038C044F039C045F03AC06D
:100E680046F0720E206E310E216E3F0E226E47C084
:100E780019F048C01AF0ABEC0EF019C01DF01AC0FA
:100E88001EF01BC01FF0DCEC08F01DC02CF01EC0CB
:100E98002DF01FC02EF044C02FF045C030F046C0E2
:100EA80031F0D1EC02F02CC044F02DC045F02EC03A
:100EB80046F01200000E0001946F000E936F68C098
:100EC80097F069C098F0000E0001966F000E956FBC
:100ED8006CD00F0E000197150001916F0001926B05
:100EE80093C019F094C01AF0ABEC0EF019C08BF057
:100EF8001AC08CF01BC08DF08BC065F08CC066F0FA
:100F08008DC067F0000E626E200E636E410E646E37
:100F1800A7EC03F062C08EF063C08FF064C090F05D
:100F28008EC020F08FC021F090C022F091C019F03F
:100F380092C01AF0ABEC0EF019C01DF01AC01EF0EA
:100F48001BC01FF0DCEC08F01DC02FF01EC030F0F5
:100F58001FC031F095C019F096C01AF0ABEC0EF036
:100F680019C02CF01AC02DF01BC02EF0D1EC02F0E5
:100F78002CC038F02DC039F02EC03AF062EC08F0E1
:100F880038C095F039C096F097C011F098C012F0AB
:100F9800000E146E100E136E3DEC0CF011C097F09D
:100FA80012C098F00001934B942B00019751000157
:100FB8009811D8A48ED795C068F096C069F0120031
:100FC8000600FACF03F0FBCF04F0E9CF05F0EACF33
:100FD80006F0E1CF07F0E2CF08F0D9CF09F0DACF79
:100FE8000AF0F3CF0BF0F4CF0CF0F6CF0DF0F7CFFB
:100FF8000EF0F8CF0FF0F5CF10F0F0B01BD03FD0C7
:10100800020E12D0010E10D0050E0ED0040E0001F3
:10101800DF6F000E0CD0010E0AD0020E08D0030EAE
:1010280006D0040E04D0030E0001DF6F050E000188
:10103800DE6F25D081380F0B0F0B016E026A02504C
:10104800000AD8A41CD00150000AD8B4DBD7010A82
:10105800D8B4DAD7030AD8B4D9D7010AD8B4DBD7B9
:10106800070AD8B4E0D7030AD8B4D7D70C0AD8B43B
:10107800D6D7070AD8B4C4D7030AD8B4D2D7F090C1
:1010880010C0F5FF0FC0F8FF0EC0F7FF0DC0F6FF48
:101098000CC0F4FF0BC0F3FF0AC0DAFF09C0D9FF88
:1010A80008C0E2FF07C0E1FF06C0EAFF05C0E9FF8C
:1010B80004C0FBFF03C0FAFF6F9211003AC03CF076
:1010C8003D6A3E6A39343C3601E33D803C50466E09
:1010D8004650D8A409D0000E386E000E396E000EA6
:1010E8003A6E000E3B6E1200170E3C6E38C03DF093
:1010F80039C03EF03AC03FF03C28406E04D0D8904A
:101108003F323E323D32402EFAD73D50416E398E45
:10111800FF0E3816FF0E3916000E3A163850426E7A
:101128003950436E3A50446E456A8E0E465E46AE5E
:1011380016D04650800A8F0FD8B009D0000E386EEE
:10114800000E396E000E3A6E000E3B6E1200D890FB
:101158004532443243324232463EF9D715D0170E53
:1011680046640FD0000E386E000E396E000E3A6ECF
:10117800000E3B6E1200D890423643364436453650
:1011880046064650D8A4F7D74150D8B408D0451ED3
:10119800441E431E426C000E43224422452242C094
:1011A80038F043C039F044C03AF045C03BF0120073
:1011B8001FC023F0246A256A1E34233601E32480E5
:1011C8002350266E2650D8A407D0000E1D6E000EA0
:1011D8001E6E000E1F6E120022C023F0246A256ABC
:1011E8002134233601E3248023502B6E2B50D8A4BE
:1011F80007D0000E1D6E000E1E6E000E1F6E120030
:101208002B507B0F26261FC02BF022502B1A800E46
:101218002B161E8E218EFF0E2016FF0E2116000E95
:101228002216000E276E000E286E000E296E070E7D
:101238002A6E1DA006D02050272621502822225091
:101248002922D8901F321E321D32D89020362136DE
:1012580022362A2EEED7090E2A6E1DA006D020505F
:1012680027262150282222502922D8901F321E32A8
:101278001D32D8902932283227322A2EEED727C09D
:1012880011F028C012F029C013F026C014F02BC0AA
:1012980015F002EC0BF011C01DF012C01EF013C0C7
:1012A8001FF012001BC01FF0206A216A1A341F3673
:1012B80001E320801F50266E2650D8A407D0000EC8
:1012C800196E000E1A6E000E1B6E12001EC01FF063
:1012D800206A216A1D341F3601E320801F50276EC3
:1012E8002750D8A407D0000E196E000E1A6E000EF3
:1012F8001B6E1200000E236E000E246E000E256E6B
:101308002750890F265E1BC027F01E50271A800E13
:1013180027161A8EFF0E1916FF0E1A16000E1B1628
:101328001D8EFF0E1C16FF0E1D16000E1E16180E23
:10133800226ED8902336243625361C50195C1D5051
:101348001A581E501B58D8A007D01C50195E1D50A3
:101358001A5A1E501B5A2380D89019361A361B3633
:10136800222EE7D723C011F024C012F025C013F0B5
:1013780026C014F027C015F002EC0BF011C019F0CC
:1013880012C01AF013C01BF0120051C011F052C065
:1013980012F053C013F0570E146E000E156EADEC1C
:1013A8000BF058AE10D053AE07D0000E516E800E21
:1013B800526EBF0E536E1200000E516E000E526E2A
:1013C800000E536E1200585004E1150E575CD8A059
:1013D80007D051C051F052C052F053C053F0120020
:1013E80051C038F052C039F053C03AF062EC08F0FE
:1013F80038C047F039C048F03AC049F03BC04AF01D
:10140800C0EC0CF047C054F048C055F049C056F045
:1014180051C011F052C012F053C013F054C014F070
:1014280055C015F056C016F0F5EC0BF0D8B015D035
:1014380054C02CF055C02DF056C02EF0000E2F6E63
:10144800800E306EBF0E316ED1EC02F02CC051F020
:101458002DC052F02EC053F0120054C051F055C0A8
:1014680052F056C053F012003DC011F03EC012F0C9
:10147800000E146E030E136EDAEC0EF03BC03FF054
:101488003CC040F011503F26125040223FC0F6FFAA
:1014980040C0F7FF0900F5CF41F00900F5CF42F051
:1014A8000A00F5CF43F03ED041C020F042C021F001
:1014B80043C022F038C01DF039C01EF03AC01FF0FA
:1014C800DCEC08F01DC02CF01EC02DF01FC02EF063
:1014D800000E146E030E136E3D06D8A03E063DC0E6
:1014E80011F03EC012F0DAEC0EF03BC03FF03CC009
:1014F80040F011503F26125040223FC0F6FF40C036
:10150800F7FF0900F5CF2FF00900F5CF30F00A00FA
:10151800F5CF31F0D1EC02F02CC041F02DC042F0F3
:101528002EC043F03D503E10D8A4BED741C038F07D
:1015380042C039F043C03AF01200445045104610FA
:10154800D8A407D0000E446E000E456E000E466EFD
:10155800120046507F0B496E4A6AD89049364A367F
:10156800495047264A50482245AE03D0496A492A7D
:1015780001D0496A49504726000E482248AE0BD090
:10158800000E6E6E220E6D6E000E446E000E456EDD
:10159800000E466E120048BE15D04804D8A012D0DE
:1015A800000E6E6E220E6D6E46AE06D0FF0E446EB5
:1015B8007F0E456EFF0EEDD7FF0E446E7F0E456E13
:1015C8007F0EE7D7483448304A6E4730496E465058
:1015D8004918800B4918466E47C049F0010E491654
:1015E80049324932455049187F0B4918456E44C065
:1015F80044F045C045F046C046F012001450D8B437
:1016080005D0115012101310D8A40CD0000E116E72
:10161800000E126E000E136E1200142AD8901332A8
:1016280012321132000E1114166E000E1214176EBB
:10163800FE0E1314186E165017101810D8B40CD0CC
:10164800ECD7142A010E1126000E1222000E1322C6
:10165800D890133212321132000E1114166E000E89
:101668001214176EFF0E1314186E16501710181058
:10167800D8B406D0E6D71406D890113612361336E9
:1016880012BE03D0020E1460F6D714A0129ED89092
:101698001432145013121550D8A4138E11C011F01F
:1016A80012C012F013C013F01200C2C014F0C3C06D
:1016B80015F0FCEC0CF0010E29EC0FF005EC0EF027
:1016C80035D0C4C014F0C5C015F0FCEC0CF0800E89
:1016D80029EC0FF0DC0E0001AC6FFF0E0001AD6FBE
:1016E80009EC00F0C00E29EC0FF0300E0001AC6FD1
:1016F800FF0E0001AD6FC4C099F0C5C09AF0C2C01A
:101708009BF0C3C09CF00EEC05F099C0AEF09AC0F7
:10171800AFF009EC00F0070E6C6E580E6B6E5A0EA7
:10172800E82EFED76B2EFCD76C2EFAD781B21200AA
:1017380081380F0B0F0B6B6E6C6A710E6B24F66E93
:10174800FE0E6C20F76E0800F5502A0AD8B4120075
:10175800B8D7115012101310D8A40FD014C0D9FF45
:1017680015C0DAFF000EDE6E000EDD6E000E116E83
:10177800000E126E000E136E120013507F0B166EC1
:10178800176AD8901636173614C0D9FF15C0DAFF75
:1017980016C0DEFF17C0DDFF12AE03D0166A162A88
:1017A80001D0166A165014C0D9FF15C0DAFFDE1230
:1017B800000EDD1214C0D9FF15C0DAFF820EDE2636
:1017C800FF0EDD2213801382138413861388138A75
:1017D800139C129E11C011F012C012F013C013F026
:1017E800120013AE16D011C017F012C018F013C0B3
:1017F80019F0171E181E191E172A000E1822192272
:10180800000E1724116E000E1820126E800E19207B
:10181800136E16AE16D014C017F015C018F016C007
:1018280019F0171E181E191E172A000E1822192241
:10183800000E1724146E000E1820156E800E192045
:10184800166E000E111A000E121A800E131A000ED0
:10185800141A000E151A800E161A1450115C155021
:10186800125816501358D8B002D0D8901200D88009
:101878001200000E166E14AE06D0136C141ED8B0EB
:10188800142A010E166E12AE06D0116C121ED8B0B4
:10189800122A010E161A000E186E000E176E13503B
:1018A8001410D8B41CD0010E156E04D0D89013367D
:1018B8001436152A14AEFAD7D8901736183613509E
:1018C800115C14501258D8A005D01350115E145052
:1018D800125A1780D89014321332152EEDD716509D
:1018E800D8B404D0176C181ED8B0182A17C011F035
:1018F80018C012F01200000E196E000E1A6E000EBB
:101908001B6E000E1C6E1550161017101810D8B448
:101918002AD0010E1D6E06D0D89015361636173609
:1019280018361D2A18AEF8D7D89019361A361B362D
:101938001C361550115C1650125817501358185071
:101948001458D8A009D01550115E1650125A1750C5
:10195800135A1850145A1980D89018321732163260
:1019680015321D2EE1D719C011F01AC012F01BC094
:1019780013F01CC014F01200000E506E8E0E4F6E45
:101988004AAE11D04A1E491E481E476C000E482216
:1019980049224A22010E506E06D0D8904A32493266
:1019A800483247324F2A000E47144B6E000E481437
:1019B8004C6E000E49144D6EFF0E4A144E6E4B507D
:1019C8004C104D104E10D8A4E8D747C011F048C0AD
:1019D80012F049C013F04FC014F050C015F002ECDB
:1019E8000BF011C047F012C048F013C049F01200C4
:1019F80038EC0FF0000E136ED00E126E2FEC0FF0B5
:101A0800000E136E000E126E2FEC0FF034EC0FF078
:101A180038EC0FF0000E136ED10E126E2FEC0FF093
:101A2800000E166E050E166401D00ED01650010D6C
:101A3800F3501424D96EF4501520DA6E010EC7EC59
:101A48000EF0DF6E162AEED720EE06F01450D926D7
:101A58001550DA22000EC7EC0EF0DF6E34EC0FF0F2
:101A680012008E0E216E06D0D8901C321B321A320C
:101A78001932212A000E19141D6E000E1A141E6E3A
:101A8800000E1B141F6EFF0E1C14206E1D501E101E
:101A98001F102010D8A4E8D719C011F01AC012F0EE
:101AA8001BC013F021C014F0000E156E02EC0BF0F1
:101AB80011C019F012C01AF013C01BF01200000E6A
:101AC800C76E280EC66E000EC56E800E116E960E7D
:101AD800126E980E136E000E146E1EC022F01FC0F8
:101AE80023F020C024F021C025F0020ED890223621
:101AF800233624362536E82EF9D722C015F023C020
:101B080016F024C017F025C018F07FEC0CF0110473
:101B1800C86E948694881200000E176E000E166E1A
:101B280013501410D8B41CD0010E156E04D0D890E0
:101B380013361436152A14AEFAD7D8901636173637
:101B48001350115C14501258D8A005D01350115ED0
:101B58001450125A1680D89014321332152EEDD71D
:101B680016C011F017C012F01200126E1250F00BCE
:101B7800116E8C500F0B8C6E11508C108C6E8C96D5
:101B8800190EE82EFED78C86190EE82EFED71238CD
:101B9800F00B126E1250F00B116E8C500F0B8C6EF6
:101BA80011508C108C6E8C96190EE82EFED78C86F0
:101BB800190EE82EFED71200800E29EC0FF0BA0E8F
:101BC8000001AC6FFF0E0001AD6F09EC00F0C00E14
:101BD80029EC0FF01D0E0001AC6FFF0E0001AD6F78
:101BE800C4C099F0C5C09AF0C2C09BF0C3C09CF0B5
:101BF8000EEC05F099C0AEF09AC0AFF009EC00F019
:101C08001200310E146EB20EE82EFED7142EFCD739
:101C180000D0330E29EC0FF0320E29EC0FF0280E0D
:101C280029EC0FF00F0E29EC0FF0060E29EC0FF03F
:101C3800010E29EC0FF0310E146EB20EE82EFED70D
:101C4800142EFCD700D01200000E156E000E146E74
:101C580012D0000E166E630E166401D00AD0210E43
:101C6800136E760EE82EFED7132EFCD700D0162A58
:101C7800F2D7144A152A1450115C1250800A136EB8
:101C88001550800A1358D8A01200E3D71A501B1019
:101C9800D8B418D0010E1C6E04D0D8901A361B3652
:101CA8001C2A1BAEFAD71A50185C1B501958D8A01A
:101CB80004D01A50185E1B50195AD8901B321A3289
:101CC8001C2EF1D718C018F019C019F01200800E98
:101CD80029EC0FF0A90E0001AC6FFF0E0001AD6FEB
:101CE80009EC00F0C00E29EC0FF0540E0001AC6FA7
:101CF800FF0E0001AD6F09EC00F0050E0001DF6F6B
:101D0800000E126E010E116E28EC0EF012003B5000
:101D18003C103D10D8B406D0000E3B1A000E3C1AF9
:101D2800800E3D1A38C02CF039C02DF03AC02EF084
:101D38003BC02FF03CC030F03DC031F0D1EC02F098
:101D48002CC038F02DC039F02EC03AF01200000E29
:101D58001C6E1AAE06D0196C1A1ED8B01A2A010EBB
:101D68001C6E19C011F01AC012F0136A8E0E146E90
:101D78001CC015F002EC0BF011C019F012C01AF0DB
:101D880013C01BF01200126E1AEC0FF0C5861AEC85
:101D98000FF0C9CF13F01AEC0FF01250D8A402D0EC
:101DA800C58A01D0C59AC588135012001150130274
:101DB800F3CF15F0F4CF16F011501402F350162695
:101DC80012501302F350162615C011F016C012F067
:101DD8001200115012101310D8B406D0000E111AA8
:101DE800000E121A800E131A11C011F012C012F050
:101DF80013C013F01200136E000E126E3A0E136029
:101E080005D02F0E136402D0010E126E12C011F00D
:101E1800113012000001DF6BDE6B6E6A6D6A6F9025
:101E28006F92000EF86E000140EF06F0C7B4FED7BF
:101E3800C5CF11F01F0E1116D8B41200F7D7136EC4
:101E48008C841350B9EC0DF01200136E8C9413505F
:101E5800B9EC0DF012001AEC0FF012C0C9FF120015
:101E68001AEC0FF0C58412001AEC0FF0C5801200AE
:10FE7000003132334134353642373839432A302362
:10FE8000440001000A006400E8031027010010008C
:10FE9000000100104559230731121600803F7231CE
:10FEA0003FFE753E58633D951D3CC5AE3A792139FC
:10FEB00094803793A73556153400000000803FF03A
:10FEC000FFBEE2A93E8376BEAE2B3E3CC3BDD2133D
:10FED0003D78D3BB5072657373203120746F2062FC
:10FEE0006567696E206F7065726174696F6E00443A
:10FEF0006174653A20253032782F253032782F25ED
:10FF000030327820200054696D653A2025303278EF
:10FF10003A253032783A2530327820200054696D05
:10FF2000653A2025697320202020202020202000F1
:10FF3000456C61707365643A202569732020202028
:10FF4000202000303132333435363738396162633E
:10FF500064656600202020202020202020202020F2
:10FF60002020202000436F756E743A205F5F2020B0
:10FF7000202020202000546F74616C20426F747424
:10FF80006C652020202000594F502057697468204C
:10FF9000436170202020200045534B412057697455
:10FFA0006820436170202020004F70657261746981
:10FFB0006F6E20446F6E65212000546F74616C2059
:10FFC0004F7065726174696F6E2000594F502057F1
:10FFD000697468204E6F2043617020005072657311
:10FFE00073202A20546F2053746F70200045534BA8
:0FFFF000412057697468204E6F204361700000F4
:020000040020DA
:08000000FFFFFFFFFFFFFFFF00
:020000040030CA
:0E000000FF021F1EFF8381FF0FC00FE00F40A5
:00000001FF
