:0400000007EF00F016
:100008006F820DED0AF0F8EF10F0B10E0001BC6F31
:10001800000E0001BD6FC0D1250E0001C419D8B46F
:1000280005D00001C45188EC11F0B6D1000E0001D2
:10003800C36F000EC26F000E0001C16F05D0000132
:10004800C1850001AF4BB02BAFC0F6FFB0C0F7FFC2
:100058000800F550300AD8B4F2D7AFC0F6FFB0C0E8
:10006800F7FF0800F55068EC11F0D8A043D0000E57
:100078000001C36F000EC26FC2C011F0C3C012F0FE
:10008800000E146E0A0E136E43EC11F011C0C2F08C
:1000980012C0C3F0D00E0001B76FFF0E0001B86F99
:1000A800AFC0F6FFB0C0F7FF0800F5500001B96F08
:1000B800BA6B0001B7510001B9270001B85100011E
:1000C800BA230001B9510001C2270001BA51000149
:1000D800C3230001AF4BB02BAFC0F6FFB0C0F7FF92
:1000E8000800F55068EC11F0D8A004D0C5D700017D
:1000F800C18F19D0AFC0F6FFB0C0F7FF0001AF4BFA
:10010800B02B0800F5CFC4F00001C451000AD8B4E0
:100118001200640AD8B407D00D0AD8B404D0110A62
:10012800D8B4E5D739D10001C1BF19D0BCC0D9FFB7
:10013800BDC0DAFFDECFBFF0DDCFC0F0020E000198
:10014800BC27000EBD230001C0AF53D0030E000131
:10015800C1130001BF6DC01FD8B0C02B4AD0BCC0AE
:10016800D9FFBDC0DAFFDECFBFF0DDCFC0F0020E91
:100178000001BC27000EBD233CD0010E0001C46F56
:10018800050E0001C419D8B43DD00001C451020DB8
:10019800800EF324F66EFE0EF420F76E0900F5507B
:1001A8000001BF5D0900F5500001C059D8A02AD050
:1001B8000001C42BE5D7010E0001C46F040E000135
:1001C800C419D8B41FD00001C451020D8A0EF324FB
:1001D800F66EFE0EF420F76E0900F5500001BF5DC3
:1001E8000900F5500001C059D8A00CD00001C42B5B
:1001F800E5D70001C151800B000AD8B4BED7800AE8
:10020800D8B4D9D70001C2510001C311D8B40BD05A
:10021800C1C0B7F0030E0001B717D8B404D000016D
:10022800C207D8A0C307800E0001C4BF7F0E00011B
:10023800B76F0001C2510001C45D0001C351800ABB
:100248000001B759D8B00BD00001C4510001C25FFA
:10025800000E0001C4BFFF0E0001C35B05D0000EF5
:100268000001C36F000EC26F0001C1A518D0C1C044
:10027800B7F0030E0001B717D8B403D02D0E88ECE1
:1002880011F00001C2510001C311D8B425D0300EBD
:1002980088EC11F00001C207D8A0C307F2D700010B
:1002A800C2510001C311D8B40DD0200E88EC11F052
:1002B8000001C207D8A0C3070001C2510001C31141
:1002C800D8A4F3D7C1C0B7F0030E0001B717D8B44C
:1002D80003D02D0E88EC11F0C4C0BEF057D0000139
:1002E800BE51020D800EF324F66EFE0EF420F76E5A
:1002F8000900F5CF13F00A00F5CF14F0BFC011F0D4
:10030800C0C012F0DCEC0FF011C018F012C019F0E8
:10031800000E1B6E0A0E1A6EB7EC10F01850300F54
:100328000001C46F2FD0BFC011F0C0C012F000018F
:10033800BE51020D8A0EF324F66EFE0EF420F76EFF
:100348000900F5CF13F00A00F5CF14F0DCEC0FF03C
:1003580011500F0B0001BB6F0001BB51010D540E72
:10036800F324F66EFF0EF420F76E0800F5CFC4F004
:1003780009D00001C151800B000AD8B4B0D7800A57
:10038800D8B4D1D70001C45188EC11F00001BE07E0
:100398000001BE29D8A4EDD7AFC0F6FFB0C0F7FF63
:1003A8000001AF4BB02B0800F5CFC4F00001C451D9
:1003B800D8B4120031D6C5C014F0C6C015F048EC48
:1003C8000FF0010E8EEC11F051EC10F0000E000150
:1003D800DC6F000EDB6F0001DCBF08D00001DC51D0
:1003E8001BE1040E0001DB5DD8B016D00001DB5123
:1003F8000001C925D96E0001DC510001CA21DA6E5D
:10040800000EDF6E0001DB4BDC2B0001DCBFEED7FA
:100418000001DC5101E1E5D7848275D1C7C014F031
:10042800C8C015F048EC0FF0800E8EEC11F0DC0E11
:100438000001AF6FFF0E0001B06F09EC00F0C00EB5
:100448008EEC11F0410E0001AF6FFF0E0001B06F8E
:10045800C7C099F0C8C09AF0C5C09BF0C6C09CF050
:1004680033EC06F099C0B1F09AC0B2F009EC00F094
:10047800070E0001CC6F580E0001CB6F590EE82E05
:10048800FED7CB2FFCD7CC2FFAD700D0CF0E146EC7
:10049800000E156ED10E166E000E176ED30E186E66
:1004A800000E196ED50E1A6E000E1B6E7FEC0BF047
:1004B8000001D051CFC0CBF00001CC6BCBC0CCF049
:1004C8000001CB6B0001CB110001DD6F0001CC51A5
:1004D8000001DE6F0001D251D1C0CBF00001CC6B1E
:1004E800CBC0CCF00001CB6B0001CB110001CD6F6C
:1004F8000001CC510001CE6F0001D451D3C0CBF024
:100508000001CC6BCBC0CCF00001CB6B0001CB1150
:100518000001D76F0001CC510001D86F0001D651FE
:10052800D5C0CBF00001CC6BCBC0CCF00001CB6BBD
:100538000001CB110001D96F0001CC510001DA6F25
:10054800800E8EEC11F01B0E0001AF6FFF0E000144
:10055800B06FDDC0B1F0DEC0B2F009EC00F0C00E43
:100568008EEC11F01B0E0001AF6FFF0E0001B06F93
:10057800D9C0B1F0DAC0B2F009EC00F00001DEBF7A
:1005880029D0A10E0001DD5D0F0E0001DE59D8A0B3
:1005980021D00001D8BF08D0D00E0001D75D070ECA
:1005A8000001D859D8B016D08490C9C0D9FFCAC0A4
:1005B800DAFFDF2A070E0001CC6F580E0001CB6F5F
:1005C800590EE82EFED7CB2FFCD7CC2FFAD793D0D5
:1005D800848093D00001DEBF35D0B90E0001DD5D07
:1005E8000B0E0001DE59D8A02DD00001CEBF08D0D7
:1005F800B80E0001CD5D0B0E0001CE59D8B022D047
:100608000001D8BF08D0B80E0001D75D0B0E00015D
:10061800D859D8B017D08490000120EE01F0C95104
:10062800D926CA51DA22DF2A070E0001CC6F580EEC
:100638000001CB6F590EE82EFED7CB2FFCD7CC2F5D
:10064800FAD759D00001D8BF2AD0A10E0001D75D32
:100658000F0E0001D859D8A022D00001DEBF08D063
:10066800C40E0001DD5D090E0001DE59D8B017D0B7
:100678008490000120EE02F0C951D926CA51DA222D
:10068800DF2A070E0001CC6F580E0001CB6F590E00
:10069800E82EFED7CB2FFCD7CC2FFAD72CD00001D1
:1006A800DABF2BD0D10E0001D95D070E0001DA594F
:1006B800D8A023D00001DABF08D0C40E0001D95D4C
:1006C800090E0001DA59D8B018D08490000120EE44
:1006D80003F0C951D926CA51DA22DF2A070E0001D0
:1006E800CC6F580E0001CB6F590EE82EFED7CB2FDA
:1006F800FCD7CC2FFAD700D06BD7000E126E010EA4
:10070800116E74EC10F081B2120081380F0B0F0BD0
:100718000001CB6FCC6B6F0E0001CB25F66EFE0E81
:10072800CC21F76E0800F5502A0AD8B4120076D604
:1007380059505A105B10D8A407D0000E596E800E7D
:100748005A6E3F0E5B6E1200720E116E310E126EF3
:10075800440E136E59C014F05AC015F05BC016F061
:1007680041EC0EF0D8B00BD0000E6E6E220E6D6EFE
:10077800FF0E596E7F0E5A6E7F0E5B6E120059C0C7
:1007880011F05AC012F05BC013F0490E146E3A0E05
:10079800156EC40E166E41EC0EF0D8B00BD0000EDC
:1007A8006E6E220E6D6E000E596E000E5A6E000EA1
:1007B8005B6E12005BAE02D0010E01D0000E616EBE
:1007C8006150D8B40ED059C011F05AC012F05BC0B5
:1007D80013F056EC11F011C059F012C05AF013C0C2
:1007E8005BF059C01DF05AC01EF05BC01FF0AA0E86
:1007F800206EB80E216E3F0E226E05EC0BF01DC068
:1008080059F01EC05AF01FC05BF059C051F05AC0D1
:1008180052F05BC053F069EC0CF051C05CF052C070
:100828005DF053C05EF05CC038F05DC039F05EC06A
:100838003AF08BEC0AF038C05FF039C060F059C06C
:1008480038F05AC039F05BC03AF05FC019F060C0A8
:100858001AF014EC11F019C03BF01AC03CF01BC0A0
:100868003DF0D8EC10F038C059F039C05AF03AC011
:100878005BF059C038F05AC039F05BC03AF0990EB5
:100888003B6EFE0E3C6E000E3E6E090E3D6ED8ECC1
:100898000CF038C044F039C045F03AC046F05FC0AB
:1008A80047F060C048F041EC0DF044C059F045C035
:1008B8005AF046C05BF06150D8B425D059280EE1F3
:1008C8007F0E5A180BE17F0E5B18D8A407D0000ED4
:1008D800596E000E5A6E000E5B6E1200000E196EF5
:1008E800800E1A6E3F0E1B6E59C01CF05AC01DF0C8
:1008F8005BC01EF0F6EC0BF019C059F01AC05AF0A4
:100908001BC05BF0120059C059F05AC05AF05BC0C6
:100918005BF012002EC032F0336A346A2D3432365E
:1009280001E333803250376E31C032F0336A346AB3
:100938003034323601E333803250366E3750D8B413
:100948000BD03650375CD8B00ED03750000836245C
:10095800326E180E326407D02FC02CF030C02DF044
:1009680031C02EF012003650D8B40BD03750365C58
:10097800D8B00ED0365000083724326E180E3264C4
:1009880007D02CC02CF02DC02DF02EC02EF0120058
:10099800060E356E2EBE358E31BE358C2D8EFF0E71
:1009A8002C16FF0E2D16000E2E16308EFF0E2F164B
:1009B800FF0E3016000E31163650375CD8B01BD0FB
:1009C800D8902F3630363136360637503618D8B4E8
:1009D8000DD0350635C032F0070E3216D8B406D021
:1009E800EFD7D8902E322D322C32372A365037187E
:1009F800D8B41FD0F6D73750365CD8B01AD0D890B4
:100A08002C362D362E36370637503618D8B40DD03A
:100A1800350635C032F0070E3216D8B406D0EFD7F7
:100A2800D890313230322F32362A36503718D8A47F
:100A3800F7D735AE0CD0FF0E2C1AFF0E2D1AFF0E6D
:100A48002E1A010E2C26000E2D22000E2E2235AC59
:100A58000CD0FF0E2F1AFF0E301AFF0E311A010E9E
:100A68002F26000E3022000E3122000E356E2C503B
:100A78002F262D5030222E50312231AE0ED0FF0EAF
:100A88002F1AFF0E301AFF0E311A010E2F26000EF4
:100A98003022000E3122010E356E2FC011F030C009
:100AA80012F031C013F037C014F035C015F0A2ECC5
:100AB8000DF011C02CF012C02DF013C02EF0120052
:100AC800C8D0800E8EEC11F0760E0001AF6FFF0ECD
:100AD8000001B06F09EC00F0C00E8EEC11F0650E4D
:100AE8000001AF6FFF0E0001B06FC5C0D9FFC6C0CF
:100AF800DAFFDF500001C76F0001C7510001B16F75
:100B0800B26B09EC00F097D0800E8EEC11F0870ED6
:100B18000001AF6FFF0E0001B06F09EC00F0C00ECE
:100B28008EEC11F0650E0001AF6FFF0E0001B06F83
:100B3800C5C0D9FFC6C0DAFFDF500001C76F00018A
:100B4800C7510001B16FB26B09EC00F074D0800E90
:100B58008EEC11F0CB0E0001AF6FFF0E0001B06FED
:100B680009EC00F0C00E8EEC11F0650E0001AF6FBD
:100B7800FF0E0001B06F000120EE01F0C551D9262B
:100B8800C651DA22DF500001C76F0001C7510001CA
:100B9800B16FB26B09EC00F04ED0800E8EEC11F004
:100BA800980E0001AF6FFF0E0001B06F09EC00F066
:100BB800C00E8EEC11F0650E0001AF6FFF0E000144
:100BC800B06F000120EE02F0C551D926C651DA22D5
:100BD800DF500001C76F0001C7510001B16FB26B50
:100BE80009EC00F028D0800E8EEC11F0ED0E00011B
:100BF800AF6FFF0E0001B06F09EC00F0C00E8EEC75
:100C080011F0650E0001AF6FFF0E0001B06F09EC27
:100C180000F011D00001FA51000AD8B452D7010AE5
:100C2800D8B472D7030AD8B492D7010AD8B4B5D7C2
:100C3800070AD8B4D8D7020E0001C86F450E0001C4
:100C4800C76FA90EE82EFED7C72FFCD7C82FFAD733
:100C580000D0050E0001FA19D8B41200DBD7000144
:100C680020EE02F09951D9269A51DA22DF506A6EA5
:100C78006A5000019D6F9E6B000120EE02F09B51AF
:100C8800D9269C51DA22DF506A6E6A5000019F6FA4
:100C9800A06B000120EE01F09951D9269A51DA2271
:100CA800DF506A6E6A500001A16FA26B000120EE4E
:100CB80001F09B51D9269C51DA22DF506A6E6A50A6
:100CC8000001A36FA46B99C0D9FF9AC0DAFFDF5067
:100CD8006A6E6A500001A56FA66B9BC0D9FF9CC0C5
:100CE800DAFFDF506A6E6A500001A76FA86B9DC0DB
:100CF80068F09EC069F087EC09F068C06AF069C0C6
:100D08006BF09FC068F0A0C069F087EC09F0681E1E
:100D1800691E684A692A68506A240001A96F6950E7
:100D28006B200001AA6FA1C068F0A2C069F087EC2F
:100D380009F068C06AF069C06BF0A3C068F0A4C08D
:100D480069F087EC09F0681E691E684A692A6850CC
:100D58006A240001AB6F69506B200001AC6FA5C01D
:100D680068F0A6C069F087EC09F068C06AF069C04D
:100D78006BF0A7C068F0A8C069F087EC09F0681E9E
:100D8800691E684A692A68506A240001AD6F695073
:100D98006B200001AE6FA9C011F0AAC012F00E0EB0
:100DA800146E100E136E43EC11F011C06AF012C0ED
:100DB8006BF0ABC011F0ACC012F0000E146E3C0E1C
:100DC800136E43EC11F011506A2612506B22000189
:100DD800AD516A240001996F0001AE516B200001EA
:100DE8009A6F1200000E0001866F62506310641043
:100DF800D8A41BD0000E116E000E126E000E136EDA
:100E080065C014F066C015F067C016F041EC0EF02E
:100E1800D8A004D0000E6E6E210E6D6E000E626EAC
:100E2800000E636E000E646E120065506610671047
:100E3800D8A407D0000E626E800E636E3F0E646EFB
:100E4800120064AE42D065C038F066C039F067C0A1
:100E58003AF08BEC0AF038C087F039C088F03AC015
:100E680089F03BC08AF087C019F088C01AF089C0A1
:100E78001BF08AC01CF081EC0FF06550191807E1CF
:100E880066501A1804E167501B18D8B40BD0000E2E
:100E98006E6E210E6D6E000E626E000E636E000E99
:100EA800646E120000018751010B0001866F62C059
:100EB80011F063C012F064C013F056EC11F011C0C9
:100EC80062F012C063F013C064F062C044F063C003
:100ED80045F064C046F0FAEC08F044C080F045C024
:100EE80081F046C082F080C01DF081C01EF082C033
:100EF8001FF065C020F066C021F067C022F005EC45
:100F08000BF01DC083F01EC084F01FC085F083C0A5
:100F180059F084C05AF085C05BF09CEC03F059C0CE
:100F280062F05AC063F05BC064F0000186510001B2
:100F3800D8B40FD062C011F063C012F064C013F0CF
:100F480056EC11F011C062F012C063F013C064F0E7
:100F5800120062C062F063C063F064C064F0120003
:100F68009DEC11F0000E136ED00E126E94EC11F081
:100F7800000E136E000E126E94EC11F099EC11F045
:100F88009DEC11F0000E136ED10E126E94EC11F060
:100F9800000E6C6E050E6C6401D010D06C50010D03
:100FA800F3500001C525D96EF4500001C621DA6E50
:100FB800010E30EC11F0DF6E6C2AECD7000120EE48
:100FC80006F0C551D926C651DA22000E30EC11F0D0
:100FD800DF6E99EC11F0800E8EEC11F0ED0E000131
:100FE800AF6FFE0E0001B06F000120EE05F0C55195
:100FF800D926C651DA22DF500001C76F0001C75158
:101008000001B16FB26B000120EE04F0C551D92682
:10101800C651DA22DF500001C86F0001C851000133
:10102800B36FB46B000120EE06F0C551D926C65146
:10103800DA22DF500001C96F0001C9510001B56F04
:10104800B66B09EC00F0C00E8EEC11F0040E000136
:10105800AF6FFF0E0001B06F000120EE02F0C55126
:10106800D926C651DA22DF500001C76F0001C751E7
:101078000001B16FB26B000120EE01F0C551D92615
:10108800C651DA22DF500001C86F0001C8510001C3
:10109800B36FB46BC5C0D9FFC6C0DAFFDF5000011B
:1010A800C96F0001C9510001B56FB66B09EC00F0BA
:1010B800120092689368000E946E000E956E000EF2
:1010C800966E000E896E000E8A6E000E8B6E000EF4
:1010D8008C6E000E8D6E000EC26EC168F086F28EA8
:1010E800F19E010E8EEC11F051EC10F0100E1E6EF8
:1010F800270E1F6E000E206E000E216EAFEC0FF053
:10110800010E8EEC11F051EC10F0800E8EEC11F007
:10111800D20E0001AF6FFE0E0001B06F09EC00F0B7
:10112800000E0001FB6F050E0001FA6F3FD096EC30
:1011380010F04DD0E10E0001C56F000E0001C66F22
:10114800EF0E0001C76F000E0001C86FF60E000118
:10115800C96F000E0001CA6FDFEC01F0E80E146ED3
:10116800000E156E48EC0FF032D0EF0E0001C56F7F
:10117800000E0001C66FB4EC07F029D0F60E00018E
:10118800C56F000E0001C66F64EC05F020D0E10EBB
:101198000001C56F000E0001C66FE80E0001C76FA1
:1011A800000E0001C86F2CEC10F011D00001FB51AB
:1011B800010AD8B4BFD7030AD8B4B9D7010AD8B43A
:1011C800D4D7070AD8B4DAD7010AD8B4E0D7020EC0
:1011D8000001E06F450E0001DF6FA90EE82EFED773
:1011E800DF2FFCD7E02FFAD700D0E0D746AE0BD0E0
:1011F800000E6E6E210E6D6E000E446E000E456E72
:10120800000E466E1200445045104610D8A40BD06C
:10121800000E6E6E220E6D6E000E446E000E456E50
:10122800000E466E1200000E206E000E216E400E5B
:10123800226E470E146E000E156E44C011F045C0A4
:1012480012F046C013F0F9EC0DF011C01DF012C0F9
:101258001EF013C01FF005EC0BF01DC02CF01EC0D3
:101268002DF01FC02EF0000E2F6E800E306EBF0EB8
:10127800316E8EEC04F02CC044F02DC045F02EC029
:1012880046F04706D8A0480644C038F045C039F0B3
:1012980046C03AF0B70E3B6EFE0E3C6E000E3E6E38
:1012A800080E3D6ED8EC0CF038C044F039C045F05B
:1012B8003AC046F0720E206E310E216E3F0E226E3D
:1012C80047C019F048C01AF014EC11F019C01DF00D
:1012D8001AC01EF01BC01FF005EC0BF01DC02CF04F
:1012E8001EC02DF01FC02EF044C02FF045C030F0B6
:1012F80046C031F08EEC04F02CC044F02DC045F00F
:101308002EC046F01200000E0001946F000E936F7D
:1013180068C097F069C098F0000E0001966F000E43
:10132800956F6CD00F0E000197150001916F0001A9
:10133800926B93C019F094C01AF014EC11F019C014
:101348008BF01AC08CF01BC08DF08BC065F08CC080
:1013580066F08DC067F0000E626E200E636E410E5F
:10136800646EF6EC06F062C08EF063C08FF064C065
:1013780090F08EC020F08FC021F090C022F091C074
:1013880019F092C01AF014EC11F019C01DF01AC02F
:101398001EF01BC01FF005EC0BF01DC02FF01EC087
:1013A80030F01FC031F095C019F096C01AF014EC57
:1013B80011F019C02CF01AC02DF01BC02EF08EECC5
:1013C80004F02CC038F02DC039F02EC03AF08BEC68
:1013D8000AF038C095F039C096F097C011F098C05F
:1013E80012F0000E146E100E136E89EC0EF011C080
:1013F80097F012C098F00001934B942B000197517D
:1014080000019811D8A48ED795C068F096C069F0ED
:1014180012000600FACF03F0FBCF04F0E9CF05F085
:10142800EACF06F0E1CF07F0E2CF08F0D9CF09F014
:10143800DACF0AF0F3CF0BF0F4CF0CF0F6CF0DF0C3
:10144800F7CF0EF0F8CF0FF0F5CF10F0F0B01BD0BB
:101458003FD0020E12D0010E10D0050E0ED0040E91
:101468000001FB6F000E0CD0010E0AD0020E08D04E
:10147800030E06D0040E04D0030E0001FB6F050E08
:101488000001FA6F25D081380F0B0F0B016E026A2D
:101498000250000AD8A41CD00150000AD8B4DBD7E7
:1014A800010AD8B4DAD7030AD8B4D9D7010AD8B40C
:1014B800DBD7070AD8B4E0D7030AD8B4D7D70C0AC1
:1014C800D8B4D6D7070AD8B4C4D7030AD8B4D2D761
:1014D800F09010C0F5FF0FC0F8FF0EC0F7FF0DC069
:1014E800F6FF0CC0F4FF0BC0F3FF0AC0DAFF09C017
:1014F800D9FF08C0E2FF07C0E1FF06C0EAFF05C048
:10150800E9FF04C0FBFF03C0FAFF6F9211003AC065
:101518003CF03D6A3E6A39343C3601E33D803C503C
:10152800466E4650D8A409D0000E386E000E396EAB
:10153800000E3A6E000E3B6E1200170E3C6E38C05D
:101548003DF039C03EF03AC03FF03C28406E04D030
:10155800D8903F323E323D32402EFAD73D50416E50
:10156800398EFF0E3816FF0E3916000E3A1638500F
:10157800426E3950436E3A50446E456A8E0E465E4E
:1015880046AE16D04650800A8F0FD8B009D0000E4C
:10159800386E000E396E000E3A6E000E3B6E120069
:1015A800D8904532443243324232463EF9D715D0BC
:1015B800170E46640FD0000E386E000E396E000EFE
:1015C8003A6E000E3B6E1200D890423643364436CF
:1015D800453646064650D8A4F7D74150D8B408D067
:1015E800451E441E431E426C000E432244224522DF
:1015F80042C038F043C039F044C03AF045C03BF02F
:1016080012001FC023F0246A256A1E34233601E322
:1016180024802350266E2650D8A407D0000E1D6EB5
:10162800000E1E6E000E1F6E120022C023F0246AE8
:10163800256A2134233601E3248023502B6E2B5056
:10164800D8A407D0000E1D6E000E1E6E000E1F6E71
:1016580012002B507B0F26261FC02BF022502B1A6E
:10166800800E2B161E8E218EFF0E2016FF0E2116C1
:10167800000E2216000E276E000E286E000E296E30
:10168800070E2A6E1DA006D020502726215028229A
:1016980022502922D8901F321E321D32D89020366F
:1016A800213622362A2EEED7090E2A6E1DA006D024
:1016B800205027262150282222502922D8901F3234
:1016C8001E321D32D8902932283227322A2EEED7E0
:1016D80027C011F028C012F029C013F026C014F05A
:1016E8002BC015F0A2EC0DF011C01DF012C01EF0B9
:1016F80013C01FF012009DEC11F0000E136E520E75
:10170800126E94EC11F0000E136E800E126E94ECB3
:1017180011F0000E136E030E126E94EC11F099EC9A
:1017280011F09DEC11F0000E136E520E126E94EC37
:1017380011F0000E136EB40E126E94EC11F09DECC5
:1017480011F0000E136E530E126E94EC11F020EE91
:1017580001F01A50D9261B50DA22010E30EC11F094
:10176800DF6E010E30EC11F01AC0D9FF1BC0DAFF92
:10177800DF6E20EE01F01450D9261550DA22010E42
:1017880030EC11F0DF6E010E30EC11F014C0D9FF0F
:1017980015C0DAFFDF6E20EE01F01650D92617507B
:1017A800DA22010E30EC11F0DF6E010E30EC11F090
:1017B80016C0D9FF17C0DAFFDF6E20EE01F018500F
:1017C800D9261950DA22010E30EC11F0DF6E000E26
:1017D80030EC11F018C0D9FF19C0DAFFDF6E99ECB0
:1017E80011F012001BC01FF0206A216A1A341F363C
:1017F80001E320801F50266E2650D8A407D0000E83
:10180800196E000E1A6E000E1B6E12001EC01FF01D
:10181800206A216A1D341F3601E320801F50276E7D
:101828002750D8A407D0000E196E000E1A6E000EAD
:101838001B6E1200000E236E000E246E000E256E25
:101848002750890F265E1BC027F01E50271A800ECE
:1018580027161A8EFF0E1916FF0E1A16000E1B16E3
:101868001D8EFF0E1C16FF0E1D16000E1E16180EDE
:10187800226ED8902336243625361C50195C1D500C
:101888001A581E501B58D8A007D01C50195E1D505E
:101898001A5A1E501B5A2380D89019361A361B36EE
:1018A800222EE7D723C011F024C012F025C013F070
:1018B80026C014F027C015F0A2EC0DF011C019F0E5
:1018C80012C01AF013C01BF0120051C011F052C020
:1018D80012F053C013F0570E146E000E156EF9EC8B
:1018E8000DF058AE10D053AE07D0000E516E800EDA
:1018F800526EBF0E536E1200000E516E000E526EE5
:10190800000E536E1200585004E1150E575CD8A013
:1019180007D051C051F052C052F053C053F01200DA
:1019280051C038F052C039F053C03AF08BEC0AF08D
:1019380038C047F039C048F03AC049F03BC04AF0D7
:101948000CEC0FF047C054F048C055F049C056F0B1
:1019580051C011F052C012F053C013F054C014F02B
:1019680055C015F056C016F041EC0EF0D8B015D0A1
:1019780054C02CF055C02DF056C02EF0000E2F6E1E
:10198800800E306EBF0E316E8EEC04F02CC051F01C
:101998002DC052F02EC053F0120054C051F055C063
:1019A80052F056C053F012003DC011F03EC012F084
:1019B800000E146E030E136E43EC11F03BC03FF0A3
:1019C8003CC040F011503F26125040223FC0F6FF65
:1019D80040C0F7FF0900F5CF41F00900F5CF42F00C
:1019E8000A00F5CF43F03ED041C020F042C021F0BC
:1019F80043C022F038C01DF039C01EF03AC01FF0B5
:101A080005EC0BF01DC02CF01EC02DF01FC02EF0F1
:101A1800000E146E030E136E3D06D8A03E063DC0A0
:101A280011F03EC012F043EC11F03BC03FF03CC057
:101A380040F011503F26125040223FC0F6FF40C0F0
:101A4800F7FF0900F5CF2FF00900F5CF30F00A00B5
:101A5800F5CF31F08EEC04F02CC041F02DC042F0EF
:101A68002EC043F03D503E10D8A4BED741C038F038
:101A780042C039F043C03AF01200445045104610B5
:101A8800D8A407D0000E446E000E456E000E466EB8
:101A9800120046507F0B496E4A6AD89049364A363A
:101AA800495047264A50482245AE03D0496A492A38
:101AB80001D0496A49504726000E482248AE0BD04B
:101AC800000E6E6E220E6D6E000E446E000E456E98
:101AD800000E466E120048BE15D04804D8A012D099
:101AE800000E6E6E220E6D6E46AE06D0FF0E446E70
:101AF8007F0E456EFF0EEDD7FF0E446E7F0E456ECE
:101B08007F0EE7D7483448304A6E4730496E465012
:101B18004918800B4918466E47C049F0010E49160E
:101B280049324932455049187F0B4918456E44C01F
:101B380044F045C045F046C046F012001450D8B4F1
:101B480005D0115012101310D8A40CD0000E116E2D
:101B5800000E126E000E136E1200142AD890133263
:101B680012321132000E1114166E000E1214176E76
:101B7800FE0E1314186E165017101810D8B40CD087
:101B8800ECD7142A010E1126000E1222000E132281
:101B9800D890133212321132000E1114166E000E44
:101BA8001214176EFF0E1314186E16501710181013
:101BB800D8B406D0E6D71406D890113612361336A4
:101BC80012BE03D0020E1460F6D714A0129ED8904D
:101BD8001432145013121550D8A4138E11C011F0DA
:101BE80012C012F013C013F012001150121013108B
:101BF800D8A40FD014C0D9FF15C0DAFF000EDE6ECE
:101C0800000EDD6E000E116E000E126E000E136EC9
:101C1800120013507F0B166E176AD89016361736B7
:101C280014C0D9FF15C0DAFF16C0DEFF17C0DDFFEC
:101C380012AE03D0166A162A01D0166A165014C0BE
:101C4800D9FF15C0DAFFDE12000EDD1214C0D9FF6D
:101C580015C0DAFF820EDE26FF0EDD221380138206
:101C6800138413861388138A139C129E11C011F0D3
:101C780012C012F013C013F0120013AE16D011C028
:101C880017F012C018F013C019F0171E181E191EED
:101C9800172A000E18221922000E1724116E000EA2
:101CA8001820126E800E1920136E16AE16D014C0AE
:101CB80017F015C018F016C019F0171E181E191EB7
:101CC800172A000E18221922000E1724146E000E6F
:101CD8001820156E800E1920166E000E111A000EAF
:101CE800121A800E131A000E141A000E151A800EFE
:101CF800161A1450115C1550125816501358D8B0B3
:101D080002D0D8901200D8801200000E166E14AEC1
:101D180006D0136C141ED8B0142A010E166E12AE1B
:101D280006D0116C121ED8B0122A010E161A000E17
:101D3800186E000E176E13501410D8B41CD0010E74
:101D4800156E04D0D89013361436152A14AEFAD767
:101D5800D890173618361350115C14501258D8A062
:101D680005D01350115E1450125A1780D8901432AF
:101D78001332152EEDD71650D8B404D0176C181E90
:101D8800D8B0182A17C011F018C012F01200000EAF
:101D9800196E000E1A6E000E1B6E000E1C6E15508A
:101DA800161017101810D8B42AD0010E1D6E06D0C0
:101DB800D89015361636173618361D2A18AEF8D7A5
:101DC800D89019361A361B361C361550115C165029
:101DD80012581750135818501458D8A009D0155035
:101DE800115E1650125A1750135A1850145A198067
:101DF800D89018321732163215321D2EE1D719C075
:101E080011F01AC012F01BC013F01CC014F012001D
:101E1800000E506E8E0E4F6E4AAE11D04A1E491EED
:101E2800481E476C000E482249224A22010E506E75
:101E380006D0D8904A324932483247324F2A000EEB
:101E480047144B6E000E48144C6E000E49144D6E2C
:101E5800FF0E4A144E6E4B504C104D104E10D8A425
:101E6800E8D747C011F048C012F049C013F04FC07E
:101E780014F050C015F0A2EC0DF011C047F012C0DC
:101E880048F013C049F012009DEC11F0000E136EDB
:101E9800D00E126E94EC11F0000E136E000E126E3E
:101EA80094EC11F099EC11F09DEC11F0000E136E0A
:101EB800D10E126E94EC11F0000E166E050E16641B
:101EC80001D00ED01650010DF3501424D96EF450E1
:101ED8001520DA6E010E30EC11F0DF6E162AEED7FF
:101EE80020EE06F01450D9261550DA22000E30ECF8
:101EF80011F0DF6E99EC11F012008E0E216E06D0F3
:101F0800D8901C321B321A321932212A000E1914A9
:101F18001D6E000E1A141E6E000E1B141F6EFF0E8F
:101F28001C14206E1D501E101F102010D8A4E8D7B6
:101F380019C011F01AC012F01BC013F021C014F020
:101F4800000E156EA2EC0DF011C019F012C01AF0B7
:101F580013C01BF01200000EC76E280EC66E000ECE
:101F6800C56E800E116E960E126E980E136E000ED0
:101F7800146E1EC022F01FC023F020C024F021C020
:101F880025F0020ED8902236233624362536E82E40
:101F9800F9D722C015F023C016F024C017F025C0C9
:101FA80018F0CBEC0EF01104C86E948694881200D9
:101FB800000E166E000E156E13501410D8B41CD0F7
:101FC800010E176E04D0D89013361436172A14AEA3
:101FD800FAD7D890153616361350115C145012588B
:101FE800D8A005D01350115E1450125A1580D890FD
:101FF80014321332172EEDD715C011F016C012F097
:102008001200126E1250F00B116E8C500F0B8C6E6A
:1020180011508C108C6E8C96190EE82EFED78C867B
:10202800190EE82EFED71238F00B126E1250F00B74
:10203800116E8C500F0B8C6E11508C108C6E8C9610
:10204800190EE82EFED78C86190EE82EFED7120040
:10205800800E8EEC11F0BA0E0001AF6FFF0E00017A
:10206800B06F09EC00F0C00E8EEC11F02E0E0001DE
:10207800AF6FFF0E0001B06FC7C099F0C8C09AF0EB
:10208800C5C09BF0C6C09CF033EC06F099C0B1F017
:102098009AC0B2F009EC00F01200310E146EB20EC4
:1020A800E82EFED7142EFCD700D0330E8EEC11F09C
:1020B800320E8EEC11F0280E8EEC11F00F0E8EEC15
:1020C80011F0060E8EEC11F0010E8EEC11F0310EAF
:1020D800146EB20EE82EFED7142EFCD700D01200D4
:1020E800000E156E000E146E12D0000E166E630EE2
:1020F800166401D00AD0210E136E760EE82EFED794
:10210800132EFCD700D0162AF2D7144A152A1450D9
:10211800115C1250800A136E1550800A1358D8A00B
:102128001200E3D78492800E8EEC11F0A90E000104
:10213800AF6FFF0E0001B06F09EC00F0C00E8EEC1F
:1021480011F01D0E0001AF6FFF0E0001B06F09EC1A
:1021580000F0050E0001FB6F000E126E010E116EED
:1021680074EC10F012001A501B10D8B418D0010EDD
:102178001C6E04D0D8901A361B361C2A1BAEFAD710
:102188001A50185C1B501958D8A004D01A50185E61
:102198001B50195AD8901B321A321C2EF1D718C06E
:1021A80018F019C019F012003B503C103D10D8B47B
:1021B80006D0000E3B1A000E3C1A800E3D1A38C09D
:1021C8002CF039C02DF03AC02EF03BC02FF03CC0A7
:1021D80030F03DC031F08EEC04F02CC038F02DC04A
:1021E80039F02EC03AF01200000EF66E230EF76E8C
:1021F800000EF86E01EE00F010EE10F00900F5CFB9
:10220800EEFFE550E150FAE10001FB6BFA6B6E6AF4
:102218006D6A6F906F92000EF86E00015DEF08F026
:10222800000E1C6E1AAE06D0196C1A1ED8B01A2AE7
:10223800010E1C6E19C011F01AC012F0136A8E0E2E
:10224800146E1CC015F0A2EC0DF011C019F012C0EC
:102258001AF013C01BF01200126E77EC11F0C5864D
:1022680077EC11F0C9CF13F077EC11F01250D8A425
:1022780002D0C58A01D0C59AC588135012001150E2
:102288001302F3CF15F0F4CF16F011501402F350E7
:10229800162612501302F350162615C011F016C058
:1022A80012F01200115012101310D8B406D0000EFC
:1022B800111A000E121A800E131A11C011F012C052
:1022C80012F013C013F01200136E000E126E3A0EC5
:1022D800136005D02F0E136402D0010E126E12C0C7
:1022E80011F011301200C7B4FED7C5CF11F01F0E80
:1022F8001116D8B41200F7D7000102030405060727
:1023080008090A0B0C0D0E0F136E8C84135005EC84
:1023180010F01200136E8C94135005EC10F012009C
:1023280077EC11F012C0C9FF120077EC11F0C584E8
:0A233800120077EC11F0C5801200CE
:10FE6E00005A32334134353642373839432A30233B
:10FE7E00440001000A006400E8031027010010008E
:10FE8E00000100104559230731121600803F7231D0
:10FE9E003FFE753E58633D951D3CC5AE3A792139FE
:10FEAE0094803793A73556153400000000803FF03C
:10FEBE00FFBEE2A93E8376BEAE2B3E3CC3BDD2133F
:10FECE003D78D3BB5072657373203120746F2062FE
:10FEDE006567696E206F7065726174696F6E00443C
:10FEEE006174653A20253032782F253032782F25EF
:10FEFE0030327820200054696D653A2025303278F2
:10FF0E003A253032783A2530327820200025692083
:10FF1E0020202020202020202020202020202000F3
:10FF2E0054696D653A2025697320202020202020F9
:10FF3E00202000456C61707365643A20256973203A
:10FF4E0020202020200030313233343536373839F6
:10FF5E0061626364656600436F756E743A2025694D
:10FF6E002020202020202000546F74616C20426FCE
:10FF7E0074746C652020202000594F5020576974EE
:10FF8E006820436170202020200045534B412057AC
:10FF9E0069746820436170202020004F7065726183
:10FFAE0074696F6E20446F6E65212000546F74610A
:10FFBE006C204F7065726174696F6E2000594F50DE
:10FFCE002057697468204E6F204361702000507274
:10FFDE00657373202A20546F2053746F7020004570
:10FFEE00534B412057697468204E6F204361700057
:01FFFE000002
:020000040020DA
:08000000FFFFFFFFFFFFFFFF00
:020000040030CA
:0E000000FF021F1EFF8381FF0FC00FE00F40A5
:00000001FF
