:0400000007EF00F016
:100008006F8281ED0FF06FEF16F0C5C014F0C6C017
:1000180015F002EC15F0C7C014F0C8C015F002ECDA
:1000280015F0010E05EC17F00BEC16F0CBC0D9FF5C
:10003800CCC0DAFF010EDF6E000120EE01F0CB51DB
:10004800D926CC51DA22010EDF6E020E146E010E93
:10005800156E02EC15F0000E0101216F000E206FE5
:10006800010121BF08D0010121511BE1040E01014A
:10007800205DD8B016D0010120510001C925D96EE4
:10008800010121510001CA21DA6E000EDF6E010163
:10009800204B212B010121BFEED70101215101E1A4
:1000A800E5D784828480B7EF04F0C7C014F0C8C0D5
:1000B80015F002EC15F02E0E146E010E156E300EB2
:1000C800166E010E176E320E186E010E196E340E72
:1000D8001A6E010E1B6E6EEC0EF001012F512EC12F
:1000E800CDF00001CE6BCDC0CEF00001CD6B00018C
:1000F800CD1101011C6F0001CE5101011D6F0101DD
:10010800315130C1CDF00001CE6BCDC0CEF0000131
:10011800CD6B0001CD1101010C6F0001CE51010121
:100128000D6F0101335132C1CDF00001CE6BCDC04E
:10013800CEF00001CD6B0001CD1101011E6F000151
:10014800CE5101011F6F0101355134C1CDF00001BD
:10015800CE6BCDC0CEF00001CD6B0001CD110101F9
:100168000E6F0001CE5101010F6F2E0E146E010E9D
:10017800156E300E166E010E176E320E186E010EC9
:10018800196E340E1A6E010E1B6EE1EC0DF00101B2
:100198002F512EC1CDF00001CE6BCDC0CEF00001A5
:1001A800CD6B0001CD110101226F0001CE5101017B
:1001B800236F0101315130C1CDF00001CE6BCDC0AC
:1001C800CEF00001CD6B0001CD110101166F0001C9
:1001D800CE510101176F0101335132C1CDF0000139
:1001E800CE6BCDC0CEF00001CD6B0001CD11010169
:1001F800246F0001CE510101256F0101355134C131
:10020800CDF00001CE6BCDC0CEF00001CD6B00016A
:10021800CD110101106F0001CE510101116F080EBF
:10022800206ECA0E216E3F0E226E16C119F017C13C
:100238001AF08BEC16F019C01DF01AC01EF01BC086
:100248001FF079EC10F01DC02FF01EC030F01FC059
:1002580031F03A0E206EA60E216EBE0E226E22C11D
:1002680019F023C11AF08BEC16F019C01DF01AC052
:100278001EF01BC01FF079EC10F01DC02CF01EC042
:100288002DF01FC02EF0ABEC09F02CC009F12DC0E9
:100298000AF12EC00BF15E0E206E3B0E216EBF0ED2
:1002A800226E24C119F025C11AF08BEC16F019C082
:1002B8001DF01AC01EF01BC01FF079EC10F01DC015
:1002C8002FF01EC030F01FC031F009C12CF00AC158
:1002D8002DF00BC12EF0ABEC09F02CC038F02DC07E
:1002E80039F02EC03AF0FFEC0FF038C000F139C0F9
:1002F80001F1800E05EC17F02D0E0001AF6FFF0E17
:100308000001B06F1CC1B1F01DC1B2F01EC1B3F045
:100318001FC1B4F00EC1B5F00FC1B6F0D9EC04F0AE
:10032800C00E05EC17F02D0E0001AF6FFF0E000197
:10033800B06F22C1B1F023C1B2F024C1B3F025C11E
:10034800B4F010C1B5F011C1B6F0D9EC04F0010158
:100358000C5101011C250001CD6F01010D51010156
:100368001D210001CE6F01011E510001CD270101A1
:100378001F510001CE23110E0001CD5D0E0E0001AC
:10038800CE59D8B03CD001011651010122250001F7
:10039800CD6F01011751010123210001CE6F010129
:1003A80024510001CD27010125510001CE23110E52
:1003B8000001CD5D0E0E0001CE59D8B020D001014C
:1003C8001E5101011C5D01011D51800A0001CD6F04
:1003D80001011F51800A0001CD59D8A010D0010198
:1003E80024510101225D01012351800A0001CD6FD2
:1003F80001012551800A0001CD59D8B0A6D21A0EA4
:100408000001CE6F5E0E0001CD6F6E0EE82EFED796
:10041800CD2FFCD7CE2FFAD700F02E0E146E010E7A
:10042800156E300E166E010E176E320E186E010E16
:10043800196E340E1A6E010E1B6E6EEC0EF0010171
:100448002F512EC1CDF00001CE6BCDC0CEF00001F2
:10045800CD6B0001CD110101266F0001CE510101C4
:10046800276F0101315130C1CDF00001CE6BCDC0F5
:10047800CEF00001CD6B0001CD110101186F000114
:10048800CE510101196F0101335132C1CDF0000184
:10049800CE6BCDC0CEF00001CD6B0001CD110101B6
:1004A800286F0001CE510101296F0101355134C176
:1004B800CDF00001CE6BCDC0CEF00001CD6B0001B8
:1004C800CD110101126F0001CE510101136F2E0EE3
:1004D800146E010E156E300E166E010E176E320E6A
:1004E800186E010E196E340E1A6E010E1B6EE1ECB9
:1004F8000DF001012F512EC1CDF00001CE6BCDC002
:10050800CEF00001CD6B0001CD1101012A6F000171
:10051800CE5101012B6F0101315130C1CDF00001E5
:10052800CE6BCDC0CEF00001CD6B0001CD11010125
:100538001A6F0001CE5101011B6F0101335132C105
:10054800CDF00001CE6BCDC0CEF00001CD6B000127
:10055800CD1101012C6F0001CE5101012D6F010158
:10056800355134C1CDF00001CE6BCDC0CEF00001C5
:10057800CD6B0001CD110101146F0001CE510101B5
:10058800156F84929A0E2C6ED90E2D6E3F0E2E6E1C
:1005980028C119F029C11AF08BEC16F019C020F007
:1005A8001AC021F01BC022F026C119F027C11AF089
:1005B8008BEC16F019C01DF01AC01EF01BC01FF0FE
:1005C800F3EC10F01DC02FF01EC030F01FC031F04A
:1005D8003EEC13F0D8B01CD001011A5101012A25B4
:1005E8000001CD6F01011B5101012B210001CE6FCC
:1005F80001012C510001CD2701012D510001CE230D
:10060800E10E0001CD5D150E0001CE59D8B046D0DF
:100618009A0E2C6ED90E2D6E3F0E2E6E2CC119F02F
:100628002DC11AF08BEC16F019C020F01AC021F079
:100638001BC022F02AC119F02BC11AF08BEC16F05E
:1006480019C01DF01AC01EF01BC01FF0F3EC10F00B
:100658001DC02FF01EC030F01FC031F03EEC13F06B
:10066800D8B047D001011851010126250001CD6FEE
:1006780001011951010127210001CE6F0101285103
:100688000001CD27010129510001CE23390E0001B7
:10069800CD5D180E0001CE59D8A02BD0000120EE58
:1006A80001F0CB51D926CC51DA22010EDF6ECBC036
:1006B80016F0CCC017F0C2EC08F08490C9C0D9FF7E
:1006C800CAC0DAFFDF2A020E0001CE6FE70E000172
:1006D800CD6F000EE82EFED7CD2FFCD7CE2FFAD740
:1006E80000F08480020E146E010E156E02EC15F0F7
:1006F8002BD1480E2C6E810E2D6E3F0E2E6E26C10C
:1007080019F027C11AF08BEC16F019C020F01AC0A6
:1007180021F01BC022F028C119F029C11AF08BEC76
:1007280016F019C01DF01AC01EF01BC01FF0F3EC24
:1007380010F01DC02FF01EC030F01FC031F03EEC8D
:1007480013F0D8A02AD0480E2C6E810E2D6E3F0EC5
:100758002E6E2AC119F02BC11AF08BEC16F019C0B5
:1007680020F01AC021F01BC022F02CC119F02DC1B5
:100778001AF08BEC16F019C01DF01AC01EF01BC041
:100788001FF0F3EC10F01DC02FF01EC030F01FC09A
:1007980031F03EEC13F0D8B02ED0000120EE01F07D
:1007A800CB51D926CC51DA22030EDF6ECBC016F01E
:1007B800CCC017F0C2EC08F08490000120EE02F0E3
:1007C800C951D926CA51DA22DF2A020E0001CE6F9A
:1007D800E70E0001CD6F000EE82EFED7CD2FFCD717
:1007E800CE2FFAD700F08480020E146E010E156E1B
:1007F80002EC15F0A9D001011851010126250001CC
:10080800CD6F01011951010127210001CE6F0101AE
:1008180028510001CD27010129510001CE23910E55
:100828000001CD5D1A0E0001CE59D8B01CD00101CF
:100838001A5101012A250001CD6F01011B51010147
:100848002B210001CE6F01012C510001CD270101A0
:100858002D510001CE23650E0001CD5D190E00015A
:10086800CE59D8A02ED0000120EE01F0CB51D926C8
:10087800CC51DA22020EDF6ECBC016F0CCC017F0D6
:10088800C2EC08F08490000120EE01F0C951D9268D
:10089800CA51DA22DF2A020E0001CE6FE70E0001EC
:1008A800CD6F000EE82EFED7CD2FFCD7CE2FFAD76E
:1008B80000F08480020E146E010E156E02EC15F025
:1008C80043D0010113BF08D0F70E0101125D090ED4
:1008D80001011359D8B00BD0010115BF35D0490E0D
:1008E8000101145D0D0E01011559D8A02DD000018C
:1008F80020EE01F0CB51D926CC51DA22040EDF6E5E
:10090800CBC016F0CCC017F0C2EC08F08490000100
:1009180020EE03F0C951D926CA51DA22DF2A020E85
:100928000001CE6FE70E0001CD6F000EE82EFED756
:10093800CD2FFCD7CE2FFAD700F08480020E146E8C
:10094800010E156E02EC15F084820D0E0001CE6FBB
:10095800AF0E0001CD6FB60EE82EFED7CD2FFCD717
:10096800CE2FFAD700F0020E0001FD19D8B419D025
:10097800C7C099F0C8C09AF0020E00019B6F010E23
:1009880000019C6F81EC0AF000019ABF59EF00F05A
:1009980000019A5106E1140E0001995DD8A059EFA3
:1009A80000F0020E0001FD6F1200B10E0001BC6FD5
:1009B800000E0001BD6FD1D1250E0001C419D8B4B5
:1009C80005D00001C451FFEC16F0C7D1000E00019C
:1009D800C36F000EC26F000E0001C16F05D0000189
:1009E800C1850001AF4BB02BAFC0F6FFB0C0F7FF19
:1009F8000800F550300AD8B4F2D7AFC0F6FFB0C03F
:100A0800F7FF0800F550DFEC16F0D8A047D0000E2D
:100A18000001C36F000EC26FC2C011F0C3C012F054
:100A2800000E146E0A0E136EBAEC16F011C0C2F066
:100A380012C0C3F0D00E0001B76FFF0E0001B86FEF
:100A4800AFC0F6FFB0C0F7FF0800F5500001B96F5E
:100A5800BA6B0001B7510001B9270001B851000174
:100A6800BA230001B9510001C2270001BA5100019F
:100A7800C3230001AF4BB02BAFC0F6FFB0C0F7FFE8
:100A88000800F550DFEC16F0D8A008D0C5D7000153
:100A9800C18F20D0C00E0001C1131CD0AFC0F6FF1B
:100AA800B0C0F7FF0001AF4BB02B0800F5CFC4F082
:100AB8000001C451000AD8B41200640AD8B40AD09C
:100AC8000D0AD8B407D01C0AD8B4E4D70D0AD8B494
:100AD800DED743D1C1C0B7F0C00E0001B717D8A404
:100AE80019D0BCC0D9FFBDC0DAFFDECFBFF0DDCF63
:100AF800C0F0020E0001BC27000EBD230001C0AFEC
:100B080053D0030E0001C1130001BF6DC01FD8B040
:100B1800C02B4AD0BCC0D9FFBDC0DAFFDECFBFF0C2
:100B2800DDCFC0F0020E0001BC27000EBD233CD073
:100B3800010E0001C46F050E0001C419D8B440D0DD
:100B48000001C451020D920EF324F66EFE0EF4203D
:100B5800F76E0900F5500001BF5D0900F55000016E
:100B6800C059D8A02DD00001C42BE5D7010E000133
:100B7800C46F040E0001C419D8B422D00001C451B6
:100B8800020D9C0EF324F66EFE0EF420F76E09009B
:100B9800F5500001BF5D0900F5500001C059D8A00B
:100BA8000FD00001C42BE5D70001C151C00B000ACA
:100BB800D8B4BED7800AD8B4D9D7400AD8B4B8D7E1
:100BC8000001C2510001C311D8B40BD0C1C0B7F0A5
:100BD800030E0001B717D8B404D00001C207D8A08B
:100BE800C307800E0001C4BF7F0E0001B76F00016C
:100BF800C2510001C45D0001C351800A0001B75908
:100C0800D8B00BD00001C4510001C25F000E000132
:100C1800C4BFFF0E0001C35B05D0000E0001C36F07
:100C2800000EC26F0001C1A518D0C1C0B7F0030EF5
:100C38000001B717D8B403D02D0EFFEC16F0000151
:100C4800C2510001C311D8B425D0300EFFEC16F004
:100C58000001C207D8A0C307F2D70001C2510001A2
:100C6800C311D8B40DD0200EFFEC16F00001C20756
:100C7800D8A0C3070001C2510001C311D8A4F3D7FB
:100C8800C1C0B7F0030E0001B717D8B403D02D0EBA
:100C9800FFEC16F0C4C0BEF05AD00001BE51020DE0
:100CA800920EF324F66EFE0EF420F76E0900F5CFCF
:100CB80013F00A00F5CF14F0BFC011F0C0C012F055
:100CC80096EC15F011C018F012C019F0000E1B6E4A
:100CD8000A0E1A6E2EEC16F01850300F0001C46F71
:100CE80032D0BFC011F0C0C012F00001BE51020DD9
:100CF8009C0EF324F66EFE0EF420F76E0900F5CF75
:100D080013F00A00F5CF14F096EC15F011500F0B04
:100D18000001BB6F0001BB51010D540EF324F66EA8
:100D2800FF0EF420F76E0800F5CFC4F00CD00001D8
:100D3800C151C00B000AD8B4B0D7800AD8B4D1D7F3
:100D4800400AD8B4AAD70001C451FFEC16F000013C
:100D5800BE070001BE29D8A4EAD7AFC0F6FFB0C0CD
:100D6800F7FF0001AF4BB02B0800F5CFC4F000012E
:100D7800C451D8B4120020D609D1800E05EC17F062
:100D8800870E0001AF6FFF0E0001B06FD9EC04F0C1
:100D9800C00E05EC17F0760E0001AF6FFF0E0001D4
:100DA800B06F000120EE03F0C551D926C651DA22F2
:100DB800DF500001C76FC5C0D9FFC6C0DAFFDF50DA
:100DC8000001C86FC96B000120EE01F0C551D9269A
:100DD800C651DA22DF500001CA6F0001CA51000172
:100DE800C827000EC923000120EE02F0C551D926FC
:100DF800C651DA22DF500001CB6F0001CB51000150
:100E0800C827000EC9230001C7510001C8250001E9
:100E1800B16F0001000E0001C9210001B26FD9ECC9
:100E280004F0A6D0800E05EC17F0980E0001AF6F05
:100E3800FF0E0001B06FD9EC04F0C00E05EC17F0FE
:100E4800760E0001AF6FFF0E0001B06FC5C0D9FF6D
:100E5800C6C0DAFFDF500001C76F0001C7510001AB
:100E6800B16FB26BD9EC04F083D0800E05EC17F0AB
:100E7800DC0E0001AF6FFF0E0001B06FD9EC04F07B
:100E8800C00E05EC17F0760E0001AF6FFF0E0001E3
:100E9800B06F000120EE01F0C551D926C651DA2203
:100EA800DF500001C76F0001C7510001B16FB26B7D
:100EB800D9EC04F05DD0800E05EC17F0A90E000106
:100EC800AF6FFF0E0001B06FD9EC04F0C00E05EC57
:100ED80017F0760E0001AF6FFF0E0001B06F000132
:100EE80020EE02F0C551D926C651DA22DF500001A2
:100EF800C76F0001C7510001B16FB26BD9EC04F0A4
:100F080037D0800E05EC17F0ED0E0001AF6FFF0E25
:100F18000001B06FD9EC04F0C00E05EC17F0760EA6
:100F28000001AF6FFF0E0001B06F000120EE03F06B
:100F3800C551D926C651DA22DF500001C76F00011A
:100F4800C7510001B16FB26BD9EC04F011D00001A8
:100F5800FC51000AD8B411D7010AD8B463D7030AE0
:100F6800D8B483D7010AD8B4A6D7070AD8B4C9D742
:100F7800020E0001C86F450E0001C76FA90EE82ECA
:100F8800FED7C72FFCD7C82FFAD700D0050E00010F
:100F9800FC19D8B41200DBD759505A105B10D8A4EA
:100FA80007D0000E596E800E5A6E3F0E5B6E12000F
:100FB800720E2C6E310E2D6E440E2E6E59C02FF00F
:100FC8005AC030F05BC031F03EEC13F0D8B00BD013
:100FD800000E6E6E220E6D6EFF0E596E7F0E5A6EEB
:100FE8007F0E5B6E120059C02CF05AC02DF05BC00A
:100FF8002EF0490E2F6E3A0E306EC40E316E3EEC56
:1010080013F0D8B00BD0000E6E6E220E6D6E000E6F
:10101800596E000E5A6E000E5B6E12005BAE02D067
:10102800010E01D0000E616E6150D8B40ED059C0C7
:1010380011F05AC012F05BC013F0CDEC16F011C0DD
:1010480059F012C05AF013C05BF059C01DF05AC0D5
:101058001EF05BC01FF0AA0E206EB80E216E3F0E68
:10106800226E79EC10F01DC059F01EC05AF01FC056
:101078005BF059C051F05AC052F05BC053F066ECB7
:1010880011F051C05CF052C05DF053C05EF05CC01E
:1010980038F05DC039F05EC03AF0FFEC0FF038C0B0
:1010A8005FF039C060F059C038F05AC039F05BC001
:1010B8003AF05FC019F060C01AF08BEC16F019C056
:1010C8003BF01AC03CF01BC03DF04FEC16F038C0A6
:1010D80059F039C05AF03AC05BF059C038F05AC0DC
:1010E80039F05BC03AF0AB0E3B6EFE0E3C6E000E64
:1010F8003E6E090E3D6ED5EC11F038C044F039C093
:1011080045F03AC046F05FC047F060C048F03EEC9A
:1011180012F044C059F045C05AF046C05BF0615027
:10112800D8B425D059280EE17F0E5A180BE17F0E4E
:101138005B18D8A407D0000E596E000E5A6E000E28
:101148005B6E1200000E1D6E800E1E6E3F0E1F6E2F
:1011580059C020F05AC021F05BC022F0F3EC10F027
:101168001DC059F01EC05AF01FC05BF0120059C0D4
:1011780059F05AC05AF05BC05BF0120020EE01F043
:101188001650D9261750DA22DF50186E18501A6EEA
:101198001B6AC7D016C0D9FF17C0DAFF020EDE18C7
:1011A800D8A407D0000E126E550E116EC8EC13F0BD
:1011B8001CD016C0D9FF17C0DAFF030EDE18D8A45A
:1011C80007D0000E126EAA0E116EC8EC13F00DD0E7
:1011D80016C0D9FF17C0DAFF040EDE18D8A405D050
:1011E800000E126E1168C8EC13F016C0D9FF17C0B4
:1011F800DAFF010EDF6E120016C0D9FF17C0DAFF42
:10120800030EDE18D8A407D0000E126E550E116E0C
:10121800C8EC13F01CD016C0D9FF17C0DAFF040EB3
:10122800DE18D8A407D0000E126EAA0E116EC8ECF4
:1012380013F00DD016C0D9FF17C0DAFFDE04D8A40A
:1012480006D0000E126E550E116E0AEC14F016C080
:10125800D9FF17C0DAFF020EDF6E120016C0D9FFE1
:1012680017C0DAFF040EDE18D8A407D0000E126EDD
:10127800550E116EC8EC13F01CD016C0D9FF17C05C
:10128800DAFFDE04D8A407D0000E126EAA0E116E83
:101298000AEC14F00ED016C0D9FF17C0DAFF020E00
:1012A800DE18D8A406D0000E126E550E116E0AEC88
:1012B80014F016C0D9FF17C0DAFF030EDF6E120054
:1012C80016C0D9FF17C0DAFFDE04D8A406D0000E76
:1012D800126E11680AEC14F01DD016C0D9FF17C0A1
:1012E800DAFF020EDE18D8A407D0000E126EAA0E7E
:1012F800116E0AEC14F00ED016C0D9FF17C0DAFF31
:10130800030EDE18D8A406D0000E126E550E116E0C
:101318000AEC14F016C0D9FF17C0DAFF040EDF6E0E
:1013280012001AC018F01BC019F01950000AD8A4EE
:1013380012001850010AD8B42DD7030AD8B45CD7C4
:10134800010AD8B48BD7070AD8A41200B9D72EC07F
:1013580032F0336A346A2D34323601E33380325046
:10136800376E31C032F0336A346A3034323601E3D2
:1013780033803250366E3750D8B40BD03650375C85
:10138800D8B00ED0375000083624326E180E3264AA
:1013980007D02FC02CF030C02DF031C02EF0120035
:1013A8003650D8B40BD03750365CD8B00ED0365043
:1013B80000083724326E180E326407D02CC02CF087
:1013C8002DC02DF02EC02EF01200060E356E2EBE4A
:1013D800358E31BE358C2D8EFF0E2C16FF0E2D1638
:1013E800000E2E16308EFF0E2F16FF0E3016000E32
:1013F80031163650375CD8B01BD0D8902F363036DF
:101408003136360637503618D8B40DD0350635C0C3
:1014180032F0070E3216D8B406D0EFD7D8902E3255
:101428002D322C32372A36503718D8B41FD0F6D779
:101438003750365CD8B01AD0D8902C362D362E3688
:10144800370637503618D8B40DD0350635C032F0C7
:10145800070E3216D8B406D0EFD7D89031323032D2
:101468002F32362A36503718D8A4F7D735AE0CD0D5
:10147800FF0E2C1AFF0E2D1AFF0E2E1A010E2C2607
:10148800000E2D22000E2E2235AC0CD0FF0E2F1A86
:10149800FF0E301AFF0E311A010E2F26000E3022D1
:1014A800000E3122000E356E2C502F262D50302282
:1014B8002E50312231AE0ED0FF0E2F1AFF0E301AE9
:1014C800FF0E311A010E2F26000E3022000E312297
:1014D800010E356E2FC011F030C012F031C013F07C
:1014E80037C014F035C015F09FEC12F011C02CF085
:1014F80012C02DF013C02EF01200000120EE02F0F1
:101508009951D9269A51DA22DF506A6E6A50000141
:101518009D6F9E6B000120EE02F09B51D9269C51D5
:10152800DA22DF506A6E6A5000019F6FA06B0001DB
:1015380020EE01F09951D9269A51DA22DF506A6ECD
:101548006A500001A16FA26B000120EE01F09B51CF
:10155800D9269C51DA22DF506A6E6A500001A36FC7
:10156800A46B99C0D9FF9AC0DAFFDF506A6E6A503F
:101578000001A56FA66B9BC0D9FF9CC0DAFFDF50A6
:101588006A6E6A500001A76FA86B9DC068F09EC084
:1015980069F0FBEC0EF068C06AF069C06BF09FC0A0
:1015A80068F0A0C069F0FBEC0EF0681E691E684A7E
:1015B800692A68506A240001A96F69506B200001EC
:1015C800AA6FA1C068F0A2C069F0FBEC0EF068C079
:1015D8006AF069C06BF0A3C068F0A4C069F0FBECC6
:1015E8000EF0681E691E684A692A68506A2400015C
:1015F800AB6F69506B200001AC6FA5C068F0A6C046
:1016080069F0FBEC0EF068C06AF069C06BF0A7C027
:1016180068F0A8C069F0FBEC0EF0681E691E684A05
:10162800692A68506A240001AD6F69506B20000177
:10163800AE6FA9C011F0AAC012F00E0E146E100EF3
:10164800136EBAEC16F011C06AF012C06BF0ABC0A2
:1016580011F0ACC012F0000E146E3C0E136EBAEC12
:1016680016F011506A2612506B220001AD516A24FF
:101678000001996F0001AE516B2000019A6F1200B2
:10168800000E0001866F625063106410D8A41BD04E
:10169800000E2C6E000E2D6E000E2E6E65C02FF003
:1016A80066C030F067C031F03EEC13F0D8A004D02B
:1016B800000E6E6E210E6D6E000E626E000E636E71
:1016C800000E646E1200655066106710D8A407D02B
:1016D800000E626E800E636E3F0E646E120064AE82
:1016E80042D065C038F066C039F067C03AF0FFEC08
:1016F8000FF038C087F039C088F03AC089F03BC095
:101708008AF087C019F088C01AF089C01BF08AC017
:101718001CF03BEC15F06550191807E166501A18D3
:1017280004E167501B18D8B40BD0000E6E6E210E62
:101738006D6E000E626E000E636E000E646E120017
:1017480000018751010B0001866F62C011F063C070
:1017580012F064C013F0CDEC16F011C062F012C0A4
:1017680063F013C064F062C044F063C045F064C025
:1017780046F054EC0DF044C080F045C081F046C0FE
:1017880082F080C01DF081C01EF082C01FF065C0CD
:1017980020F066C021F067C022F079EC10F01DC07F
:1017A80083F01EC084F01FC085F083C059F084C048
:1017B8005AF085C05BF0D0EC07F059C062F05AC00F
:1017C80063F05BC064F0000186510001D8B40FD00B
:1017D80062C011F063C012F064C013F0CDEC16F0D3
:1017E80011C062F012C063F013C064F0120062C04E
:1017F80062F063C063F064C064F01200926893689A
:10180800180E946E000E956E000E966E000E896E80
:10181800000E8A6E000E8B6E000E8C6E000E8D6EA2
:10182800000EC26EC168F086F28EF19E010E05ECC4
:1018380017F00BEC16F0100E1E6E270E1F6E000E22
:10184800206E000E216E69EC15F0010E05EC17F004
:101858000BEC16F0800E05EC17F0E40E0001AF6FEC
:10186800FE0E0001B06FD9EC04F0000E0001FD6F10
:10187800050E0001FC6F4BD0EA0E0001C56F000E8B
:101888000001C66FC9EC14F053D0D10E0001C56F2A
:10189800000E0001C66FDF0E0001C76F000E0001C9
:1018A800C86FE60E0001C96F000E0001CA6FEA0E8C
:1018B8000001CB6F000E0001CC6F09EC00F0D80ED0
:1018C800146E000E156E02EC15F032D0DF0E00011A
:1018D800C56F000E0001C66FABEC0CF029D0E60E08
:1018E8000001C56F000E0001C66FC0EC06F020D0E5
:1018F800D10E0001C56F000E0001C66FD80E0001A1
:10190800C76F000E0001C86FE6EC15F011D000019A
:10191800FD51010AD8B4B9D7030AD8B4ADD7010A22
:10192800D8B4D4D7070AD8B4DAD7010AD8B4E0D7DC
:10193800020E0001D06F450E0001CF6FA90EE82EF0
:10194800FED7CF2FFCD7D02FFAD700D0E0D714EC92
:1019580017F0000E136ED00E126E0BEC17F0000E7F
:10196800136E000E126E0BEC17F010EC17F014EC5F
:1019780017F0000E136ED10E126E0BEC17F0000E5E
:101988006C6E050E6C6401D010D06C50010DF350D4
:101998000001C525D96EF4500001C621DA6E010E8A
:1019A800A7EC16F0DF6E6C2AECD7000120EE06F0EB
:1019B800C551D926C651DA22000EA7EC16F0DF6E03
:1019C80010EC17F0800E05EC17F0FF0E0001AF6F5A
:1019D800FE0E0001B06F000120EE05F0C551D926BA
:1019E800C651DA22DF500001C76F0001C75100015C
:1019F800B16FB26B000120EE04F0C551D926C65173
:101A0800DA22DF500001C86F0001C8510001B36F2E
:101A1800B46B000120EE06F0C551D926C651DA2272
:101A2800DF500001C96F0001C9510001B56FB66BE5
:101A3800D9EC04F0C00E05EC17F0160E0001AF6FDC
:101A4800FF0E0001B06F000120EE02F0C551D9264B
:101A5800C651DA22DF500001C76F0001C7510001EB
:101A6800B16FB26B000120EE01F0C551D926C65105
:101A7800DA22DF500001C86F0001C8510001B36FBE
:101A8800B46BC5C0D9FFC6C0DAFFDF500001C96F0B
:101A98000001C9510001B56FB66BD9EC04F0120012
:101AA80046AE0BD0000E6E6E210E6D6E000E446EAB
:101AB800000E456E000E466E12004450451046104A
:101AC800D8A40BD0000E6E6E220E6D6E000E446E02
:101AD800000E456E000E466E1200000E206E000EBF
:101AE800216E400E226E470E146E000E156E44C015
:101AF80011F045C012F046C013F0F6EC12F011C018
:101B08001DF012C01EF013C01FF079EC10F01DC0BC
:101B18002CF01EC02DF01FC02EF0000E2F6E800E70
:101B2800306EBF0E316EABEC09F02CC044F02DC006
:101B380045F02EC046F04706D8A0480644C038F005
:101B480045C039F046C03AF0C90E3B6EFE0E3C6EF9
:101B5800000E3E6E080E3D6ED5EC11F038C044F014
:101B680039C045F03AC046F0720E206E310E216E33
:101B78003F0E226E47C019F048C01AF08BEC16F0E1
:101B880019C01DF01AC01EF01BC01FF079EC10F030
:101B98001DC02CF01EC02DF01FC02EF044C02FF029
:101BA80045C030F046C031F0ABEC09F02CC044F031
:101BB8002DC045F02EC046F0120014EC17F0000EB0
:101BC800136EE00E126E0BEC17F0000E136E800E03
:101BD800126E0BEC17F0000E136E040E126E0BEC67
:101BE80017F010EC17F014EC17F0000E136E520EED
:101BF800126E0BEC17F0000E136E800E126E0BECCB
:101C080017F0000E136E030E126E0BEC17F010ECAB
:101C180017F014EC17F0000E136E520E126E0BEC48
:101C280017F0000E136EB40E126E0BEC17F014ECD6
:101C380017F0000E136E530E126E0BEC17F020EE19
:101C480001F01A50D9261B50DA22010EA7EC16F023
:101C5800DF6E010EA7EC16F01AC0D9FF1BC0DAFF21
:101C6800DF6E20EE01F01450D9261550DA22010E4D
:101C7800A7EC16F0DF6E010EA7EC16F014C0D9FF22
:101C880015C0DAFFDF6E20EE01F01650D926175086
:101C9800DA22010EA7EC16F0DF6E010EA7EC16F0A3
:101CA80016C0D9FF17C0DAFFDF6E20EE01F018501A
:101CB800D9261950DA22010EA7EC16F0DF6E000EB5
:101CC800A7EC16F018C0D9FF19C0DAFFDF6E10ECC8
:101CD80017F0120014EC17F0000E136EE00E126EDF
:101CE8000BEC17F0000E136E800E126E0BEC17F053
:101CF800000E136E800E126E0BEC17F010EC17F03E
:101D080014EC17F0000E136E520E126E0BEC17F057
:101D1800000E136E800E126E0BEC17F0000E136E91
:101D2800030E126E0BEC17F010EC17F014EC17F012
:101D3800000E136E520E126E0BEC17F0000E136E9F
:101D4800B40E126E0BEC17F014EC17F0000E136EB5
:101D5800530E126E0BEC17F020EE01F01A50D92634
:101D68001B50DA22010EA7EC16F0DF6E010EA7EC6D
:101D780016F01AC0D9FF1BC0DAFFDF6E20EE01F0A3
:101D88001450D9261550DA22010EA7EC16F0DF6E92
:101D9800010EA7EC16F014C0D9FF15C0DAFFDF6EEC
:101DA80020EE01F01650D9261750DA22010EA7ECC2
:101DB80016F0DF6E010EA7EC16F016C0D9FF17C09B
:101DC800DAFFDF6E20EE01F01850D9261950DA221A
:101DD800010EA7EC16F0DF6E000EA7EC16F018C087
:101DE800D9FF19C0DAFFDF6E10EC17F01200000EF1
:101DF8000001946F000E936F68C097F069C098F067
:101E0800000E0001966F000E956F6CD00F0E00014A
:101E180097150001916F0001926B93C019F094C05F
:101E28001AF08BEC16F019C08BF01AC08CF01BC09E
:101E38008DF08BC065F08CC066F08DC067F0000E29
:101E4800626E200E636E410E646E44EC0BF062C04D
:101E58008EF063C08FF064C090F08EC020F08FC009
:101E680021F090C022F091C019F092C01AF08BECCA
:101E780016F019C01DF01AC01EF01BC01FF079EC37
:101E880010F01DC02FF01EC030F01FC031F095C0FB
:101E980019F096C01AF08BEC16F019C02CF01AC085
:101EA8002DF01BC02EF0ABEC09F02CC038F02DC083
:101EB80039F02EC03AF0FFEC0FF038C095F039C079
:101EC80096F097C011F098C012F0000E146E100E24
:101ED800136E86EC13F011C097F012C098F0000151
:101EE800934B942B0001975100019811D8A48ED7D9
:101EF80095C068F096C069F012000600FACF03F0AA
:101F0800FBCF04F0E9CF05F0EACF06F0E1CF07F008
:101F1800E2CF08F0D9CF09F0DACF0AF0F3CF0BF00F
:101F2800F4CF0CF0F6CF0DF0F7CF0EF0F8CF0FF09E
:101F3800F5CF10F0F0B01BD03FD0020E12D0010E3A
:101F480010D0050E0ED0040E0001FD6F000E0CD04F
:101F5800010E0AD0020E08D0030E06D0040E04D0DB
:101F6800030E0001FD6F050E0001FC6F25D08138BE
:101F78000F0B0F0B016E026A0250000AD8A41CD086
:101F88000150000AD8B4DBD7010AD8B4DAD7030A5B
:101F9800D8B4D9D7010AD8B4DBD7070AD8B4E0D760
:101FA800030AD8B4D7D70C0AD8B4D6D7070AD8B4F6
:101FB800C4D7030AD8B4D2D7F09010C0F5FF0FC029
:101FC800F8FF0EC0F7FF0DC0F6FF0CC0F4FF0BC002
:101FD800F3FF0AC0DAFF09C0D9FF08C0E2FF07C053
:101FE800E1FF06C0EAFF05C0E9FF04C0FBFF03C02C
:101FF800FAFF6F9211003AC03CF03D6A3E6A3934EC
:102008003C3601E33D803C50466E4650D8A409D08A
:10201800000E386E000E396E000E3A6E000E3B6EE2
:102028001200170E3C6E38C03DF039C03EF03AC081
:102038003FF03C28406E04D0D8903F323E323D32CB
:10204800402EFAD73D50416E398EFF0E3816FF0EDE
:102058003916000E3A163850426E3950436E3A50CF
:10206800446E456A8E0E465E46AE16D04650800ACD
:102078008F0FD8B009D0000E386E000E396E000EE2
:102088003A6E000E3B6E1200D8904532443243320D
:102098004232463EF9D715D0170E46640FD0000ECF
:1020A800386E000E396E000E3A6E000E3B6E12004E
:1020B800D890423643364436453646064650D8A46C
:1020C800F7D74150D8B408D0451E441E431E426C71
:1020D800000E43224422452242C038F043C039F062
:1020E80044C03AF045C03BF012001FC023F0246AF8
:1020F800256A1E34233601E324802350266E265099
:10210800D8A407D0000E1D6E000E1E6E000E1F6EA6
:10211800120022C023F0246A256A2134233601E301
:10212800248023502B6E2B50D8A407D0000E1D6E90
:10213800000E1E6E000E1F6E12002B507B0F2626FF
:102148001FC02BF022502B1A800E2B161E8E218EAC
:10215800FF0E2016FF0E2116000E2216000E276E07
:10216800000E286E000E296E070E2A6E1DA006D0DE
:10217800205027262150282222502922D8901F3269
:102188001E321D32D8902036213622362A2EEED71E
:10219800090E2A6E1DA006D020502726215028227D
:1021A80022502922D8901F321E321D32D89029324F
:1021B800283227322A2EEED727C011F028C012F075
:1021C80029C013F026C014F02BC015F09FEC12F0B4
:1021D80011C01DF012C01EF013C01FF012001FC066
:1021E80023F0246A256A1E34233601E32480235011
:1021F8002A6E2A50D8A407D0000E1D6E000E1E6E3F
:10220800000E1F6E120022C023F0246A256A2134B2
:10221800233601E3248023502B6E2B50D8A407D0FB
:10222800000E1D6E000E1E6E000E1F6E1200000EB8
:10223800276E000E286E000E296E2B50890F2A5E1D
:102248001FC02BF022502B1A800E2B161E8EFF0E4D
:102258001D16FF0E1E16000E1F16218EFF0E2016CD
:10226800FF0E2116000E2216180E266ED89027365D
:102278002836293620501D5C21501E5822501F58E0
:10228800D8A007D020501D5E21501E5A22501F5A38
:102298002780D8901D361E361F36262EE7D727C032
:1022A80011F028C012F029C013F02AC014F02BC076
:1022B80015F09FEC12F011C01DF012C01EF013C0F3
:1022C8001FF0120051C011F052C012F053C013F0A9
:1022D800570E146E000E156EF6EC12F058AE10D0B4
:1022E80053AE07D0000E516E800E526EBF0E536E65
:1022F8001200000E516E000E526E000E536E120048
:10230800585004E1150E575CD8A007D051C051F0C1
:1023180052C052F053C053F0120051C038F052C0AE
:1023280039F053C03AF0FFEC0FF038C047F039C02D
:1023380048F03AC049F03BC04AF08DEC14F047C071
:1023480054F048C055F049C056F051C02CF052C066
:102358002DF053C02EF054C02FF055C030F056C0A9
:1023680031F03EEC13F0D8B015D054C02CF055C065
:102378002DF056C02EF0000E2F6E800E306EBF0E60
:10238800316EABEC09F02CC051F02DC052F02EC0CC
:1023980053F0120054C051F055C052F056C053F0DB
:1023A80012003DC011F03EC012F0000E146E030E74
:1023B800136EBAEC16F03BC03FF03CC040F0115031
:1023C8003F26125040223FC0F6FF40C0F7FF0900E9
:1023D800F5CF41F00900F5CF42F00A00F5CF43F000
:1023E8003ED041C020F042C021F043C022F038C0A6
:1023F8001DF039C01EF03AC01FF079EC10F01DC076
:102408002CF01EC02DF01FC02EF0000E146E030E0F
:10241800136E3D06D8A03E063DC011F03EC012F036
:10242800BAEC16F03BC03FF03CC040F011503F26DC
:10243800125040223FC0F6FF40C0F7FF0900F5CF19
:102448002FF00900F5CF30F00A00F5CF31F0ABECF2
:1024580009F02CC041F02DC042F02EC043F03D5091
:102468003E10D8A4BED741C038F042C039F043C0AE
:102478003AF01200445045104610D8A407D0000E78
:10248800446E000E456E000E466E120046507F0BDD
:10249800496E4A6AD89049364A36495047264A50C2
:1024A800482245AE03D0496A492A01D0496A4950B1
:1024B8004726000E482248AE0BD0000E6E6E220E44
:1024C8006D6E000E446E000E456E000E466E1200D4
:1024D80048BE15D04804D8A012D0000E6E6E220E49
:1024E8006D6E46AE06D0FF0E446E7F0E456EFF0E33
:1024F800EDD7FF0E446E7F0E456E7F0EE7D748344A
:1025080048304A6E4730496E46504918800B491882
:10251800466E47C049F0010E4916493249324550C6
:1025280049187F0B4918456E44C044F045C045F032
:1025380046C046F012001450D8B405D011501210FD
:102548001310D8A40CD0000E116E000E126E000EDF
:10255800136E1200142AD890133212321132000E60
:102568001114166E000E1214176EFE0E1314186E48
:10257800165017101810D8B40CD0ECD7142A010E26
:102588001126000E1222000E1322D8901332123296
:102598001132000E1114166E000E1214176EFF0E73
:1025A8001314186E165017101810D8B406D0E6D7A2
:1025B8001406D89011361236133612BE03D0020E06
:1025C8001460F6D714A0129ED89014321450131227
:1025D8001550D8A4138E11C011F012C012F013C0F8
:1025E80013F01200115012101310D8A40FD014C0F9
:1025F800D9FF15C0DAFF000EDE6E000EDD6E000E8C
:10260800116E000E126E000E136E120013507F0B27
:10261800166E176AD8901636173614C0D9FF15C02B
:10262800DAFF16C0DEFF17C0DDFF12AE03D0166A50
:10263800162A01D0166A165014C0D9FF15C0DAFF41
:10264800DE12000EDD1214C0D9FF15C0DAFF820EAB
:10265800DE26FF0EDD22138013821384138613886F
:10266800138A139C129E11C011F012C012F013C0ED
:1026780013F012002EAE16D02CC032F02DC033F05D
:102688002EC034F0321E331E341E322A000E33227E
:102698003422000E32242C6E000E33202D6E800E54
:1026A80034202E6E31AE16D02FC032F030C033F049
:1026B80031C034F0321E331E341E322A000E33224B
:1026C8003422000E32242F6E000E3320306E800E1E
:1026D8003420316E000E2C1A000E2D1A800E2E1A80
:1026E800000E2F1A000E301A800E311A2F502C5C53
:1026F80030502D5831502E58D8B002D0D8901200F2
:10270800D8801200000E166E14AE06D0136C141E7C
:10271800D8B0142A010E166E12AE06D0116C121E15
:10272800D8B0122A010E161A000E186E000E176E77
:1027380013501410D8B41CD0010E156E04D0D890C4
:1027480013361436152A14AEFAD7D8901736183619
:102758001350115C14501258D8A005D01350115EB4
:102768001450125A1780D89014321332152EEDD700
:102778001650D8B404D0176C181ED8B0182A17C031
:1027880011F018C012F01200000E156E000E146E33
:1027980032D0829082928284828A110E136E3A0E0F
:1027A800E82EFED7132EFCD700D082908282828436
:1027B800829A110E136E3A0EE82EFED7132EFCD70E
:1027C80000D0828082828284829A110E136E3A0E21
:1027D800E82EFED7132EFCD700D0828082928294F6
:1027E800828A110E136E3A0EE82EFED7132EFCD7EE
:1027F80000D0144A152A1150145C1550800A136E23
:102808001250800A1358D8B01200C3D7000E156EA4
:10281800000E146E32D0828082828294829A110EC7
:10282800136E3A0EE82EFED7132EFCD700D08290F6
:1028380082828284829A110E136E3A0EE82EFED797
:10284800132EFCD700D0829082928284828A110E45
:10285800136E3A0EE82EFED7132EFCD700D08280D6
:1028680082928294828A110E136E3A0EE82EFED757
:10287800132EFCD700D0144A152A1150145C155099
:10288800800A136E1250800A1358D8B01200C3D7AA
:10289800000E196E000E1A6E000E1B6E000E1C6ED6
:1028A8001550161017101810D8B42AD0010E1D6E26
:1028B80006D0D89015361636173618361D2A18AE93
:1028C800F8D7D89019361A361B361C361550115CB5
:1028D800165012581750135818501458D8A009D029
:1028E8001550115E1650125A1750135A1850145A90
:1028F8001980D89018321732163215321D2EE1D7AA
:1029080019C011F01AC012F01BC013F01CC014F04B
:102918001200000E506E8E0E4F6E4AAE11D04A1E37
:10292800491E481E476C000E482249224A22010EC1
:10293800506E06D0D8904A324932483247324F2A30
:10294800000E47144B6E000E48144C6E000E4914CE
:102958004D6EFF0E4A144E6E4B504C104D104E10DB
:10296800D8A4E8D747C011F048C012F049C013F006
:102978004FC014F050C015F09FEC12F011C047F092
:1029880012C048F013C049F0120084928480800E6F
:1029980005EC17F0BA0E0001AF6FFF0E0001B06F23
:1029A800D9EC04F0C00E05EC17F0650E0001AF6F0E
:1029B800FF0E0001B06FD9EC04F0050E0001FD6FA9
:1029C800000120EE01F0C551D926C651DA22010EC8
:1029D800DF6EC5C016F0C6C017F0C2EC08F0070ECF
:1029E8000001C86F580E0001C76F590EE82EFED7B8
:1029F800C72FFCD7C82FFAD700D0120014EC17F055
:102A0800000E136ED00E126E0BEC17F0000E136E44
:102A1800000E126E0BEC17F010EC17F014EC17F018
:102A2800000E136ED10E126E0BEC17F0000E166E20
:102A3800050E166401D00ED01650010DF350142463
:102A4800D96EF4501520DA6E010EA7EC16F0DF6E81
:102A5800162AEED720EE06F01450D9261550DA22A1
:102A6800000EA7EC16F0DF6E10EC17F012008E0EB9
:102A7800216E06D0D8901C321B321A321932212A04
:102A8800000E19141D6E000E1A141E6E000E1B1473
:102A98001F6EFF0E1C14206E1D501E101F102010DC
:102AA800D8A4E8D719C011F01AC012F01BC013F04F
:102AB80021C014F0000E156E9FEC12F011C019F031
:102AC80012C01AF013C01BF01200000EC76E280EB9
:102AD800C66E000EC56E800E116E960E126E980EA2
:102AE800136E000E146E1EC022F01FC023F020C00B
:102AF80024F021C025F0020ED89022362336243641
:102B08002536E82EF9D722C015F023C016F024C0C8
:102B180017F025C018F04CEC14F01104C86E948618
:102B280094881200000E166E000E156E13501410C5
:102B3800D8B41CD0010E176E04D0D89013361436B2
:102B4800172A14AEFAD7D890153616361350115CDA
:102B580014501258D8A005D01350115E1450125AB0
:102B68001580D89014321332172EEDD715C011F0F6
:102B780016C012F01200126E1250F00B116E8C502B
:102B88000F0B8C6E11508C108C6E8C96190EE82ED3
:102B9800FED78C86190EE82EFED71238F00B126E6F
:102BA8001250F00B116E8C500F0B8C6E11508C1054
:102BB8008C6E8C96190EE82EFED78C86190EE82E90
:102BC800FED71200800E05EC17F0CB0E0001AF6F98
:102BD800FF0E0001B06FD9EC04F0C00E05EC17F041
:102BE800410E0001AF6FFF0E0001B06FC7C099F032
:102BF800C8C09AF0C5C09BF0C6C09CF081EC0AF032
:102C080099C0B1F09AC0B2F0D9EC04F01200310EBC
:102C1800146EB20EE82EFED7142EFCD700D0330E59
:102C280005EC17F0320E05EC17F0280E05EC17F03E
:102C38000F0E05EC17F0060E05EC17F0010E05EC6B
:102C480017F0310E146EB20EE82EFED7142EFCD7F4
:102C580000D012001A501B10D8B418D0010E1C6EE8
:102C680004D0D8901A361B361C2A1BAEFAD71A5035
:102C7800185C1B501958D8A004D01A50185E1B5065
:102C8800195AD8901B321A321C2EF1D718C018F0D6
:102C980019C019F012003B503C103D10D8B406D0B2
:102CA800000E3B1A000E3C1A800E3D1A38C02CF05C
:102CB80039C02DF03AC02EF03BC02FF03CC030F0A8
:102CC8003DC031F0ABEC09F02CC038F02DC039F024
:102CD8002EC03AF01200EE0EF66E2D0EF76E000EB4
:102CE800F86E00EEECF010EE10F00900F5CFEEFFF4
:102CF800E550E150FAE10001FD6BFC6B6E6A6D6A0C
:102D08006F906F92000EF86E000102EF0CF0000E4B
:102D18001C6E1AAE06D0196C1A1ED8B01A2A010EEB
:102D28001C6E19C011F01AC012F0136A8E0E146EC0
:102D38001CC015F09FEC12F011C019F012C01AF067
:102D480013C01BF01200126EEEEC16F0C586EEEC06
:102D580016F0C9CF13F0EEEC16F01250D8A402D03A
:102D6800C58A01D0C59AC5881350120011501302A4
:102D7800F3CF15F0F4CF16F011501402F3501626C5
:102D880012501302F350162615C011F016C012F097
:102D98001200115012101310D8B406D0000E111AD8
:102DA800000E121A800E131A11C011F012C012F080
:102DB80013C013F01200136E000E126E3A0E136059
:102DC80005D02F0E136402D0010E126E12C011F03E
:102DD80011301200C7B4FED7C5CF11F01F0E11165F
:102DE800D8B41200F7D70001020304050607080942
:102DF8000A0B0C0D0E0F136E8C841350BFEC15F0DC
:102E08001200136E8C941350BFEC15F01200EEEC08
:102E180016F012C0C9FF1200EEEC16F0C5841200BD
:082E2800EEEC16F0C58012006B
:10FE8000003132334134353642373839432A302352
:10FE9000440001000A006400E8031027010010007C
:10FEA000000100104559230731121600803F7231BE
:10FEB0003FFE753E58633D951D3CC5AE3A792139EC
:10FEC00094803793A73556153400000000803FF02A
:10FED000FFBEE2A93E8376BEAE2B3E3CC3BDD2132D
:10FEE0003D78D3BB5072657373203120746F2062EC
:10FEF0006567696E206F7065726174696F6E00442A
:10FF00006174653A20253032782F253032782F25DC
:10FF100030327820200054696D653A2025303278DF
:10FF20003A253032783A2530327820200025757C09
:10FF300025757C25757C25752020202020202020FB
:10FF40000054696D653A2025697320202020202007
:10FF50002020200030313233343536373839616271
:10FF6000636465660020202020202020202020209F
:10FF7000202020202000436F756E743A20257520C4
:10FF800020202020202000546F74616C20426F7468
:10FF9000746C652020202000594F502057697468E8
:10FFA00020436170202020200045534B4120576999
:10FFB000746820436170202020004F706572617466
:10FFC000696F6E20446F6E65212000546F74616C00
:10FFD000204F7065726174696F6E2000594F502018
:10FFE00057697468204E6F20436170200045534B61
:0FFFF000412057697468204E6F204361700000F4
:020000040020DA
:08000000FFFFFFFFFFFFFFFF00
:020000040030CA
:0E000000FF021F1EFF8381FF0FC00FE00F40A5
:00000001FF
