:0400000007EF00F016
:100008006782FFED0BF0D6EF18F0EAC01CF0EBC0EA
:100018001DF069EC17F0ECC01CF0EDC01DF069ECA8
:1000280017F0010EA9EC19F072EC18F0F0C0D9FF26
:10003800F1C0DAFF010EDF6E000120EE01F0F05191
:10004800D926F151DA22010EDF6E020E1C6E010E66
:100058001D6E69EC17F0000E0101216F000E206F74
:10006800010121BF08D0010121511BE1040E01014A
:10007800205DD8B016D0010120510001EE25D96EBF
:10008800010121510001EF21DA6E000EDF6E01013E
:10009800204B212B010121BFEED70101215101E1A4
:1000A800E5D784828480B7EF04F0ECC01CF0EDC083
:1000B8001DF069EC17F02E0E1C6E010E1D6E300E31
:1000C8001E6E010E1F6E320E206E010E216E340E52
:1000D800226E010E236E3EEC11F001012F512EC14C
:1000E800F2F00001F36BF2C0F3F00001F26B0001D3
:1000F800F21101011C6F0001F35101011D6F010193
:10010800315130C1F2F00001F36BF2C0F3F000019D
:10011800F26B0001F21101010C6F0001F3510101B2
:100128000D6F0101335132C1F2F00001F36BF2C0DF
:10013800F3F00001F26B0001F21101011E6F0001E2
:10014800F35101011F6F0101355134C1F2F0000173
:10015800F36BF2C0F3F00001F26B0001F211010140
:100168000E6F0001F35101010F6F2E0E1C6E010E70
:100178001D6E300E1E6E010E1F6E320E206E010EA9
:10018800216E340E226E010E236EB1EC10F00101C7
:100198002F512EC1F2F00001F36BF2C0F3F0000111
:1001A800F26B0001F2110101226F0001F35101010C
:1001B800236F0101315130C1F2F00001F36BF2C03D
:1001C800F3F00001F26B0001F2110101166F00015A
:1001D800F3510101176F0101335132C1F2F00001EF
:1001E800F36BF2C0F3F00001F26B0001F2110101B0
:1001F800246F0001F3510101256F0101355134C10C
:10020800F2F00001F36BF2C0F3F00001F26B0001B1
:10021800F2110101106F0001F3510101116F080E75
:10022800286ECA0E296E3F0E2A6E16C121F017C11C
:1002380022F0F3EC18F021C025F022C026F023C0EC
:1002480027F0CEEC12F025C037F026C038F027C0D2
:1002580039F03A0E286EA60E296EBE0E2A6E22C1FD
:1002680021F023C122F0F3EC18F021C025F022C0C0
:1002780026F023C027F0CEEC12F025C034F026C0BB
:1002880035F027C036F0D0EC0DF034C009F135C098
:100298000AF136C00BF15E0E286E3B0E296EBF0EBA
:1002A8002A6E24C121F025C122F0F3EC18F021C0F8
:1002B80025F022C026F023C027F0CEEC12F025C08E
:1002C80037F026C038F027C039F009C134F00AC128
:1002D80035F00BC136F0D0EC0DF034C040F035C02D
:1002E80041F036C042F054EC12F040C000F141C079
:1002F80001F1800EA9EC19F0E90E0001CE6FFE0E97
:100308000001CF6F1CC1D0F01DC1D1F01EC1D2F0C9
:100318001FC1D3F00EC1D4F00FC1D5F015EC07F012
:10032800C00EA9EC19F0E90E0001CE6FFE0E000117
:10033800CF6F22C1D0F023C1D1F024C1D2F025C1A2
:10034800D3F010C1D4F011C1D5F015EC07F00101BC
:100358000C5101011C250001F26F01010D51010131
:100368001D210001F36F01011E510001F227010157
:100378001F510001F323110E0001F25D0E0E000162
:10038800F359D8B03CD001011651010122250001D2
:10039800F26F01011751010123210001F36F0101DF
:1003A80024510001F227010125510001F323110E08
:1003B8000001F25D0E0E0001F359D8B020D0010102
:1003C8001E5101011C5D01011D51800A0001F26FDF
:1003D80001011F51800A0001F259D8A010D0010173
:1003E80024510101225D01012351800A0001F26FAD
:1003F80001012551800A0001F259D8B0A6D21A0E7F
:100408000001F36F5E0E0001F26F6E0EE82EFED74C
:10041800F22FFCD7F32FFAD700F02E0E1C6E010E28
:100428001D6E300E1E6E010E1F6E320E206E010EF6
:10043800216E340E226E010E236E3EEC11F0010186
:100448002F512EC1F2F00001F36BF2C0F3F000015E
:10045800F26B0001F2110101266F0001F351010155
:10046800276F0101315130C1F2F00001F36BF2C086
:10047800F3F00001F26B0001F2110101186F0001A5
:10048800F3510101196F0101335132C1F2F000013A
:10049800F36BF2C0F3F00001F26B0001F2110101FD
:1004A800286F0001F3510101296F0101355134C151
:1004B800F2F00001F36BF2C0F3F00001F26B0001FF
:1004C800F2110101126F0001F3510101136F2E0E99
:1004D8001C6E010E1D6E300E1E6E010E1F6E320E4A
:1004E800206E010E216E340E226E010E236EB1ECC9
:1004F80010F001012F512EC1F2F00001F36BF2C090
:10050800F3F00001F26B0001F21101012A6F000102
:10051800F35101012B6F0101315130C1F2F000019B
:10052800F36BF2C0F3F00001F26B0001F21101016C
:100538001A6F0001F35101011B6F0101335132C1E0
:10054800F2F00001F36BF2C0F3F00001F26B00016E
:10055800F21101012C6F0001F35101012D6F01010E
:10056800355134C1F2F00001F36BF2C0F3F0000131
:10057800F26B0001F2110101146F0001F351010146
:10058800156F84929A0E346ED90E356E3F0E366E04
:1005980028C121F029C122F0F3EC18F021C028F07D
:1005A80022C029F023C02AF026C121F027C122F059
:1005B800F3EC18F021C025F022C026F023C027F064
:1005C800C1EC13F025C037F026C038F027C039F049
:1005D8009DEC15F0D8B01CD001011A5101012A2553
:1005E8000001F26F01011B5101012B210001F36F82
:1005F80001012C510001F22701012D510001F323C3
:10060800E10E0001F25D150E0001F359D8B046D095
:100618009A0E346ED90E356E3F0E366E2CC121F00F
:100628002DC122F0F3EC18F021C028F022C029F0E7
:1006380023C02AF02AC121F02BC122F0F3EC18F0D4
:1006480021C025F022C026F023C027F0C1EC13F00A
:1006580025C037F026C038F027C039F09DEC15F0DA
:10066800D8B047D001011851010126250001F26FC9
:1006780001011951010127210001F36F01012851DE
:100688000001F227010129510001F323390E00016D
:10069800F25D180E0001F359D8A02BD0000120EE0E
:1006A80001F0F051D926F151DA22010EDF6EF0C0C7
:1006B8001EF0F1C01FF016EC0BF08490EEC0D9FFCD
:1006C800EFC0DAFFDF2A020E0001F36FE70E000128
:1006D800F26F000EE82EFED7F22FFCD7F32FFAD7D1
:1006E80000F08480020E1C6E010E1D6E69EC17F07E
:1006F8002BD1480E346E810E356E3F0E366E26C1F4
:1007080021F027C122F0F3EC18F021C028F022C014
:1007180029F023C02AF028C121F029C122F0F3ECE6
:1007280018F021C025F022C026F023C027F0C1EC24
:1007380013F025C037F026C038F027C039F09DECFB
:1007480015F0D8A02AD0480E346E810E356E3F0EB3
:10075800366E2AC121F02BC122F0F3EC18F021C02B
:1007680028F022C029F023C02AF02CC121F02DC185
:1007780022F0F3EC18F021C025F022C026F023C0A7
:1007880027F0C1EC13F025C037F026C038F027C099
:1007980039F09DEC15F0D8B02ED0000120EE01F014
:1007A800F051D926F151DA22030EDF6EF0C01EF0A7
:1007B800F1C01FF016EC0BF08490000120EE02F05F
:1007C800EE51D926EF51DA22DF2A020E0001F36F2B
:1007D800E70E0001F26F000EE82EFED7F22FFCD7CD
:1007E800F32FFAD700F08480020E1C6E010E1D6EE6
:1007F80069EC17F0A9D00101185101012625000163
:10080800F26F01011951010127210001F36F010164
:1008180028510001F227010129510001F323910E0B
:100828000001F25D1A0E0001F359D8B01CD0010185
:100838001A5101012A250001F26F01011B51010122
:100848002B210001F36F01012C510001F227010156
:100858002D510001F323650E0001F25D190E000110
:10086800F359D8A02ED0000120EE01F0F051D9267E
:10087800F151DA22020EDF6EF0C01EF0F1C01FF057
:1008880016EC0BF08490000120EE01F0EE51D92611
:10089800EF51DA22DF2A020E0001F36FE70E0001A2
:1008A800F26F000EE82EFED7F22FFCD7F32FFAD7FF
:1008B80000F08480020E1C6E010E1D6E69EC17F0AC
:1008C80043D0010113BF08D0F70E0101125D090ED4
:1008D80001011359D8B00BD0010115BF35D0490E0D
:1008E8000101145D0D0E01011559D8A02DD000018C
:1008F80020EE01F0F051D926F151DA22040EDF6E14
:10090800F0C01EF0F1C01FF016EC0BF0849000014F
:1009180020EE03F0EE51D926EF51DA22DF2A020E3B
:100928000001F36FE70E0001F26F000EE82EFED70C
:10093800F22FFCD7F32FFAD700F08480020E1C6E3A
:10094800010E1D6E69EC17F084820D0E0001F36F25
:10095800AF0E0001F26FB60EE82EFED7F22FFCD7CD
:10096800F32FFAD700F0020E01015519D8B419D0A7
:10097800ECC0B6F0EDC0B7F0020E0001B86F010E82
:100988000001B96FE8EC0CF00001B7BF59EF00F0B7
:100998000001B75106E1140E0001B65DD8A059EF69
:1009A80000F0020E0101556F120092689368180E4C
:1009B800946E000E956E000E966E000E896E000EF7
:1009C8008A6E000E8B6E000E8C6E000E8D6E000E01
:1009D800C26EC168F086F28EF19E010EA9EC19F084
:1009E80072EC18F0100E266E270E276E000E286E79
:1009F800000E296ED0EC17F0010EA9EC19F072EC7C
:100A080018F0800EA9EC19F0000E1A6E140E196E6B
:100A18007CEC19F0FF0AD8A428D0000E1C6E140E26
:100A28001B6E140E1D6E0FEC19F0000E1C6E150EC9
:100A38001B6E000E1D6E0FEC19F0000E1C6E160ECC
:100A48001B6E000E1D6E0FEC19F0000E1C6E170EBB
:100A58001B6E000E1D6E0FEC19F0000E1C6E180EAA
:100A68001B6E000E1D6E0FEC19F0A00E0001CE6F6C
:100A7800FE0E0001CF6F15EC07F0000E0101556F57
:100A8800050E0001FB6F000E01014C6F000E4B6F4D
:100A98009FD1520E0001EA6F010E0001EB6F30EC9E
:100AA80017F0B0D1150E0101546F360E0001EA6F30
:100AB800010E0001EB6F440E0001EC6F010E000106
:100AC800ED6F4E0E0001EE6F010E0001EF6F520E3A
:100AD8000001F06F010E0001F16F09EC00F03D0E0E
:100AE8001C6E010E1D6E69EC17F0000E01014C6FB3
:100AF800000E9BD0440E0001EA6F010E0001EB6F5F
:100B080077EC0FF07FD14E0E0001EA6F010E000165
:100B1800EB6FFCEC08F076D1360E0001EA6F010E9F
:100B28000001EB6F3D0E0001EC6F010E0001ED6F4F
:100B38004DEC18F067D101014B5101014C11D8A4BB
:100B480061D1000E1A6E140E196E7CEC19F00001BA
:100B5800F46F010E0001F4251B6E1C6A000E1C22A6
:100B68004EC11DF00FEC19F0000E1A6E140E196E1E
:100B78007CEC19F00001F46F020E0001F4251B6EE5
:100B88001C6A000E1C224FC11DF00FEC19F0000E5C
:100B98001A6E140E196E7CEC19F00001F46F030E36
:100BA8000001F4251B6E1C6A000E1C2250C11DF0AA
:100BB8000FEC19F0000E1A6E140E196E7CEC19F079
:100BC8000001F46F040E0001F4251B6E1C6A000E70
:100BD8001C2251C11DF00FEC19F0000E1C6E140EF2
:100BE8001B6E000E1A6E140E196E7CEC19F0040FB1
:100BF8001D6E0FEC19F0800EA9EC19F0440E0001DF
:100C0800CE6FFF0E0001CF6F15EC07F0C00EA9ECF8
:100C180019F0330E0001CE6FFF0E0001CF6F15ECF7
:100C280007F0000E01014C6F010E4B6FEBD0800EE8
:100C3800A9EC19F0550E0001CE6FFF0E0001CF6F21
:100C480015EC07F0C00EA9EC19F0330E0001CE6FB9
:100C5800FF0E0001CF6F15EC07F0D4D0800EA9EC81
:100C680019F0EE0E0001CE6FFF0E0001CF6F15ECEC
:100C780007F0C00EA9EC19F0100E0001CE6FFF0EA0
:100C88000001CF6F54C119F01A6A7CEC19F0000109
:100C9800F46F0001F4510001D06FD16B010E010116
:100CA8005425196E1A6A000E1A227CEC19F00001FC
:100CB800F56F0001F5510001D26FD36B020E0101EF
:100CC8005425196E1A6A000E1A227CEC19F00001DC
:100CD800F66F0001F6510001D46FD56B030E0101C8
:100CE8005425196E1A6A000E1A227CEC19F00001BC
:100CF800F76F0001F7510001D66FD76B000E1A6E1F
:100D0800140E196E7CEC19F00001F86F0001F8510F
:100D18000001D86FD96B54C1DAF00001DB6B15EC18
:100D280007F081B211D06ED081380F0B0F0B000184
:100D3800F46FF56B3D0E0001F425F66EFE0EF521FD
:100D4800F76E0800F5CF4DF181B2EED7150E01010F
:100D5800546509D0380E01014D19D8A404D0040EE9
:100D68000101545F4FD0FD0E0001F46FFF0E00012A
:100D7800F56F000E1A6E140E196E7CEC19F0000156
:100D8800F66FF76B0001F4510001F6270001F551E9
:100D98000001F723010154510001F86FF96B0001BC
:100DA800F6510001F85D0001F951800A0001FA6F5F
:100DB8000001F751800A0001FA59D8B023D0390E42
:100DC80001014D19D8A41ED0040E010154271AD0D0
:100DD80001015551010AD8B465D6030AD8B459D6C9
:100DE800010AD8B487D6070AD8B48DD6010AD8B470
:100DF80093D6030AD8B49FD6010AD8B418D70F0AD5
:100E0800D8B42CD7020E0001F56F450E0001F46F1F
:100E1800A90EE82EFED7F42FFCD7F52FFAD700D06D
:100E2800D7D7D00E0001E16F000E0001E26FD1D1DB
:100E3800250E0001E919D8B405D00001E951A3EC49
:100E480019F0C7D1000E0001E86F000EE76F000E21
:100E58000001E66F05D00001E6850001CE4BCF2BDF
:100E6800CEC0F6FFCFC0F7FF0800F550300AD8B45F
:100E7800F2D7CEC0F6FFCFC0F7FF0800F5506DECF3
:100E880019F0D8A047D0000E0001E86F000EE76FF8
:100E9800E7C019F0E8C01AF0000E1C6E0A0E1B6EAF
:100EA80035EC19F019C0E7F01AC0E8F0D00E0001CF
:100EB800DC6FFF0E0001DD6FCEC0F6FFCFC0F7FF7D
:100EC8000800F5500001DE6FDF6B0001DC51000106
:100ED800DE270001DD510001DF230001DE510001A2
:100EE800E7270001DF510001E8230001CE4BCF2B9B
:100EF800CEC0F6FFCFC0F7FF0800F5506DEC19F033
:100F0800D8A008D0C5D70001E68F20D0C00E0001B8
:100F1800E6131CD0CEC0F6FFCFC0F7FF0001CE4BC2
:100F2800CF2B0800F5CFE9F00001E951000AD8B449
:100F38001200640AD8B40AD00D0AD8B407D01C0A23
:100F4800D8B4E4D70D0AD8B4DED743D1E6C0DCF074
:100F5800C00E0001DC17D8A419D0E1C0D9FFE2C047
:100F6800DAFFDECFE4F0DDCFE5F0020E0001E12785
:100F7800000EE2230001E5AF53D0030E0001E61393
:100F88000001E46DE51FD8B0E52B4AD0E1C0D9FFD8
:100F9800E2C0DAFFDECFE4F0DDCFE5F0020E0001BB
:100FA800E127000EE2233CD0010E0001E96F050E97
:100FB8000001E919D8B440D00001E951020D4E0EE4
:100FC800F324F66EFE0EF420F76E0900F5500001CA
:100FD800E45D0900F5500001E559D8A02DD00001C5
:100FE800E92BE5D7010E0001E96F040E0001E919AC
:100FF800D8B422D00001E951020D580EF324F66E40
:10100800FE0EF420F76E0900F5500001E45D0900BA
:10101800F5500001E559D8A00FD00001E92BE5D71C
:101028000001E651C00B000AD8B4BED7800AD8B474
:10103800D9D7400AD8B4B8D70001E7510001E81160
:10104800D8B40BD0E6C0DCF0030E0001DC17D8B42E
:1010580004D00001E707D8A0E807800E0001E9BF27
:101068007F0E0001DC6F0001E7510001E95D00011E
:10107800E851800A0001DC59D8B00BD00001E951D1
:101088000001E75F000E0001E9BFFF0E0001E85B09
:1010980005D0000E0001E86F000EE76F0001E6A51D
:1010A80018D0E6C0DCF0030E0001DC17D8B403D07A
:1010B8002D0EA3EC19F00001E7510001E811D8B496
:1010C80025D0300EA3EC19F00001E707D8A0E807F7
:1010D800F2D70001E7510001E811D8B40DD0200E75
:1010E800A3EC19F00001E707D8A0E8070001E751D1
:1010F8000001E811D8A4F3D7E6C0DCF0030E000124
:10110800DC17D8B403D02D0EA3EC19F0E9C0E3F036
:101118005AD00001E351020D4E0EF324F66EFE0E76
:10112800F420F76E0900F5CF1BF00A00F5CF1CF08C
:10113800E4C019F0E5C01AF0FDEC17F019C020F072
:101148001AC021F0000E236E0A0E226E95EC18F0DC
:101158002050300F0001E96F32D0E4C019F0E5C02B
:101168001AF00001E351020D580EF324F66EFE0E3C
:10117800F420F76E0900F5CF1BF00A00F5CF1CF03C
:10118800FDEC17F019500F0B0001E06F0001E05162
:10119800010D220EF324F66EFF0EF420F76E080000
:1011A800F5CFE9F00CD00001E651C00B000AD8B425
:1011B800B0D7800AD8B4D1D7400AD8B4AAD700018A
:1011C800E951A3EC19F00001E3070001E329D8A4D1
:1011D800EAD7CEC0F6FFCFC0F7FF0001CE4BCF2B2A
:1011E8000800F5CFE9F00001E951D8B4120020D683
:1011F80009D1800EA9EC19F0770E0001CE6FFF0E11
:101208000001CF6F15EC07F0C00EA9EC19F0660EBF
:101218000001CE6FFF0E0001CF6F000120EE03F03A
:10122800EA51D926EB51DA22DF500001EC6FEAC00F
:10123800D9FFEBC0DAFFDF500001ED6FEE6B000164
:1012480020EE01F0EA51D926EB51DA22DF500001F5
:10125800EF6F0001EF510001ED27000EEE230001B2
:1012680020EE02F0EA51D926EB51DA22DF500001D4
:10127800F06F0001F0510001ED27000EEE23000190
:10128800EC510001ED250001D06F0001000E0001B6
:10129800EE210001D16F15EC07F0A6D0800EA9EC65
:1012A80019F0880E0001CE6FFF0E0001CF6F15EC0C
:1012B80007F0C00EA9EC19F0660E0001CE6FFF0E04
:1012C8000001CF6FEAC0D9FFEBC0DAFFDF500001A1
:1012D800EC6F0001EC510001D06FD16B15EC07F0F9
:1012E80083D0800EA9EC19F0CC0E0001CE6FFF0E52
:1012F8000001CF6F15EC07F0C00EA9EC19F0660ECF
:101308000001CE6FFF0E0001CF6F000120EE01F04B
:10131800EA51D926EB51DA22DF500001EC6F0001C7
:10132800EC510001D06FD16B15EC07F05DD0800E49
:10133800A9EC19F0990E0001CE6FFF0E0001CF6FD6
:1013480015EC07F0C00EA9EC19F0660E0001CE6F7F
:10135800FF0E0001CF6F000120EE02F0EA51D926FE
:10136800EB51DA22DF500001EC6F0001EC51000173
:10137800D06FD16B15EC07F037D0800EA9EC19F0BF
:10138800DD0E0001CE6FFF0E0001CF6F15EC07F0E8
:10139800C00EA9EC19F0660E0001CE6FFF0E000119
:1013A800CF6F000120EE03F0EA51D926EB51DA2283
:1013B800DF500001EC6F0001EC510001D06FD16BE0
:1013C80015EC07F011D00001FB51000AD8B411D771
:1013D800010AD8B463D7030AD8B483D7010AD8B4AA
:1013E800A6D7070AD8B4C9D7020E0001ED6F450E7B
:1013F8000001EC6FA90EE82EFED7EC2FFCD7ED2FDD
:10140800FAD700D0050E0001FB19D8B41200DBD7BB
:1014180000018C5100018D1100018E11D8A40AD051
:10142800000E00018C6F800E00018D6F3F0E0001D1
:101438008E6F1200720E346E310E356E440E366E9B
:101448008CC037F08DC038F08EC039F09DEC15F0A7
:10145800D8B00ED0000E666E220E656EFF0E00012B
:101468008C6F7F0E00018D6F7F0E00018E6F120052
:101478008CC034F08DC035F08EC036F0490E376E12
:101488003A0E386EC40E396E9DEC15F0D8B00ED0F9
:10149800000E666E220E656E000E00018C6F000E47
:1014A80000018D6F000E00018E6F120000018EAFDB
:1014B80002D0010E01D0000E0001946F000194517A
:1014C8000001D8B40ED08CC019F08DC01AF08EC0AF
:1014D8001BF05BEC19F019C08CF01AC08DF01BC022
:1014E8008EF08CC025F08DC026F08EC027F0AA0E95
:1014F800286EB80E296E3F0E2A6ECEEC12F025C06B
:101508008CF026C08DF027C08EF08CC084F08DC082
:1015180085F08EC086F048EC13F084C08FF085C04B
:1015280090F086C091F08FC040F090C041F091C01B
:1015380042F054EC12F040C092F041C093F08CC0DD
:1015480040F08DC041F08EC042F092C021F093C0AF
:1015580022F0F3EC18F021C043F022C044F023C07D
:1015680045F0B6EC18F040C08CF041C08DF042C098
:101578008EF08CC040F08DC041F08EC042F0670EF6
:10158800436EFE0E446E000E466E090E456E34EC38
:1015980014F040C04CF041C04DF042C04EF092C033
:1015A8004FF093C050F09DEC14F04CC08CF04DC03F
:1015B8008DF04EC08EF0000194510001D8B42BD0AC
:1015C80000018C2913E17F0E00018D190FE17F0EB8
:1015D80000018E19D8A40AD0000E00018C6F000EED
:1015E80000018D6F000E00018E6F1200000E256E37
:1015F800800E266E3F0E276E8CC028F08DC029F015
:101608008EC02AF0C1EC13F025C08CF026C08DF0F6
:1016180027C08EF012008CC08CF08DC08DF08EC06B
:101628008EF0120020EE01F01E50D9261F50DA224B
:10163800DF50206E2050226E236AC7D01EC0D9FF0B
:101648001FC0DAFF020EDE18D8A407D0000E1A6EEB
:10165800550E196E6BEC16F01CD01EC0D9FF1FC0BA
:10166800DAFF030EDE18D8A407D0000E1A6EAA0EF1
:10167800196E6BEC16F00DD01EC0D9FF1FC0DAFF33
:10168800040EDE18D8A405D0000E1A6E19686BEC8B
:1016980016F01EC0D9FF1FC0DAFF010EDF6E120060
:1016A8001EC0D9FF1FC0DAFF030EDE18D8A407D06A
:1016B800000E1A6E550E196E6BEC16F01CD01EC07B
:1016C800D9FF1FC0DAFF040EDE18D8A407D0000E19
:1016D8001A6EAA0E196E6BEC16F00DD01EC0D9FF4B
:1016E8001FC0DAFFDE04D8A406D0000E1A6E550E0D
:1016F800196EADEC16F01EC0D9FF1FC0DAFF020E3E
:10170800DF6E12001EC0D9FF1FC0DAFF040EDE18FC
:10171800D8A407D0000E1A6E550E196E6BEC16F091
:101728001CD01EC0D9FF1FC0DAFFDE04D8A407D022
:10173800000E1A6EAA0E196EADEC16F00ED01EC071
:10174800D9FF1FC0DAFF020EDE18D8A406D0000E9B
:101758001A6E550E196EADEC16F01EC0D9FF1FC0DB
:10176800DAFF030EDF6E12001EC0D9FF1FC0DAFFBA
:10177800DE04D8A406D0000E1A6E1968ADEC16F077
:101788001DD01EC0D9FF1FC0DAFF020EDE18D8A474
:1017980007D0000E1A6EAA0E196EADEC16F00ED018
:1017A8001EC0D9FF1FC0DAFF030EDE18D8A406D06A
:1017B800000E1A6E550E196EADEC16F01EC0D9FF4C
:1017C8001FC0DAFF040EDF6E120022C020F023C013
:1017D80021F02150000AD8A412002050010AD8B4E0
:1017E8002DD7030AD8B45CD7010AD8B48BD7070A17
:1017F800D8A41200B9D70600FACF0BF0FBCF0CF033
:10180800E9CF0DF0EACF0EF0E1CF0FF0E2CF10F004
:10181800D9CF11F0DACF12F0F3CF13F0F4CF14F0E0
:10182800F6CF15F0F7CF16F0F8CF17F0F5CF18F080
:10183800F0B07DD0AAD0020E03D0010E01D0050E63
:101848000101556F050E0FD0040E0101556F000EF2
:101858000AD0010E08D0020E06D0030E04D0040EE2
:1018680002D0030EEDD70001FB6F8FD0060EE8D72C
:10187800000E026E140E016E87EC19F00009D8B440
:1018880052D0000E026E140E016E87EC19F0096E2C
:10189800010E0924036E046A000E0422000E056E70
:1018A80048EC19F0000E026E140E016E87EC19F068
:1018B800096E020E0924036E046A000E0422000E4B
:1018C800056E48EC19F0000E026E140E016E87ECDE
:1018D80019F0096E130E0924036E046A000E04221F
:1018E800000E056E48EC19F0000E026E140E016E23
:1018F80087EC19F0096E140E0924036E046A000EB1
:101908000422000E056E48EC19F0000E046E140E49
:10191800036E000E026E140E016E87EC19F0FC0FB8
:10192800056E48EC19F0070E8BD7080E89D7813859
:101938000F0B0F0B096E0A6A0A50000AD8A425D0AB
:101948000950000AD8B479D7010AD8B478D7030A5D
:10195800D8B47AD7010AD8B47CD7070AD8B481D7C3
:10196800010AD8B483D7030AD8B482D7010AD8B4F5
:1019780072D70F0AD8B4D9D7030AD8B46ED7070AD2
:10198800D8B459D7030AD8B46AD7F09018C0F5FF6D
:1019980017C0F8FF16C0F7FF15C0F6FF14C0F4FF14
:1019A80013C0F3FF12C0DAFF11C0D9FF10C0E2FF65
:1019B8000FC0E1FF0EC0EAFF0DC0E9FF0CC0FBFF3E
:1019C8000BC0FAFF67921100000120EE02F0B65139
:1019D800D926B751DA22DF500001BA6F0001BA5197
:1019E8000001BC6FBD6B000120EE02F0B851D92692
:1019F800B951DA22DF500001BA6F0001BA51000173
:101A0800BE6FBF6B000120EE01F0B651D926B75169
:101A1800DA22DF500001BA6F0001BA510001C06F2D
:101A2800C16B000120EE01F0B851D926B951DA2274
:101A3800DF500001BA6F0001BA510001C26FC36BD9
:101A4800B6C0D9FFB7C0DAFFDF500001BA6F000196
:101A5800BA510001C46FC56BB8C0D9FFB9C0DAFF6D
:101A6800DF500001BA6F0001BA510001C66FC76BA1
:101A7800BCC0A6F0BDC0A7F0CBEC11F0A6C0BAF070
:101A8800A7C0BBF0BEC0A6F0BFC0A7F0CBEC11F05A
:101A98000001A61F0001A71F0001A64BA72B0001EC
:101AA800A6510001BA250001C86F0001A751000125
:101AB800BB210001C96FC0C0A6F0C1C0A7F0CBEC24
:101AC80011F0A6C0BAF0A7C0BBF0C2C0A6F0C3C050
:101AD800A7F0CBEC11F00001A61F0001A71F000121
:101AE800A64BA72B0001A6510001BA250001CA6F19
:101AF8000001A7510001BB210001CB6FC4C0A6F0B3
:101B0800C5C0A7F0CBEC11F0A6C0BAF0A7C0BBF0D7
:101B1800C6C0A6F0C7C0A7F0CBEC11F00001A61F05
:101B28000001A71F0001A64BA72B0001A651000129
:101B3800BA250001CC6F0001A7510001BB210001AB
:101B4800CD6FC8C019F0C9C01AF00E0E1C6E100E69
:101B58001B6E35EC19F019C0BAF01AC0BBF0CAC038
:101B680019F0CBC01AF0000E1C6E3C0E1B6E35EC43
:101B780019F019500001BA271A500001BB230001BF
:101B8800CC510001BA250001B66F0001CD5100010A
:101B9800BB210001B76F120036C03AF03B6A3C6ABD
:101BA80035343A3601E33B803A503F6E39C03AF05B
:101BB8003B6A3C6A38343A3601E33B803A503E6E21
:101BC8003F50D8B40BD03E503F5CD8B00ED03F50F9
:101BD80000083E243A6E180E3A6407D037C034F035
:101BE80038C035F039C036F012003E50D8B40BD0AA
:101BF8003F503E5CD8B00ED03E5000083F243A6EAD
:101C0800180E3A6407D034C034F035C035F036C009
:101C180036F01200060E3D6E36BE3D8E39BE3D8C46
:101C2800358EFF0E3416FF0E3516000E3616388E1A
:101C3800FF0E3716FF0E3816000E39163E503F5C61
:101C4800D8B01BD0D8903736383639363E063F5094
:101C58003E18D8B40DD03D063DC03AF0070E3A16EE
:101C6800D8B406D0EFD7D8903632353234323F2A3E
:101C78003E503F18D8B41FD0F6D73F503E5CD8B07E
:101C88001AD0D8903436353636363F063F503E188F
:101C9800D8B40DD03D063DC03AF0070E3A16D8B478
:101CA80006D0EFD7D8903932383237323E2A3E50F4
:101CB8003F18D8A4F7D73DAE0CD0FF0E341AFF0E4C
:101CC800351AFF0E361A010E3426000E3522000E84
:101CD80036223DAC0CD0FF0E371AFF0E381AFF0E15
:101CE800391A010E3726000E3822000E3922000E4E
:101CF8003D6E34503726355038223650392239AEA9
:101D08000ED0FF0E371AFF0E381AFF0E391A010EC1
:101D18003726000E3822000E3922010E3D6E37C0DC
:101D280019F038C01AF039C01BF03FC01CF03DC094
:101D38001DF0FEEC14F019C034F01AC035F01BC0C9
:101D480036F01200000E0001A16F0001955100014C
:101D5800961100019711D8A41ED0000E346E000E03
:101D6800356E000E366E98C037F099C038F09AC0BC
:101D780039F09DEC15F0D8A004D0000E666E210E47
:101D8800656E000E0001956F000E0001966F000E43
:101D98000001976F1200000198510001991100018C
:101DA8009A11D8A40AD0000E0001956F800E000188
:101DB800966F3F0E0001976F1200000197AF48D051
:101DC80098C040F099C041F09AC042F054EC12F02B
:101DD80040C0A2F041C0A3F042C0A4F043C0A5F0A7
:101DE800A2C021F0A3C022F0A4C023F0A5C024F013
:101DF800A2EC17F000019851211809E1000199514E
:101E0800221805E100019A512318D8B40ED0000E0B
:101E1800666E210E656E000E0001956F000E0001C2
:101E2800966F000E0001976F12000001A251010B7E
:101E38000001A16F95C019F096C01AF097C01BF069
:101E48005BEC19F019C095F01AC096F01BC097F01A
:101E580095C04CF096C04DF097C04EF024EC10F0B1
:101E68004CC09BF04DC09CF04EC09DF09BC025F02F
:101E78009CC026F09DC027F098C028F099C029F092
:101E88009AC02AF0CEEC12F025C09EF026C09FF032
:101E980027C0A0F09EC08CF09FC08DF0A0C08EF02F
:101EA8000CEC0AF08CC095F08DC096F08EC097F0BF
:101EB8000001A1510001D8B40FD095C019F096C007
:101EC8001AF097C01BF05BEC19F019C095F01AC016
:101ED80096F01BC097F0120095C095F096C096F04A
:101EE80097C097F01200B8EC19F0000E1B6ED00ED8
:101EF8001A6EAFEC19F0000E1B6E000E1A6EAFECE6
:101F080019F0B4EC19F0B8EC19F0000E1B6ED10EF4
:101F18001A6EAFEC19F0000E0001EF6F050E00010C
:101F2800EF6501D012D00001EF51010DF35000010F
:101F3800EA25D96EF4500001EB21DA6E010E22EC8D
:101F480019F0DF6E0001EF2BE9D7000120EE06F053
:101F5800EA51D926EB51DA22000E22EC19F0DF6E95
:101F6800B4EC19F0800EA9EC19F0BB0E0001CE6F8D
:101F7800FE0E0001CF6F000120EE05F0EA51D926D0
:101F8800EB51DA22DF500001EC6F0001EC51000147
:101F9800D06FD16B000120EE04F0EA51D926EB5145
:101FA800DA22DF500001ED6F0001ED510001D26F20
:101FB800D36B000120EE06F0EA51D926EB51DA2264
:101FC800DF500001EE6F0001EE510001D46FD56BB8
:101FD80015EC07F0C00EA9EC19F0D20E0001CE6F77
:101FE800FE0E0001CF6F000120EE02F0EA51D92663
:101FF800EB51DA22DF500001EC6F0001EC510001D7
:10200800D06FD16B000120EE01F0EA51D926EB51D7
:10201800DA22DF500001ED6F0001ED510001D26FAF
:10202800D36BEAC0D9FFEBC0DAFFDF500001EE6FD7
:102038000001EE510001D46FD56B15EC07F01200CA
:102048004EAE0BD0000E666E210E656E000E4C6E05
:10205800000E4D6E000E4E6E12004C504D104E107C
:10206800D8A40BD0000E666E220E656E000E4C6E64
:10207800000E4D6E000E4E6E1200000E286E000E01
:10208800296E400E2A6E4F0E1C6E000E1D6E4CC03F
:1020980019F04DC01AF04EC01BF055EC15F019C0E0
:1020A80025F01AC026F01BC027F0CEEC12F025C090
:1020B80034F026C035F027C036F0000E376E800E9B
:1020C800386EBF0E396ED0EC0DF034C04CF035C010
:1020D8004DF036C04EF04F06D8A050064CC040F028
:1020E8004DC041F04EC042F0850E436EFE0E446E68
:1020F800000E466E080E456E34EC14F040C04CF0ED
:1021080041C04DF042C04EF0720E286E310E296E5D
:102118003F0E2A6E4FC021F050C022F0F3EC18F0A9
:1021280021C025F022C026F023C027F0CEEC12F003
:1021380025C034F026C035F027C036F04CC037F043
:102148004DC038F04EC039F0D0EC0DF034C04CF032
:1021580035C04DF036C04EF01200B8EC19F0000E44
:102168001B6EE00E1A6EAFEC19F0000E1B6E800E9F
:102178001A6EAFEC19F0000E1B6E040E1A6EAFEC5F
:1021880019F0B4EC19F0B8EC19F0000E1B6E520EF1
:102198001A6EAFEC19F0000E1B6E800E1A6EAFECC3
:1021A80019F0000E1B6E030E1A6EAFEC19F0B4ECAA
:1021B80019F0B8EC19F0000E1B6E520E1A6EAFEC47
:1021C80019F0000E1B6EB40E1A6EAFEC19F0B8ECD5
:1021D80019F0000E1B6E530E1A6EAFEC19F020EEBC
:1021E80001F02250D9262350DA22010E22EC19F0F0
:1021F800DF6E010E22EC19F022C0D9FF23C0DAFFEE
:10220800DF6E20EE01F01C50D9261D50DA22010E97
:1022180022EC19F0DF6E010E22EC19F01CC0D9FF78
:102228001DC0DAFFDF6E20EE01F01E50D9261F50C8
:10223800DA22010E22EC19F0DF6E010E22EC19F001
:102248001EC0D9FF1FC0DAFFDF6E20EE01F020505C
:10225800D9262150DA22010E22EC19F0DF6E000E89
:1022680022EC19F020C0D9FF21C0DAFFDF6EB4ECF0
:1022780019F01200B8EC19F0000E1B6EE00E1A6E81
:10228800AFEC19F0000E1B6E800E1A6EAFEC19F051
:10229800000E1B6E800E1A6EAFEC19F0B4EC19F03C
:1022A800B8EC19F0000E1B6E520E1A6EAFEC19F056
:1022B800000E1B6E800E1A6EAFEC19F0000E1B6E2E
:1022C800030E1A6EAFEC19F0B4EC19F0B8EC19F073
:1022D800000E1B6E520E1A6EAFEC19F0000E1B6E3C
:1022E800B40E1A6EAFEC19F0B8EC19F0000E1B6EB4
:1022F800530E1A6EAFEC19F020EE01F02250D926D9
:102308002350DA22010E22EC19F0DF6E010E22ECC6
:1023180019F022C0D9FF23C0DAFFDF6E20EE01F0EA
:102328001C50D9261D50DA22010E22EC19F0DF6E5E
:10233800010E22EC19F01CC0D9FF1DC0DAFFDF6EB8
:1023480020EE01F01E50D9261F50DA22010E22EC91
:1023580019F0DF6E010E22EC19F01EC0D9FF1FC064
:10236800DAFFDF6E20EE01F02050D9262150DA2264
:10237800010E22EC19F0DF6E000E22EC19F020C0DD
:10238800D9FF21C0DAFFDF6EB4EC19F01200000E9D
:102398000001B16F000EB06FA6C0B4F0A7C0B5F0D1
:1023A800000E0001B36F000EB26F6FD00F0E000168
:1023B800B4150001AE6F0001AF6BB0C021F0B1C021
:1023C80022F0F3EC18F021C0A8F022C0A9F023C035
:1023D800AAF0A8C098F0A9C099F0AAC09AF0000E77
:1023E8000001956F200E0001966F410E0001976F56
:1023F800A6EC0EF095C0ABF096C0ACF097C0ADF06F
:10240800ABC028F0ACC029F0ADC02AF0AEC021F0B6
:10241800AFC022F0F3EC18F021C025F022C026F05E
:1024280023C027F0CEEC12F025C037F026C038F0D4
:1024380027C039F0B2C021F0B3C022F0F3EC18F095
:1024480021C034F022C035F023C036F0D0EC0DF0B6
:1024580034C040F035C041F036C042F054EC12F0C0
:1024680040C0B2F041C0B3F0B4C019F0B5C01AF022
:10247800000E1C6E100E1B6E29EC16F019C0B4F07D
:102488001AC0B5F00001B04BB12B0001B4510001E6
:10249800B511D8A48BD7B2C0A6F0B3C0A7F012006C
:1024A80042C044F0456A466A4134443601E34580F7
:1024B80044504E6E4E50D8A409D0000E406E000E07
:1024C800416E000E426E000E436E1200170E446EEF
:1024D80040C045F041C046F042C047F04428486E2D
:1024E80004D0D890473246324532482EFAD7455064
:1024F800496E418EFF0E4016FF0E4116000E421621
:1025080040504A6E41504B6E42504C6E4D6A8E0E92
:102518004E5E4EAE16D04E50800A8F0FD8B009D0FE
:10252800000E406E000E416E000E426E000E436EAD
:102538001200D8904D324C324B324A324E3EF9D7C7
:1025480015D0170E4E640FD0000E406E000E416E6F
:10255800000E426E000E436E1200D8904A364B367B
:102568004C364D364E064E50D8A4F7D74950D8B4FD
:1025780008D04D1E4C1E4B1E4A6C000E4B224C229E
:102588004D224AC040F04BC041F04CC042F04DC013
:1025980043F0120027C02BF02C6A2D6A26342B3604
:1025A80001E32C802B502E6E2E50D8A407D0000E9D
:1025B800256E000E266E000E276E12002AC02BF024
:1025C8002C6A2D6A29342B3601E32C802B50336E6C
:1025D8003350D8A407D0000E256E000E266E000ECC
:1025E800276E120033507B0F2E2627C033F02A5057
:1025F800331A800E3316268E298EFF0E2816FF0EEC
:102608002916000E2A16000E2F6E000E306E000ED0
:10261800316E070E326E25A006D028502F2629507D
:1026280030222A503122D890273226322532D890AB
:10263800283629362A36322EEED7090E326E25A0D4
:1026480006D028502F26295030222A503122D890DF
:10265800273226322532D890313230322F32322E7C
:10266800EED72FC019F030C01AF031C01BF02EC0C1
:102678001CF033C01DF0FEEC14F019C025F01AC090
:1026880026F01BC027F0120084C019F085C01AF08C
:1026980086C01BF08A0E1C6E000E1D6E55EC15F0E0
:1026A80000018BAF17D0000186AF0AD0000E0001E1
:1026B800846F800E0001856FBF0E0001866F1200C7
:1026C800000E0001846F000E0001856F000E0001EE
:1026D800866F120000018B5105E1150E00018A5D1D
:1026E800D8A007D084C084F085C085F086C086F065
:1026F800120084C040F085C041F086C042F054EC1E
:1027080012F040C04FF041C050F042C051F043C0F9
:1027180052F0E5EC15F04FC087F050C088F051C07A
:1027280089F084C034F085C035F086C036F087C0A3
:1027380037F088C038F089C039F09DEC15F0D8B072
:1027480015D087C034F088C035F089C036F0000E47
:10275800376E800E386EBF0E396ED0EC0DF034C077
:1027680084F035C085F036C086F0120087C084F04A
:1027780088C085F089C086F0120027C02BF02C6A2B
:102788002D6A26342B3601E32C802B50326E3250C2
:10279800D8A407D0000E256E000E266E000E276EF8
:1027A80012002AC02BF02C6A2D6A29342B3601E33B
:1027B8002C802B50336E3350D8A407D0000E256ED2
:1027C800000E266E000E276E1200000E2F6E000EF1
:1027D800306E000E316E3350890F325E27C033F0F1
:1027E8002A50331A800E3316268EFF0E2516FF0E3A
:1027F8002616000E2716298EFF0E2816FF0E2916FC
:10280800000E2A16180E2E6ED8902F363036313616
:102818002850255C295026582A502758D8A007D078
:102828002850255E2950265A2A50275A2F80D8909A
:102838002536263627362E2EE7D72FC019F030C07A
:102848001AF031C01BF032C01CF033C01DF0FEEC92
:1028580014F019C025F01AC026F01BC027F012008A
:1028680045C019F046C01AF0000E1C6E030E1B6E10
:1028780035EC19F043C047F044C048F019504726DA
:102888001A50482247C0F6FF48C0F7FF0900F5CFA5
:1028980049F00900F5CF4AF00A00F5CF4BF03ED0D9
:1028A80049C028F04AC029F04BC02AF040C025F0A2
:1028B80041C026F042C027F0CEEC12F025C034F01B
:1028C80026C035F027C036F0000E1C6E030E1B6EB6
:1028D8004506D8A0460645C019F046C01AF035ECA2
:1028E80019F043C047F044C048F0195047261A5021
:1028F800482247C0F6FF48C0F7FF0900F5CF37F078
:102908000900F5CF38F00A00F5CF39F0D0EC0DF01A
:1029180034C049F035C04AF036C04BF04550461037
:10292800D8A4BED749C040F04AC041F04BC042F0DD
:1029380012004C504D104E10D8A407D0000E4C6E0B
:10294800000E4D6E000E4E6E12004E507F0B516EF3
:10295800526AD8905136523651504F265250502212
:102968004DAE03D0516A512A01D0516A51504F26B9
:10297800000E502250AE0BD0000E666E220E656E11
:10298800000E4C6E000E4D6E000E4E6E120050BEC4
:1029980015D05004D8A012D0000E666E220E656EB7
:1029A8004EAE06D0FF0E4C6E7F0E4D6EFF0EEDD76D
:1029B800FF0E4C6E7F0E4D6E7F0EE7D750345030B1
:1029C800526E4F30516E4E505118800B51184E6E4A
:1029D8004FC051F0010E5116513251324D5051181D
:1029E8007F0B51184D6E4CC04CF04DC04DF04EC091
:1029F8004EF012001C50D8B405D019501A101B10F4
:102A0800D8A40CD0000E196E000E1A6E000E1B6EA4
:102A180012001C2AD8901B321A321932000E1914CF
:102A28001E6E000E1A141F6EFE0E1B14206E1E5012
:102A38001F102010D8B40CD0ECD71C2A010E192670
:102A4800000E1A22000E1B22D8901B321A3219329D
:102A5800000E19141E6E000E1A141F6EFF0E1B14A2
:102A6800206E1E501F102010D8B406D0E6D71C06C2
:102A7800D89019361A361B361ABE03D0020E1C60BF
:102A8800F6D71CA01A9ED8901C321C501B121D5041
:102A9800D8A41B8E19C019F01AC01AF01BC01BF05D
:102AA800120019501A101B10D8A40FD01CC0D9FF3F
:102AB8001DC0DAFF000EDE6E000EDD6E000E196E10
:102AC800000E1A6E000E1B6E12001B507F0B1E6E3E
:102AD8001F6AD8901E361F361CC0D9FF1DC0DAFFEA
:102AE8001EC0DEFF1FC0DDFF1AAE03D01E6A1E2AFD
:102AF80001D01E6A1E501CC0D9FF1DC0DAFFDE12AD
:102B0800000EDD121CC0D9FF1DC0DAFF820EDE26C2
:102B1800FF0EDD221B801B821B841B861B881B8AE1
:102B28001B9C1A9E19C019F01AC01AF01BC01BF082
:102B3800120036AE16D034C03AF035C03BF036C07D
:102B48003CF03A1E3B1E3C1E3A2A000E3B223C2219
:102B5800000E3A24346E000E3B20356E800E3C2069
:102B6800366E39AE16D037C03AF038C03BF039C0AF
:102B78003CF03A1E3B1E3C1E3A2A000E3B223C22E9
:102B8800000E3A24376E000E3B20386E800E3C2033
:102B9800396E000E341A000E351A800E361A000EE1
:102BA800371A000E381A800E391A3750345C3850EC
:102BB800355839503658D8B002D0D8901200D8803D
:102BC8001200000E546E8E0E536E52AE11D0521E6D
:102BD800511E501E4F6C000E502251225222010EDF
:102BE800546E06D0D8905232513250324F32532A56
:102BF800000E4F140001806F000E50140001816F09
:102C0800000E51140001826FFF0E52140001836FF1
:102C1800000180510001811100018211000183111E
:102C2800D8A4E0D74FC019F050C01AF051C01BF01B
:102C380053C01CF054C01DF0FEEC14F019C04FF046
:102C48001AC050F01BC051F01200000E1E6E1CAED0
:102C580006D01B6C1C1ED8B01C2A010E1E6E1AAEA4
:102C680006D0196C1A1ED8B01A2A010E1E1A000EA8
:102C7800206E000E1F6E1B501C10D8B41CD0010E05
:102C88001D6E04D0D8901B361C361D2A1CAEFAD7F0
:102C9800D8901F3620361B50195C1C501A58D8A0E3
:102CA80005D01B50195E1C501A5A1F80D8901C3230
:102CB8001B321D2EEDD71E50D8B404D01F6C201E19
:102CC800D8B0202A1FC019F020C01AF01200000E38
:102CD8001D6E000E1C6E32D0829082928284828A8F
:102CE800110E1B6E3A0EE82EFED71B2EFCD700D015
:102CF800829082828284829A110E1B6E3A0EE82E8E
:102D0800FED71B2EFCD700D0828082828284829AD2
:102D1800110E1B6E3A0EE82EFED71B2EFCD700D0E4
:102D2800828082928294828A110E1B6E3A0EE82E5D
:102D3800FED71B2EFCD700D01C4A1D2A19501C5C3C
:102D48001D50800A1B6E1A50800A1B58D8B01200FA
:102D5800C3D7000E1D6E000E1C6E32D08280828298
:102D68008294829A110E1B6E3A0EE82EFED71B2E05
:102D7800FCD700D0829082828284829A110E1B6EC8
:102D88003A0EE82EFED71B2EFCD700D082908292F6
:102D98008284828A110E1B6E3A0EE82EFED71B2EF5
:102DA800FCD700D0828082928294828A110E1B6E98
:102DB8003A0EE82EFED71B2EFCD700D01C4A1D2A3F
:102DC80019501C5C1D50800A1B6E1A50800A1B5833
:102DD800D8B01200C3D7000E216E000E226E000E6E
:102DE800236E000E246E1D501E101F102010D8B424
:102DF8002AD0010E256E06D0D8901D361E361F36F5
:102E08002036252A20AEF8D7D89021362236233608
:102E180024361D50195C1E501A581F501B5820503C
:102E28001C58D8A009D01D50195E1E501A5A1F50A0
:102E38001B5A20501C5A2180D89020321F321E3233
:102E48001D32252EE1D721C019F022C01AF023C067
:102E58001BF024C01CF0120084928480800EA9EC20
:102E680019F0AA0E0001CE6FFF0E0001CF6F15EC0E
:102E780007F0C00EA9EC19F0330E0001CE6FFF0E5B
:102E88000001CF6F15EC07F0050E0101556F000129
:102E980020EE01F0EA51D926EB51DA22010EDF6E5D
:102EA800EAC01EF0EBC01FF016EC0BF0070E000195
:102EB800ED6F580E0001EC6F590EE82EFED7EC2F7F
:102EC800FCD7ED2FFAD700D01200B8EC19F0000E9D
:102ED8001B6ED00E1A6EAFEC19F0000E1B6E000EB2
:102EE8001A6EAFEC19F0B4EC19F0B8EC19F0000E4A
:102EF8001B6ED10E1A6EAFEC19F0000E1E6E050E89
:102F08001E6401D00ED01E50010DF3501C24D96E42
:102F1800F4501D20DA6E010E22EC19F0DF6E1E2A25
:102F2800EED720EE06F01C50D9261D50DA22000EEE
:102F380022EC19F0DF6EB4EC19F012008E0E296E37
:102F480006D0D8902432233222322132292A000E88
:102F58002114256E000E2214266E000E2314276EEF
:102F6800FF0E2414286E2550261027102810D8A4E8
:102F7800E8D721C019F022C01AF023C01BF029C0DD
:102F88001CF0000E1D6EFEEC14F019C021F01AC0E2
:102F980022F01BC023F01200000EC76E280EC66E6A
:102FA800000EC56E800E196E960E1A6E980E1B6E68
:102FB800000E1C6E26C02AF027C02BF028C02CF06B
:102FC80029C02DF0020ED8902A362B362C362D36F5
:102FD800E82EF9D72AC01DF02BC01EF02CC01FF018
:102FE8002DC020F0EFEC16F01904C86E9486948872
:102FF8001200000E1F6E000E1E6E1B501C10D8B45F
:103008001CD0010E1D6E04D0D8901B361C361D2A0C
:103018001CAEFAD7D8901E361F361B50195C1C50B0
:103028001A58D8A005D01B50195E1C501A5A1E8079
:10303800D8901C321B321D2EEDD71EC019F01FC0B0
:103048001AF012001A6E1A50F00B196E8C500F0BF2
:103058008C6E19508C108C6E8C96190EE82EFED73B
:103068008C86190EE82EFED71A38F00B1A6E1A50F5
:10307800F00B196E8C500F0B8C6E19508C108C6ED7
:103088008C96190EE82EFED78C86190EE82EFED7E0
:103098001200800EA9EC19F0BB0E0001CE6FFF0ED6
:1030A8000001CF6F15EC07F0C00EA9EC19F0FD0E6A
:1030B8000001CE6FFE0E0001CF6FECC0B6F0EDC080
:1030C800B7F0EAC0B8F0EBC0B9F0E8EC0CF0B6C065
:1030D800D0F0B7C0D1F015EC07F01200310E1C6E1D
:1030E800B20EE82EFED71C2EFCD700D0330EA9EC6A
:1030F80019F0320EA9EC19F0280EA9EC19F00F0EF0
:10310800A9EC19F0060EA9EC19F0010EA9EC19F0BA
:10311800310E1C6EB20EE82EFED71C2EFCD700D046
:10312800120022502310D8B418D0010E246E04D0F7
:10313800D89022362336242A23AEFAD72250205C90
:1031480023502158D8A004D02250205E2350215A61
:10315800D89023322232242EF1D720C020F021C06B
:1031680021F01200435044104510D8B406D0000E88
:10317800431A000E441A800E451A40C034F041C06C
:1031880035F042C036F043C037F044C038F045C08F
:1031980039F0D0EC0DF034C040F035C041F036C005
:1031A80042F01200360EF66E330EF76E000EF86E11
:1031B80000EE55F010EE10F00900F5CFEEFFE550E7
:1031C800E150FAE10101556B0001FB6B666A656A23
:1031D80067906792000EF86E0001D9EF04F0000EB8
:1031E800246E22AE06D0216C221ED8B0222A010EEF
:1031F800246E21C019F022C01AF01B6A8E0E1C6EB4
:1032080024C01DF0FEEC14F019C021F01AC022F001
:103218001BC023F012001C50AA6E1BC0A9FF1DC0C2
:10322800A8FFA69EA69CA684550EA76EAA0EA76EFA
:10323800A682A1A8FED7A198A69412001A6E92ECB5
:1032480019F0C58692EC19F0C9CF1BF092EC19F071
:103258001A50D8A402D0C58A01D0C59AC5881B5077
:10326800120019501B02F3CF1DF0F4CF1EF01950B5
:103278001C02F3501E261A501B02F3501E261DC0B6
:1032880019F01EC01AF012000450AA6E03C0A9FF5C
:1032980005C0A8FFA69EA69CA684550EA76EAA0EDA
:1032A800A76EA682A1A8FED7A198A69412001950CD
:1032B8001A101B10D8B406D0000E191A000E1A1ACC
:1032C800800E1B1A19C019F01AC01AF01BC01BF087
:1032D80012001B6E000E1A6E3A0E1B6005D02F0EE0
:1032E8001B6402D0010E1A6E1AC019F019301200B0
:1032F8001A50AA6E19C0A9FFA69EA69CA680A6B0C1
:10330800FED7A85012000250AA6E01C0A9FFA69EBF
:10331800A69CA680A6B0FED7A8501200C7B4FED7B8
:10332800C5CF19F01F0E1916D8B41200F7D700012F
:1033380002030405060708090A0B0C0D0E0F1B6E85
:103348008C841B5026EC18F012001B6E8C941B50BA
:1033580026EC18F0120092EC19F01AC0C9FF1200FE
:1033680092EC19F0C584120092EC19F0C580120095
:10FE3C00003132334134353642373839432A302396
:10FE4C00440001000A006400E803102701001000C0
:10FE5C00000100103035170210041700803F72317A
:10FE6C003FFE753E58633D951D3CC5AE3A79213930
:10FE7C0094803793A73556153400000000803FF06E
:10FE8C00FFBEE2A93E8376BEAE2B3E3CC3BDD21371
:10FE9C003D78D3BB5072657373203120746F206230
:10FEAC006567696E206F7065726174696F6E00446E
:10FEBC006174653A20253032782F253032782F2521
:10FECC0030327820200054696D653A202530327824
:10FEDC003A253032783A2530327820200025757C4E
:10FEEC0025757C25757C2575202020202020202040
:10FEFC000054696D653A202569732020202020204C
:10FF0C002020200025757C25757C25757C25757C2D
:10FF1C0025757C2575003031323334353637383918
:10FF2C006162636465660020202020202020202050
:10FF3C002020202020202000536176656420202082
:10FF4C0020202020202020200044656C65746564EE
:10FF5C0020202020202020202000436F756E743A32
:10FF6C002025752020202020202000546F74616CE7
:10FF7C0020426F74746C652020202000594F502053
:10FF8C005769746820436170202020200045534B32
:10FF9C0041205769746820436170202020004F7005
:10FFAC0065726174696F6E20446F6E652120005418
:10FFBC006F74616C204F7065726174696F6E200094
:10FFCC00594F502057697468204E6F204361702040
:10FFDC000045534B412057697468204E6F20436194
:10FFEC0070005920207C596E637C4520207C456E26
:03FFFC006300009F
:020000040020DA
:08000000FFFFFFFFFFFFFFFF00
:020000040030CA
:0E000000FF021F1EFF8381FF0FC00FE00F40A5
:00000001FF
