:0400000007EF00F016
:100008006F8261ED0EF04EEF15F0C5C014F0C6C05A
:1000180015F0A9EC13F0C7C014F0C8C015F0A9EC8E
:1000280013F0010EE5EC15F0EAEC14F0CBC0D9FFA3
:10003800CCC0DAFF010EDF6E000120EE01F0CB51DB
:10004800D926CC51DA22010EDF6ED50E146E000EC1
:10005800156EA9EC13F0000E0001E06F000EDF6FC3
:100068000001E0BF08D00001E0511BE1040E0001CF
:10007800DF5DD8B016D00001DF510001C925D96E67
:100088000001E0510001CA21DA6E000EDF6E0001A6
:10009800DF4BE02B0001E0BFEED70001E05101E1AA
:1000A800E5D7848284804ED3C7C014F0C8C015F049
:1000B800A9EC13F0E10E146E000E156EE30E166E29
:1000C800000E176EE50E186E000E196EE70E1A6E0A
:1000D800000E1B6E4EEC0DF00001E251E1C0CDF0B8
:1000E8000001CE6BCDC0CEF00001CD6B0001CD116B
:1000F8000001ED6F0001CE510001EE6F0001E451E7
:10010800E3C0CDF00001CE6BCDC0CEF00001CD6BC9
:100118000001CD110001E96F0001CE510001EA6F25
:100128000001E651E5C0CDF00001CE6BCDC0CEF0A8
:100138000001CD6B0001CD110001EF6F0001CE5120
:100148000001F06F0001E851E7C0CDF00001CE6B6F
:10015800CDC0CEF00001CD6B0001CD110001CF6FF5
:100168000001CE510001D06FE10E146E000E156E25
:10017800E30E166E000E176EE50E186E000E196E61
:10018800E70E1A6E000E1B6EC1EC0CF00001E25176
:10019800E1C0CDF00001CE6BCDC0CEF00001CD6B3B
:1001A8000001CD110001F16F0001CE510001F26F85
:1001B8000001E451E3C0CDF00001CE6BCDC0CEF01C
:1001C8000001CD6B0001CD110001EB6F0001CE5194
:1001D8000001EC6F0001E651E5C0CDF00001CE6BE7
:1001E800CDC0CEF00001CD6B0001CD110001F36F41
:1001F8000001CE510001F46F0001E851E7C0CDF0D5
:100208000001CE6BCDC0CEF00001CD6B0001CD1149
:100218000001D16F0001CE510001D26F080E206E8F
:10022800CA0E216E3F0E226EEBC019F0ECC01AF018
:100238006BEC15F019C01DF01AC01EF01BC01FF0A2
:1002480059EC0FF01DC02FF01EC030F01FC031F068
:100258003A0E206EA60E216EBE0E226EF1C019F067
:10026800F2C01AF06BEC15F019C01DF01AC01EF0A0
:100278001BC01FF059EC0FF01DC02CF01EC02DF054
:100288001FC02EF08BEC08F02CC0DCF02DC0DDF088
:100298002EC0DEF05E0E206E3B0E216EBF0E226E6B
:1002A800F3C019F0F4C01AF06BEC15F019C01DF08A
:1002B8001AC01EF01BC01FF059EC0FF01DC02FF024
:1002C8001EC030F01FC031F0DCC02CF0DDC02DF0B6
:1002D800DEC02EF08BEC08F02CC038F02DC039F0C1
:1002E8002EC03AF0DFEC0EF038C0D3F039C0D4F0AD
:1002F800800EE5EC15F0660E0001AF6FFF0E0001F1
:10030800B06FEDC0B1F0EEC0B2F0E9C0B3F0EAC032
:10031800B4F0EFC0B5F0F0C0B6F0C6EC03F0C00E14
:10032800E5EC15F0660E0001AF6FFF0E0001B06F2F
:10033800F1C0B1F0F2C0B2F0EBC0B3F0ECC0B4F071
:10034800F3C0B5F0F4C0B6F0C6EC03F0CD0E1D6EE8
:10035800CC0E1E6E3F0E1F6EEFC013F0F0C014F0EF
:10036800EDC011F0EEC012F066EC12F011C019F0F9
:1003780012C01AF06BEC15F019C020F01AC021F069
:100388001BC022F01EEC12F0D8B01FD00001EB51B8
:100398000001F1250001CD6F0001EC510001F221AF
:1003A8000001CE6F0001F3510001CD270001F45187
:1003B8000001CE230001CEBF08D0650E0001CD5D3F
:1003C800190E0001CE59D8B03FD0CD0E1D6ECC0EFF
:1003D8001E6E3F0E1F6EF3C013F0F4C014F0F1C090
:1003E80011F0F2C012F066EC12F011C019F012C050
:1003F8001AF06BEC15F019C020F01AC021F01BC0E0
:1004080022F01EEC12F0D8B04AD00001E9510001E8
:10041800ED250001CD6F0001EA510001EE21000138
:10042800CE6F0001EF510001CD270001F05100010E
:10043800CE230001CEBF33D0590E0001CD5D1B0E77
:100448000001CE59D8A02BD0000120EE01F0CB51ED
:10045800D926CC51DA22010EDF6ECBC016F0CCC003
:1004680017F0A0EC07F08490C9C0D9FFCAC0DAFF22
:10047800DF2A040E0001CE6F2C0E0001CD6FAB0EEB
:10048800E82EFED7CD2FFCD7CE2FFAD700D0848008
:10049800D50E146E000E156EA9EC13F045D10001AF
:1004A800E9510001ED250001CD6F0001EA5100017D
:1004B800EE210001CE6F0001EF510001CD270001B0
:1004C800F0510001CE230001CEBF08D0590E000123
:1004D800CD5D1B0E0001CE59D8B01FD00001EB51E5
:1004E8000001F1250001CD6F0001EC510001F2215E
:1004F8000001CE6F0001F3510001CD270001F45136
:100508000001CE230001CEBF36D0650E0001CD5DBF
:10051800190E0001CE59D8A02ED0000120EE01F00E
:10052800CB51D926CC51DA22020EDF6ECBC016F0A1
:10053800CCC017F0A0EC07F08490000120EE01F089
:10054800C951D926CA51DA22DF2A040E0001CE6F1A
:100558002C0E0001CD6FAB0EE82EFED7CD2FFCD7A9
:10056800CE2FFAD700D08480D50E146E000E156EEB
:10057800A9EC13F0D9D0000E1D6EA00E1E6E3F0E12
:100588001F6EEDC013F0EEC014F0EFC011F0F0C014
:1005980012F066EC12F011C019F012C01AF06BECF0
:1005A80015F019C020F01AC021F01BC022F01EEC73
:1005B80012F0D8A020D0000E1D6EA00E1E6E3F0EA9
:1005C8001F6EF1C013F0F2C014F0F3C011F0F4C0C4
:1005D80012F066EC12F011C019F012C01AF06BECB0
:1005E80015F019C020F01AC021F01BC022F01EEC33
:1005F80012F0D8B02ED0000120EE01F0CB51D92650
:10060800CC51DA22030EDF6ECBC016F0CCC017F047
:10061800A0EC07F08490000120EE02F0C951D92621
:10062800CA51DA22DF2A070E0001CE6F580E0001E8
:10063800CD6F590EE82EFED7CD2FFCD7CE2FFAD787
:1006480000D08480D50E146E000E156EA9EC13F040
:100658006BD00001E9510001ED250001CD6F0001CB
:10066800EA510001EE210001CE6F0001EF510001B7
:10067800CD270001F0510001CE230001CEBF08D0E4
:10068800110E0001CD5D0E0E0001CE59D8B01FD05D
:100698000001EB510001F1250001CD6F0001EC5183
:1006A8000001F2210001CE6F0001F3510001CD27B6
:1006B8000001F4510001CE230001CEBF35D0110E48
:1006C8000001CD5D0E0E0001CE59D8A02DD000013D
:1006D80020EE01F0CB51D926CC51DA22040EDF6E80
:1006E800CBC016F0CCC017F0A0EC07F08490000146
:1006F80020EE03F0C951D926CA51DA22DF2A070EA3
:100708000001CE6F580E0001CD6F590EE82EFED7AE
:10071800CD2FFCD7CE2FFAD700D08480D50E146EFB
:10072800000E156EA9EC13F00D0E0001CE6FAF0E82
:100738000001CD6FB60EE82EFED7CD2FFCD7CE2FF9
:10074800FAD700F0020E01012B19D8B417D0C7C090
:1007580099F0C8C09AF0D50E00019B6F000E0001F9
:100768009C6F61EC09F000019ABF9ED400019A5178
:1007780005E1140E0001995DD8A096D4020E01017E
:100788002B6F1200B10E0001BC6F000E0001BD6F8F
:10079800D1D1250E0001C419D8B405D00001C45127
:1007A800DFEC15F0C7D1000E0001C36F000EC26F59
:1007B800000E0001C16F05D00001C1850001AF4BDB
:1007C800B02BAFC0F6FFB0C0F7FF0800F550300AF5
:1007D800D8B4F2D7AFC0F6FFB0C0F7FF0800F550A5
:1007E800BFEC15F0D8A047D0000E0001C36F000E73
:1007F800C26FC2C011F0C3C012F0000E146E0A0E10
:10080800136E9AEC15F011C0C2F012C0C3F0D00EEE
:100818000001B76FFF0E0001B86FAFC0F6FFB0C0A0
:10082800F7FF0800F5500001B96FBA6B0001B75126
:100838000001B9270001B8510001BA230001B951DC
:100848000001C2270001BA510001C3230001AF4BC8
:10085800B02BAFC0F6FFB0C0F7FF0800F550BFECF3
:1008680015F0D8A008D0C5D70001C18F20D0C00E80
:100878000001C1131CD0AFC0F6FFB0C0F7FF0001E4
:10088800AF4BB02B0800F5CFC4F00001C451000AEB
:10089800D8B41200640AD8B40AD00D0AD8B407D064
:1008A8001C0AD8B4E4D70D0AD8B4DED743D1C1C0E6
:1008B800B7F0C00E0001B717D8A419D0BCC0D9FF33
:1008C800BDC0DAFFDECFBFF0DDCFC0F0020E000101
:1008D800BC27000EBD230001C0AF53D0030E00019A
:1008E800C1130001BF6DC01FD8B0C02B4AD0BCC017
:1008F800D9FFBDC0DAFFDECFBFF0DDCFC0F0020EFA
:100908000001BC27000EBD233CD0010E0001C46FBE
:10091800050E0001C419D8B440D00001C451020D1D
:10092800960EF324F66EFE0EF420F76E0900F550CD
:100938000001BF5D0900F5500001C059D8A02DD0B5
:100948000001C42BE5D7010E0001C46F040E00019D
:10095800C419D8B422D00001C451020DA00EF3244A
:10096800F66EFE0EF420F76E0900F5500001BF5D2B
:100978000900F5500001C059D8A00FD00001C42BC0
:10098800E5D70001C151C00B000AD8B4BED7800A10
:10099800D8B4D9D7400AD8B4B8D70001C251000199
:1009A800C311D8B40BD0C1C0B7F0030E0001B717FC
:1009B800D8B404D00001C207D8A0C307800E000134
:1009C800C4BF7F0E0001B76F0001C2510001C45DB2
:1009D8000001C351800A0001B759D8B00BD00001FB
:1009E800C4510001C25F000E0001C4BFFF0E000128
:1009F800C35B05D0000E0001C36F000EC26F00017B
:100A0800C1A518D0C1C0B7F0030E0001B717D8B4FC
:100A180003D02D0EDFEC15F00001C2510001C31107
:100A2800D8B425D0300EDFEC15F00001C207D8A0ED
:100A3800C307F2D70001C2510001C311D8B40DD0C9
:100A4800200EDFEC15F00001C207D8A0C307000193
:100A5800C2510001C311D8A4F3D7C1C0B7F0030E27
:100A68000001B717D8B403D02D0EDFEC15F0C4C0C1
:100A7800BEF05AD00001BE51020D960EF324F66E58
:100A8800FE0EF420F76E0900F5CF13F00A00F5CF3B
:100A980014F0BFC011F0C0C012F075EC14F011C012
:100AA80018F012C019F0000E1B6E0A0E1A6E0DEC2B
:100AB80015F01850300F0001C46F32D0BFC011F0CC
:100AC800C0C012F00001BE51020DA00EF324F66E54
:100AD800FE0EF420F76E0900F5CF13F00A00F5CFEB
:100AE80014F075EC14F011500F0B0001BB6F0001EE
:100AF800BB51010D440EF324F66EFF0EF420F76E81
:100B08000800F5CFC4F00CD00001C151C00B000A99
:100B1800D8B4B0D7800AD8B4D1D7400AD8B4AAD7A5
:100B28000001C451DFEC15F00001BE070001BE2929
:100B3800D8A4EAD7AFC0F6FFB0C0F7FF0001AF4BAB
:100B4800B02B0800F5CFC4F00001C451D8B412008E
:100B580020D6FAD0800EE5EC15F0880E0001AF6FB4
:100B6800FF0E0001B06FC6EC03F0C00EE5EC15F007
:100B7800770E0001AF6FFF0E0001B06F000120EE8D
:100B880003F0C551D926C651DA22DF500001C76FDC
:100B9800C5C0D9FFC6C0DAFFDF500001C86FC96BF6
:100BA800000120EE01F0C551D926C651DA22DF50E6
:100BB8000001CA6F0001CA510001C827000EC923ED
:100BC800000120EE02F0C551D926C651DA22DF50C5
:100BD8000001CB6F0001CB510001C827000EC923CB
:100BE8000001C7510001C8250001B16F0001000EC6
:100BF8000001C9210001B26FC6EC03F097D0800E46
:100C0800E5EC15F0990E0001AF6FFF0E0001B06F13
:100C1800C6EC03F0C00EE5EC15F0770E0001AF6FDF
:100C2800FF0E0001B06FC5C0D9FFC6C0DAFFDF50A4
:100C38000001C76F0001C7510001B16FB26BC6EC6C
:100C480003F074D0800EE5EC15F0DD0E0001AF6FF7
:100C5800FF0E0001B06FC6EC03F0C00EE5EC15F016
:100C6800770E0001AF6FFF0E0001B06F000120EE9C
:100C780001F0C551D926C651DA22DF500001C76FED
:100C88000001C7510001B16FB26BC6EC03F04ED042
:100C9800800EE5EC15F0AA0E0001AF6FFF0E000103
:100CA800B06FC6EC03F0C00EE5EC15F0770E00014E
:100CB800AF6FFF0E0001B06F000120EE02F0C551CA
:100CC800D926C651DA22DF500001C76F0001C7518B
:100CD8000001B16FB26BC6EC03F028D0800EE5ECD2
:100CE80015F0EE0E0001AF6FFF0E0001B06FC6ECFD
:100CF80003F0C00EE5EC15F0770E0001AF6FFF0EA4
:100D08000001B06FC6EC03F011D00001F751000AE2
:100D1800D8B420D7010AD8B472D7030AD8B492D766
:100D2800010AD8B4B5D7070AD8B4D8D7020E00013B
:100D3800C86F450E0001C76FA90EE82EFED7C72F52
:100D4800FCD7C82FFAD700D0050E0001F719D8B480
:100D58001200DBD759505A105B10D8A407D0000EE8
:100D6800596E800E5A6E3F0E5B6E1200720E1D6E2B
:100D7800310E1E6E440E1F6E59C020F05AC021F06D
:100D88005BC022F01EEC12F0D8B00BD0000E6E6ED5
:100D9800220E6D6EFF0E596E7F0E5A6E7F0E5B6EC1
:100DA800120059C01DF05AC01EF05BC01FF0490E5A
:100DB800206E3A0E216EC40E226E1EEC12F0D8B0D0
:100DC8000BD0000E6E6E220E6D6E000E596E000E68
:100DD8005A6E000E5B6E12005BAE02D0010E01D09F
:100DE800000E616E6150D8B40ED059C011F05AC0CF
:100DF80012F05BC013F0ADEC15F011C059F012C041
:100E08005AF013C05BF059C01DF05AC01EF05BC009
:100E18001FF0AA0E206EB80E216E3F0E226E59ECFE
:100E28000FF01DC059F01EC05AF01FC05BF059C02A
:100E380051F05AC052F05BC053F046EC10F051C06C
:100E48005CF052C05DF053C05EF05CC038F05DC02D
:100E580039F05EC03AF0DFEC0EF038C05FF039C010
:100E680060F059C038F05AC039F05BC03AF05FC042
:100E780019F060C01AF06BEC15F019C03BF01AC0FD
:100E88003CF01BC03DF02EEC15F038C059F039C0CD
:100E98005AF03AC05BF059C038F05AC039F05BC01C
:100EA8003AF0AF0E3B6EFE0E3C6E000E3E6E090E23
:100EB8003D6EB5EC10F038C044F039C045F03AC08A
:100EC80046F05FC047F060C048F01EEC11F044C027
:100ED80059F045C05AF046C05BF06150D8B425D0EF
:100EE80059280EE17F0E5A180BE17F0E5B18D8A423
:100EF80007D0000E596E000E5A6E000E5B6E12007F
:100F0800000E196E800E1A6E3F0E1B6E59C01CF033
:100F18005AC01DF05BC01EF0D3EC0FF019C059F099
:100F28001AC05AF01BC05BF0120059C059F05AC0E1
:100F38005AF05BC05BF0120020EE01F01650D92683
:100F48001750DA22DF50186E18501A6E1B6AC9D073
:100F580016C0D9FF17C0DAFF020EDE18D8A407D0D2
:100F6800000E126E400E116EA8EC12F01DD016C0C5
:100F7800D9FF17C0DAFF030EDE18D8A407D0000E79
:100F8800126E800E116EA8EC12F00ED016C0D9FFAA
:100F980017C0DAFF040EDE18D8A406D0000E126EB1
:100FA800C00E116EA8EC12F016C0D9FF17C0DAFFF8
:100FB800010EDF6E120016C0D9FF17C0DAFF030E4C
:100FC800DE18D8A407D0000E126E400E116EA8ECE1
:100FD80012F01CD016C0D9FF17C0DAFF040EDE18B5
:100FE800D8A407D0000E126E800E116EA8EC12F075
:100FF8000DD016C0D9FF17C0DAFFDE04D8A406D07A
:10100800000E126E400E116EEAEC12F016C0D9FFF7
:1010180017C0DAFF020EDF6E120016C0D9FF17C024
:10102800DAFF040EDE18D8A407D0000E126E400EA8
:10103800116EA8EC12F01CD016C0D9FF17C0DAFF49
:10104800DE04D8A407D0000E126E800E116EEAECF2
:1010580012F00ED016C0D9FF17C0DAFF020EDE1844
:10106800D8A406D0000E126E400E116EA8EC12F035
:1010780016C0D9FF17C0DAFF030EDF6E120016C0C4
:10108800D9FF17C0DAFFDE04D8A407D0000E126E0D
:10109800C00E116EEAEC12F01DD016C0D9FF17C0B1
:1010A800DAFF020EDE18D8A407D0000E126E800EEA
:1010B800116EEAEC12F00ED016C0D9FF17C0DAFF95
:1010C800030EDE18D8A406D0000E126E400E116E64
:1010D800A8EC12F016C0D9FF17C0DAFF040EDF6EB5
:1010E80012001AC018F01BC019F01950000AD8A431
:1010F80012001850010AD8B42BD7030AD8B45BD70A
:10110800010AD8B48AD7070AD8A41200B8D72EC0C3
:1011180032F0336A346A2D34323601E33380325088
:10112800376E31C032F0336A346A3034323601E314
:1011380033803250366E3750D8B40BD03650375CC7
:10114800D8B00ED0375000083624326E180E3264EC
:1011580007D02FC02CF030C02DF031C02EF0120077
:101168003650D8B40BD03750365CD8B00ED0365085
:1011780000083724326E180E326407D02CC02CF0C9
:101188002DC02DF02EC02EF01200060E356E2EBE8C
:10119800358E31BE358C2D8EFF0E2C16FF0E2D167A
:1011A800000E2E16308EFF0E2F16FF0E3016000E74
:1011B80031163650375CD8B01BD0D8902F36303621
:1011C8003136360637503618D8B40DD0350635C006
:1011D80032F0070E3216D8B406D0EFD7D8902E3298
:1011E8002D322C32372A36503718D8B41FD0F6D7BC
:1011F8003750365CD8B01AD0D8902C362D362E36CB
:10120800370637503618D8B40DD0350635C032F009
:10121800070E3216D8B406D0EFD7D8903132303214
:101228002F32362A36503718D8A4F7D735AE0CD017
:10123800FF0E2C1AFF0E2D1AFF0E2E1A010E2C2649
:10124800000E2D22000E2E2235AC0CD0FF0E2F1AC8
:10125800FF0E301AFF0E311A010E2F26000E302213
:10126800000E3122000E356E2C502F262D503022C4
:101278002E50312231AE0ED0FF0E2F1AFF0E301A2B
:10128800FF0E311A010E2F26000E3022000E3122D9
:10129800010E356E2FC011F030C012F031C013F0BE
:1012A80037C014F035C015F07FEC11F011C02CF0E8
:1012B80012C02DF013C02EF01200000120EE02F033
:1012C8009951D9269A51DA22DF506A6E6A50000184
:1012D8009D6F9E6B000120EE02F09B51D9269C5118
:1012E800DA22DF506A6E6A5000019F6FA06B00011E
:1012F80020EE01F09951D9269A51DA22DF506A6E10
:101308006A500001A16FA26B000120EE01F09B5111
:10131800D9269C51DA22DF506A6E6A500001A36F09
:10132800A46B99C0D9FF9AC0DAFFDF506A6E6A5081
:101338000001A56FA66B9BC0D9FF9CC0DAFFDF50E8
:101348006A6E6A500001A76FA86B9DC068F09EC0C6
:1013580069F0DBEC0DF068C06AF069C06BF09FC003
:1013680068F0A0C069F0DBEC0DF0681E691E684AE1
:10137800692A68506A240001A96F69506B2000012E
:10138800AA6FA1C068F0A2C069F0DBEC0DF068C0DC
:101398006AF069C06BF0A3C068F0A4C069F0DBEC28
:1013A8000DF0681E691E684A692A68506A2400019F
:1013B800AB6F69506B200001AC6FA5C068F0A6C088
:1013C80069F0DBEC0DF068C06AF069C06BF0A7C08B
:1013D80068F0A8C069F0DBEC0DF0681E691E684A69
:1013E800692A68506A240001AD6F69506B200001BA
:1013F800AE6FA9C011F0AAC012F00E0E146E100E36
:10140800136E9AEC15F011C06AF012C06BF0ABC005
:1014180011F0ACC012F0000E146E3C0E136E9AEC74
:1014280015F011506A2612506B220001AD516A2442
:101438000001996F0001AE516B2000019A6F1200F4
:10144800000E0001866F625063106410D8A41BD090
:10145800000E1D6E000E1E6E000E1F6E65C020F081
:1014680066C021F067C022F01EEC12F0D8A004D0AC
:10147800000E6E6E210E6D6E000E626E000E636EB3
:10148800000E646E1200655066106710D8A407D06D
:10149800000E626E800E636E3F0E646E120064AEC4
:1014A80042D065C038F066C039F067C03AF0DFEC6A
:1014B8000EF038C087F039C088F03AC089F03BC0D8
:1014C8008AF087C019F088C01AF089C01BF08AC05A
:1014D8001CF01AEC14F06550191807E166501A1838
:1014E80004E167501B18D8B40BD0000E6E6E210EA5
:1014F8006D6E000E626E000E636E000E646E12005A
:1015080000018751010B0001866F62C011F063C0B2
:1015180012F064C013F0ADEC15F011C062F012C007
:1015280063F013C064F062C044F063C045F064C067
:1015380046F034EC0CF044C080F045C081F046C061
:1015480082F080C01DF081C01EF082C01FF065C00F
:1015580020F066C021F067C022F059EC0FF01DC0E2
:1015680083F01EC084F01FC085F083C059F084C08A
:101578005AF085C05BF0AEEC06F059C062F05AC074
:1015880063F05BC064F0000186510001D8B40FD04D
:1015980062C011F063C012F064C013F0ADEC15F036
:1015A80011C062F012C063F013C064F0120062C090
:1015B80062F063C063F064C064F0120092689368DC
:1015C800180E946E000E956E000E966E000E896EC3
:1015D800000E8A6E000E8B6E000E8C6E000E8D6EE5
:1015E800000EC26EC168F086F28EF19E010EE5EC27
:1015F80015F0EAEC14F0100E1E6E270E1F6E000E8A
:10160800206E000E216E48EC14F0010EE5EC15F08A
:10161800EAEC14F0800EE5EC15F0E80E0001AF6F6F
:10162800FE0E0001B06FC6EC03F0000E01012B6F37
:10163800050E0001F76F4BD0190E0001C56F010EA2
:101648000001C66FE2EC13F053D0000E0001C56F25
:10165800010E0001C66F0E0E0001C76F010E0001DA
:10166800C86F150E0001C96F010E0001CA6F190E6F
:101678000001CB6F010E0001CC6F09EC00F0070EE2
:10168800146E010E156EA9EC13F032D00E0E000187
:10169800C56F010E0001C66F8BEC0BF029D0150E3B
:1016A8000001C56F010E0001C66FADEC05F020D03A
:1016B800000E0001C56F010E0001C66F070E000184
:1016C800C76F010E0001C86FC5EC14F011D00101FD
:1016D8002B51010AD8B4B9D7030AD8B4ADD7010A37
:1016E800D8B4D4D7070AD8B4DAD7010AD8B4E0D71F
:1016F800020E0001F66F450E0001F56FA90EE82EE7
:10170800FED7F52FFCD7F62FFAD700D0E0D7F4ECA8
:1017180015F0000E136ED00E126EEBEC15F0000EE5
:10172800136E000E126EEBEC15F0F0EC15F0F4EC05
:1017380015F0000E136ED10E126EEBEC15F0000EC4
:101748006C6E050E6C6401D010D06C50010DF35016
:101758000001C525D96EF4500001C621DA6E010ECC
:1017680087EC15F0DF6E6C2AECD7000120EE06F04E
:10177800C551D926C651DA22000E87EC15F0DF6E66
:10178800F0EC15F0800EE5EC15F0030E0001AF6FDC
:10179800FF0E0001B06F000120EE05F0C551D926FB
:1017A800C651DA22DF500001C76F0001C75100019E
:1017B800B16FB26B000120EE04F0C551D926C651B5
:1017C800DA22DF500001C86F0001C8510001B36F71
:1017D800B46B000120EE06F0C551D926C651DA22B5
:1017E800DF500001C96F0001C9510001B56FB66B28
:1017F800C6EC03F0C00EE5EC15F01A0E0001AF6F51
:10180800FF0E0001B06F000120EE02F0C551D9268D
:10181800C651DA22DF500001C76F0001C75100012D
:10182800B16FB26B000120EE01F0C551D926C65147
:10183800DA22DF500001C86F0001C8510001B36F00
:10184800B46BC5C0D9FFC6C0DAFFDF500001C96F4D
:101858000001C9510001B56FB66BC6EC03F0120068
:1018680046AE0BD0000E6E6E210E6D6E000E446EED
:10187800000E456E000E466E12004450451046108C
:10188800D8A40BD0000E6E6E220E6D6E000E446E44
:10189800000E456E000E466E1200000E206E000E01
:1018A800216E400E226E470E146E000E156E44C057
:1018B80011F045C012F046C013F0D6EC11F011C07B
:1018C8001DF012C01EF013C01FF059EC0FF01DC020
:1018D8002CF01EC02DF01FC02EF0000E2F6E800EB3
:1018E800306EBF0E316E8BEC08F02CC044F02DC06A
:1018F80045F02EC046F04706D8A0480644C038F048
:1019080045C039F046C03AF0CD0E3B6EFE0E3C6E37
:10191800000E3E6E080E3D6EB5EC10F038C044F077
:1019280039C045F03AC046F0720E206E310E216E75
:101938003F0E226E47C019F048C01AF06BEC15F044
:1019480019C01DF01AC01EF01BC01FF059EC0FF093
:101958001DC02CF01EC02DF01FC02EF044C02FF06B
:1019680045C030F046C031F08BEC08F02CC044F094
:101978002DC045F02EC046F01200F4EC15F0000E14
:10198800136EE00E126EEBEC15F0000E136E800E67
:10199800126EEBEC15F0000E136E040E126EEBECEB
:1019A80015F0F0EC15F0F4EC15F0000E136E520E75
:1019B800126EEBEC15F0000E136E800E126EEBEC4F
:1019C80015F0000E136E030E126EEBEC15F0F0EC32
:1019D80015F0F4EC15F0000E136E520E126EEBECCF
:1019E80015F0000E136EB40E126EEBEC15F0F4EC5D
:1019F80015F0000E136E530E126EEBEC15F020EE80
:101A080001F01A50D9261B50DA22010E87EC15F086
:101A1800DF6E010E87EC15F01AC0D9FF1BC0DAFF84
:101A2800DF6E20EE01F01450D9261550DA22010E8F
:101A380087EC15F0DF6E010E87EC15F014C0D9FFA6
:101A480015C0DAFFDF6E20EE01F01650D9261750C8
:101A5800DA22010E87EC15F0DF6E010E87EC15F027
:101A680016C0D9FF17C0DAFFDF6E20EE01F018505C
:101A7800D9261950DA22010E87EC15F0DF6E000E18
:101A880087EC15F018C0D9FF19C0DAFFDF6EF0EC4B
:101A980015F01200F4EC15F0000E136EE00E126E45
:101AA800EBEC15F0000E136E800E126EEBEC15F0D9
:101AB800000E136E800E126EEBEC15F0F0EC15F0C4
:101AC800F4EC15F0000E136E520E126EEBEC15F0DE
:101AD800000E136E800E126EEBEC15F0000E136EF6
:101AE800030E126EEBEC15F0F0EC15F0F4EC15F0BB
:101AF800000E136E520E126EEBEC15F0000E136E04
:101B0800B40E126EEBEC15F0F4EC15F0000E136E3B
:101B1800530E126EEBEC15F020EE01F01A50D92698
:101B28001B50DA22010E87EC15F0DF6E010E87ECF0
:101B380015F01AC0D9FF1BC0DAFFDF6E20EE01F0E6
:101B48001450D9261550DA22010E87EC15F0DF6EF5
:101B5800010E87EC15F014C0D9FF15C0DAFFDF6E4F
:101B680020EE01F01650D9261750DA22010E87EC24
:101B780015F0DF6E010E87EC15F016C0D9FF17C0FF
:101B8800DAFFDF6E20EE01F01850D9261950DA225C
:101B9800010E87EC15F0DF6E000E87EC15F018C00B
:101BA800D9FF19C0DAFFDF6EF0EC15F01200000E55
:101BB8000001946F000E936F68C097F069C098F0A9
:101BC800000E0001966F000E956F6CD00F0E00018D
:101BD80097150001916F0001926B93C019F094C0A2
:101BE8001AF06BEC15F019C08BF01AC08CF01BC002
:101BF8008DF08BC065F08CC066F08DC067F0000E6C
:101C0800626E200E636E410E646E24EC0AF062C0B0
:101C18008EF063C08FF064C090F08EC020F08FC04B
:101C280021F090C022F091C019F092C01AF06BEC2C
:101C380015F019C01DF01AC01EF01BC01FF059EC9A
:101C48000FF01DC02FF01EC030F01FC031F095C03E
:101C580019F096C01AF06BEC15F019C02CF01AC0E8
:101C68002DF01BC02EF08BEC08F02CC038F02DC0E6
:101C780039F02EC03AF0DFEC0EF038C095F039C0DC
:101C880096F097C011F098C012F0000E146E100E66
:101C9800136E66EC12F011C097F012C098F00001B4
:101CA800934B942B0001975100019811D8A48ED71B
:101CB80095C068F096C069F012000600FACF03F0EC
:101CC800FBCF04F0E9CF05F0EACF06F0E1CF07F04B
:101CD800E2CF08F0D9CF09F0DACF0AF0F3CF0BF052
:101CE800F4CF0CF0F6CF0DF0F7CF0EF0F8CF0FF0E1
:101CF800F5CF10F0F0B01BD03FD0020E12D0010E7D
:101D080010D0050E0ED0040E01012B6F000E0CD062
:101D1800010E0AD0020E08D0030E06D0040E04D01D
:101D2800030E01012B6F050E0001F76F25D08138D6
:101D38000F0B0F0B016E026A0250000AD8A41CD0C8
:101D48000150000AD8B4DBD7010AD8B4DAD7030A9D
:101D5800D8B4D9D7010AD8B4DBD7070AD8B4E0D7A2
:101D6800030AD8B4D7D70C0AD8B4D6D7070AD8B438
:101D7800C4D7030AD8B4D2D7F09010C0F5FF0FC06B
:101D8800F8FF0EC0F7FF0DC0F6FF0CC0F4FF0BC044
:101D9800F3FF0AC0DAFF09C0D9FF08C0E2FF07C095
:101DA800E1FF06C0EAFF05C0E9FF04C0FBFF03C06E
:101DB800FAFF6F9211003AC03CF03D6A3E6A39342E
:101DC8003C3601E33D803C50466E4650D8A409D0CD
:101DD800000E386E000E396E000E3A6E000E3B6E25
:101DE8001200170E3C6E38C03DF039C03EF03AC0C4
:101DF8003FF03C28406E04D0D8903F323E323D320E
:101E0800402EFAD73D50416E398EFF0E3816FF0E20
:101E18003916000E3A163850426E3950436E3A5011
:101E2800446E456A8E0E465E46AE16D04650800A0F
:101E38008F0FD8B009D0000E386E000E396E000E24
:101E48003A6E000E3B6E1200D8904532443243324F
:101E58004232463EF9D715D0170E46640FD0000E11
:101E6800386E000E396E000E3A6E000E3B6E120090
:101E7800D890423643364436453646064650D8A4AE
:101E8800F7D74150D8B408D0451E441E431E426CB3
:101E9800000E43224422452242C038F043C039F0A4
:101EA80044C03AF045C03BF012001FC023F0246A3A
:101EB800256A1E34233601E324802350266E2650DB
:101EC800D8A407D0000E1D6E000E1E6E000E1F6EE9
:101ED800120022C023F0246A256A2134233601E344
:101EE800248023502B6E2B50D8A407D0000E1D6ED3
:101EF800000E1E6E000E1F6E12002B507B0F262642
:101F08001FC02BF022502B1A800E2B161E8E218EEE
:101F1800FF0E2016FF0E2116000E2216000E276E49
:101F2800000E286E000E296E070E2A6E1DA006D020
:101F3800205027262150282222502922D8901F32AB
:101F48001E321D32D8902036213622362A2EEED760
:101F5800090E2A6E1DA006D02050272621502822BF
:101F680022502922D8901F321E321D32D890293291
:101F7800283227322A2EEED727C011F028C012F0B7
:101F880029C013F026C014F02BC015F07FEC11F017
:101F980011C01DF012C01EF013C01FF012001BC0AC
:101FA8001FF0206A216A1A341F3601E320801F506F
:101FB800266E2650D8A407D0000E196E000E1A6E91
:101FC800000E1B6E12001EC01FF0206A216A1D340D
:101FD8001F3601E320801F50276E2750D8A407D052
:101FE800000E196E000E1A6E000E1B6E1200000E07
:101FF800236E000E246E000E256E2750890F265E74
:102008001BC027F01E50271A800E27161A8EFF0EA7
:102018001916FF0E1A16000E1B161D8EFF0E1C1623
:10202800FF0E1D16000E1E16180E226ED8902336AF
:10203800243625361C50195C1D501A581E501B5842
:10204800D8A007D01C50195E1D501A5A1E501B5A92
:102058002380D89019361A361B36222EE7D723C08C
:1020680011F024C012F025C013F026C014F027C0C8
:1020780015F07FEC11F011C019F012C01AF013C05E
:102088001BF0120051C011F052C012F053C013F0EF
:10209800570E146E000E156ED6EC11F058AE10D017
:1020A80053AE07D0000E516E800E526EBF0E536EA7
:1020B8001200000E516E000E526E000E536E12008A
:1020C800585004E1150E575CD8A007D051C051F004
:1020D80052C052F053C053F0120051C038F052C0F1
:1020E80039F053C03AF0DFEC0EF038C047F039C091
:1020F80048F03AC049F03BC04AF06DEC13F047C0D5
:1021080054F048C055F049C056F051C01DF052C0B7
:102118001EF053C01FF054C020F055C021F056C027
:1021280022F01EEC12F0D8B015D054C02CF055C0D7
:102138002DF056C02EF0000E2F6E800E306EBF0EA2
:10214800316E8BEC08F02CC051F02DC052F02EC02F
:1021580053F0120054C051F055C052F056C053F01D
:1021680012003DC011F03EC012F0000E146E030EB6
:10217800136E9AEC15F03BC03FF03CC040F0115094
:102188003F26125040223FC0F6FF40C0F7FF09002B
:10219800F5CF41F00900F5CF42F00A00F5CF43F042
:1021A8003ED041C020F042C021F043C022F038C0E8
:1021B8001DF039C01EF03AC01FF059EC0FF01DC0D9
:1021C8002CF01EC02DF01FC02EF0000E146E030E52
:1021D800136E3D06D8A03E063DC011F03EC012F079
:1021E8009AEC15F03BC03FF03CC040F011503F2640
:1021F800125040223FC0F6FF40C0F7FF0900F5CF5C
:102208002FF00900F5CF30F00A00F5CF31F08BEC54
:1022180008F02CC041F02DC042F02EC043F03D50D4
:102228003E10D8A4BED741C038F042C039F043C0F0
:102238003AF01200445045104610D8A407D0000EBA
:10224800446E000E456E000E466E120046507F0B1F
:10225800496E4A6AD89049364A36495047264A5004
:10226800482245AE03D0496A492A01D0496A4950F3
:102278004726000E482248AE0BD0000E6E6E220E86
:102288006D6E000E446E000E456E000E466E120016
:1022980048BE15D04804D8A012D0000E6E6E220E8B
:1022A8006D6E46AE06D0FF0E446E7F0E456EFF0E75
:1022B800EDD7FF0E446E7F0E456E7F0EE7D748348C
:1022C80048304A6E4730496E46504918800B4918C5
:1022D800466E47C049F0010E491649324932455009
:1022E80049187F0B4918456E44C044F045C045F075
:1022F80046C046F012001450D8B405D01150121040
:102308001310D8A40CD0000E116E000E126E000E21
:10231800136E1200142AD890133212321132000EA2
:102328001114166E000E1214176EFE0E1314186E8A
:10233800165017101810D8B40CD0ECD7142A010E68
:102348001126000E1222000E1322D89013321232D8
:102358001132000E1114166E000E1214176EFF0EB5
:102368001314186E165017101810D8B406D0E6D7E4
:102378001406D89011361236133612BE03D0020E48
:102388001460F6D714A0129ED89014321450131269
:102398001550D8A4138E11C011F012C012F013C03A
:1023A80013F01200115012101310D8A40FD014C03B
:1023B800D9FF15C0DAFF000EDE6E000EDD6E000ECE
:1023C800116E000E126E000E136E120013507F0B6A
:1023D800166E176AD8901636173614C0D9FF15C06E
:1023E800DAFF16C0DEFF17C0DDFF12AE03D0166A93
:1023F800162A01D0166A165014C0D9FF15C0DAFF84
:10240800DE12000EDD1214C0D9FF15C0DAFF820EED
:10241800DE26FF0EDD2213801382138413861388B1
:10242800138A139C129E11C011F012C012F013C02F
:1024380013F012001FAE16D01DC023F01EC024F0EA
:102448001FC025F0231E241E251E232A000E242229
:102458002522000E23241D6E000E24201E6E800EE1
:1024680025201F6E22AE16D020C023F021C024F0F4
:1024780022C025F0231E241E251E232A000E2422F6
:102488002522000E2324206E000E2420216E800EAB
:102498002520226E000E1D1A000E1E1A800E1F1A0D
:1024A800000E201A000E211A800E221A20501D5CE0
:1024B80021501E5822501F58D8B002D0D890120070
:1024C800D8801200000E166E14AE06D0136C141EBF
:1024D800D8B0142A010E166E12AE06D0116C121E58
:1024E800D8B0122A010E161A000E186E000E176EBA
:1024F80013501410D8B41CD0010E156E04D0D89007
:1025080013361436152A14AEFAD7D890173618365B
:102518001350115C14501258D8A005D01350115EF6
:102528001450125A1780D89014321332152EEDD742
:102538001650D8B404D0176C181ED8B0182A17C073
:1025480011F018C012F01200000E156E000E146E75
:1025580032D0829082928284828A110E136E3A0E51
:10256800E82EFED7132EFCD700D082908282828478
:10257800829A110E136E3A0EE82EFED7132EFCD750
:1025880000D0828082828284829A110E136E3A0E63
:10259800E82EFED7132EFCD700D082808292829438
:1025A800828A110E136E3A0EE82EFED7132EFCD730
:1025B80000D0144A152A1150145C1550800A136E65
:1025C8001250800A1358D8B01200C3D7000E156EE7
:1025D800000E146E32D0828082828294829A110E0A
:1025E800136E3A0EE82EFED7132EFCD700D0829039
:1025F80082828284829A110E136E3A0EE82EFED7DA
:10260800132EFCD700D0829082928284828A110E87
:10261800136E3A0EE82EFED7132EFCD700D0828018
:1026280082928294828A110E136E3A0EE82EFED799
:10263800132EFCD700D0144A152A1150145C1550DB
:10264800800A136E1250800A1358D8B01200C3D7EC
:10265800000E196E000E1A6E000E1B6E000E1C6E18
:102668001550161017101810D8B42AD0010E1D6E68
:1026780006D0D89015361636173618361D2A18AED5
:10268800F8D7D89019361A361B361C361550115CF7
:10269800165012581750135818501458D8A009D06B
:1026A8001550115E1650125A1750135A1850145AD2
:1026B8001980D89018321732163215321D2EE1D7EC
:1026C80019C011F01AC012F01BC013F01CC014F08E
:1026D8001200000E506E8E0E4F6E4AAE11D04A1E7A
:1026E800491E481E476C000E482249224A22010E04
:1026F800506E06D0D8904A324932483247324F2A73
:10270800000E47144B6E000E48144C6E000E491410
:102718004D6EFF0E4A144E6E4B504C104D104E101D
:10272800D8A4E8D747C011F048C012F049C013F048
:102738004FC014F050C015F07FEC11F011C047F0F5
:1027480012C048F013C049F01200F4EC15F0000E66
:10275800136ED00E126EEBEC15F0000E136E000E19
:10276800126EEBEC15F0F0EC15F0F4EC15F0000E31
:10277800136ED10E126EEBEC15F0000E166E050EF0
:10278800166401D00ED01650010DF3501424D96EE2
:10279800F4501520DA6E010E87EC15F0DF6E162A5C
:1027A800EED720EE06F01450D9261550DA22000E86
:1027B80087EC15F0DF6EF0EC15F012008492800EB5
:1027C800E5EC15F0BB0E0001AF6FFF0E0001B06F16
:1027D800C6EC03F0C00EE5EC15F0550E0001AF6F26
:1027E800FF0E0001B06FC6EC03F0050E01012B6F60
:1027F800000120EE01F0C551D926C651DA22010E9A
:10280800DF6EC5C016F0C6C017F0A0EC07F0070EC3
:102818000001C86F580E0001C76F590EE82EFED789
:10282800C72FFCD7C82FFAD700D012008E0E216E02
:1028380006D0D8901C321B321A321932212A000EC7
:1028480019141D6E000E1A141E6E000E1B141F6E36
:10285800FF0E1C14206E1D501E101F102010D8A42F
:10286800E8D719C011F01AC012F01BC013F021C02C
:1028780014F0000E156E7FEC11F011C019F012C0A3
:102888001AF013C01BF01200000EC76E280EC66E99
:10289800000EC56E800E116E960E126E980E136E97
:1028A800000E146E1EC022F01FC023F020C024F0BA
:1028B80021C025F0020ED89022362336243625363C
:1028C800E82EF9D722C015F023C016F024C017F05F
:1028D80025C018F02CEC13F01104C86E9486948867
:1028E8001200000E166E000E156E13501410D8B498
:1028F8001CD0010E176E04D0D89013361436172A40
:1029080014AEFAD7D890153616361350115C1450F9
:102918001258D8A005D01350115E1450125A1580C1
:10292800D89014321332172EEDD715C011F016C0F7
:1029380012F01200126E1250F00B116E8C500F0B29
:102948008C6E11508C108C6E8C96190EE82EFED75A
:102958008C86190EE82EFED71238F00B126E125024
:10296800F00B116E8C500F0B8C6E11508C108C6EFE
:102978008C96190EE82EFED78C86190EE82EFED7F7
:102988001200800EE5EC15F0CC0E0001AF6FFF0EC3
:102998000001B06FC6EC03F0C00EE5EC15F0310E87
:1029A8000001AF6FFF0E0001B06FC7C099F0C8C03B
:1029B8009AF0C5C09BF0C6C09CF061EC09F099C0C4
:1029C800B1F09AC0B2F0C6EC03F01200310E146EEA
:1029D800B20EE82EFED7142EFCD700D0330EE5EC4D
:1029E80015F0320EE5EC15F0280EE5EC15F00F0E9B
:1029F800E5EC15F0060EE5EC15F0010EE5EC15F02A
:102A0800310E146EB20EE82EFED7142EFCD700D06D
:102A180012001A501B10D8B418D0010E1C6E04D026
:102A2800D8901A361B361C2A1BAEFAD71A50185CD7
:102A38001B501958D8A004D01A50185E1B50195AA8
:102A4800D8901B321A321C2EF1D718C018F019C0B2
:102A580019F012003B503C103D10D8B406D0000EBF
:102A68003B1A000E3C1A800E3D1A38C02CF039C0B3
:102A78002DF03AC02EF03BC02FF03CC030F03DC0E6
:102A880031F08BEC08F02CC038F02DC039F02EC096
:102A98003AF01200AE0EF66E2B0EF76E000EF86EC0
:102AA80001EE1BF010EE10F00900F5CFEEFFE55037
:102AB800E150FAE101012B6B0001F76B6E6A6D6A58
:102AC8006F906F92000EF86E0001E2EF0AF0000EB0
:102AD8001C6E1AAE06D0196C1A1ED8B01A2A010E2E
:102AE8001C6E19C011F01AC012F0136A8E0E146E03
:102AF8001CC015F07FEC11F011C019F012C01AF0CB
:102B080013C01BF01200126ECEEC15F0C586CEEC89
:102B180015F0C9CF13F0CEEC15F01250D8A402D09E
:102B2800C58A01D0C59AC5881350120011501302E6
:102B3800F3CF15F0F4CF16F011501402F350162607
:102B480012501302F350162615C011F016C012F0D9
:102B58001200115012101310D8B406D0000E111A1A
:102B6800000E121A800E131A11C011F012C012F0C2
:102B780013C013F01200136E000E126E3A0E13609B
:102B880005D02F0E136402D0010E126E12C011F080
:102B980011301200C7B4FED7C5CF11F01F0E1116A1
:102BA800D8B41200F7D70001020304050607080984
:102BB8000A0B0C0D0E0F136E8C8413509EEC14F040
:102BC8001200136E8C9413509EEC14F01200CEEC8D
:102BD80015F012C0C9FF1200CEEC15F0C584120022
:082BE800CEEC15F0C5801200CF
:10FE8400003132334134353642373839432A30234E
:10FE9400440001000A006400E80310270100100078
:10FEA400000100104559230731121600803F7231BA
:10FEB4003FFE753E58633D951D3CC5AE3A792139E8
:10FEC40094803793A73556153400000000803FF026
:10FED400FFBEE2A93E8376BEAE2B3E3CC3BDD21329
:10FEE4003D78D3BB5072657373203120746F2062E8
:10FEF4006567696E206F7065726174696F6E004426
:10FF04006174653A20253032782F253032782F25D8
:10FF140030327820200054696D653A2025303278DB
:10FF24003A253032783A2530327820200054696DF1
:10FF3400653A2025697320202020202020202000DD
:10FF4400303132333435363738396162636465664B
:10FF540000202020202020202020202020202020BD
:10FF6400200025757C25757C2575202020202020E7
:10FF7400202000436F756E743A20256920202020CC
:10FF840020202000546F74616C20426F74746C657F
:10FF94002020202000594F50205769746820436165
:10FFA40070202020200045534B412057697468205D
:10FFB400436170202020004F7065726174696F6E18
:10FFC40020446F6E65212000546F74616C204F7063
:10FFD40065726174696F6E2000594F5020576974BF
:10FFE40068204E6F20436170200045534B412057D9
:0CFFF400697468204E6F204361700000AB
:020000040020DA
:08000000FFFFFFFFFFFFFFFF00
:020000040030CA
:0E000000FF021F1EFF8381FF0FC00FE00F40A5
:00000001FF
